:100000000C94F0020C9437030C9437030C940A1BE5
:100010000C9437030C9437030C9437030C94370378
:100020000C9437030C9437030C94882E0C945A2F9D
:100030000C9499280C9437030C9437030C943703D1
:100040000C9437030C9437030C9437030C94370348
:100050000C9437030C94F2280C9437030C94370358
:100060000C9437030C9437030C9437030C94370328
:100070000C9437030C9437030C9437030C94370318
:100080000C9437030C9437030C9437030C94370308
:100090000C9437030C9437030C9437030C943703F8
:1000A0000C9437030C9437030C9437030D1410147D
:1000B00015141C14211426142B14301435143A145E
:1000C0003F144414461449144C144F14521455143C
:1000D00057145C1496159915B915CA15D215DD1566
:1000E000E015E315E6152C162C16E915EC15F1159F
:1000F000FE150B160E1612161F16091F091F3B1FA1
:100100003B1F881FA61FBA20BA20B11F4A205B20C0
:100110005B205A215A216C216C2163216C216C21B6
:100120006C215A215A2168216C216C216821C72F2A
:10013000EE2FE630EE2FE6303A305D30E630B43068
:10014000C33007634236B79BD8A71A39685618AE32
:10015000BAAB558C1D3CB7CC5763BD6DEDFD753EFC
:10016000F6177231BF000000803F05A84CCDB2D415
:100170004EB93836A9020C50B9918688083CA6AA17
:10018000AA2ABE000000803F290014001A000800BF
:1001900015001700E00004001600070009000A001F
:1001A000E1001D001B00060019000500E200000030
:1001B000E3002C41000000001C0018000C0012009D
:1001C00013002A000B000D000E000F002D00280068
:1001D00011001000360037003800E50005422C0001
:1001E0000000E4002A4100002B001E001F00200038
:1001F00021002200E0001E021F0220022102220232
:10020000E10057005600550054006700E20000006E
:10021000E3002C000000000023002400250026003D
:1002200027004C0023022402250226022702280070
:10023000350089002F1230122D12E50005002C0028
:100240000000E700000000002B003A003B003C00EB
:100250003D003E00E0001F02310033003312340045
:10026000E100C25CC35CC55CC65CC75CE200000028
:10027000E3002C00000000003F004000410042006D
:1002800043004C005000510052004F002E00280047
:10029000C85CC95C2F0030003100E5000000CA5C7A
:1002A0000000E700E6000000000000000000000081
:1002B0002A2B2800000000000000000000000000C1
:1002C00000000029000000002C1E342021222434CC
:1002D0002627252E362D3738271E1F20212223249E
:1002E00025263333362E37381F0405060708090A3A
:1002F0000B0C0D0E0F101112131415161718191AD6
:100300001B1C1D2F3130232D350405060708090A53
:100310000B0C0D0E0F101112131415161718191AB5
:100320001B1C1D2F3130354C000000000000000068
:1003300000000000000000000000000000000000BD
:100340000000000000000000000000007E0F00D44C
:10035000FFFFFFC7000000781E0F0500047F3F1F4E
:10036000643214643214783C1E1E140A05FFAA7FFE
:1003700055400001010101010101010102020202D7
:10038000020202020203030303030303030404043F
:100390000404040405050505050606060606070708
:1003A00007070708080808090909090A0A0A0B0BC0
:1003B0000B0C0C0C0D0D0D0E0E0E0F0F0F1010115F
:1003C00011111212131314141515161617171818E5
:1003D00019191A1A1B1B1C1D1D1E1E1F202021224D
:1003E00022232424252626272829292A2B2C2D2D93
:1003F0002E2F30313232333435363738393A3B3CB0
:100400003D3E3F404142434445464748494A4C4DA2
:100410004E4F50515354555658595A5B5D5E5F616B
:100420006264656668696B6C6D6F707273757778FE
:100430007A7B7D7E8082838587888A8C8E8F91935C
:100440009596989A9C9EA0A2A3A5A7A9ABADAFB183
:10045000B3B5B7BABCBEC0C2C4C6C9CBCDCFD1D468
:10046000D6D8DBDDDFE2E4E7E9EBEEF0F3F5F8FA0E
:10047000FDFF120363006F006F006C003900340051
:100480003300530000000A036D002E006B0069006A
:1004900000000403090409025B00030100A0FA093B
:1004A00004000001030101000921110100012240A3
:1004B000000705810308000A090401000203000087
:1004C00000092111010001222200070582032000FA
:1004D00001070503032000010904020001030000D5
:1004E00000092111010001227B000705840320007F
:1004F0000A1201100100000008EDFE0000010001D9
:100500000200010660FF0961A1010962150026FFD2
:10051000009520750881020963150026FF009520CB
:1005200075089102C005010902A10185020901A116
:100530000005091901290815002501950875018193
:10054000020501093009311581257F950275088161
:100550000609381581257F950175088106050C0A65
:1005600038021581257F950175088106C0C00501F7
:100570000980A101850319012AB700150126B700DA
:10058000950175108100C0050C0901A101850419B0
:10059000012AA002150126A002950175108100C054
:1005A00005010906A101050719E029E71500250144
:1005B00095087501810295017508810105071900EB
:1005C00029FF150026FF009506750881000508190A
:1005D000012905950575019102950175039101C0E9
:1005E00011241FBECFEFDAE0DEBFCDBF04B603FE9D
:1005F00027C08091640390916503A0916603B09138
:1006000067038730904BA740B04BD1F4109264033E
:1006100010926503109266031092670314BE84B7AC
:10062000877F84BF0FB6F894A89580916000886199
:1006300080936000109260000FBEE0E0F8E309953F
:1006400011E0A0E0B1E0E2E9FBE602C005900D9206
:10065000A83EB107D9F723E0A8EEB1E001C01D9292
:10066000A436B207E1F70E94472B0C94C7350C94CF
:10067000000081E0089581E008950C943B03089503
:100680000C943F031F93CF93DF9300D000D01F92B1
:10069000CDB7DEB749835A836B8330918E0289814F
:1006A0009A81311114C0662359F0222349F00E9427
:1006B0001826182F682F89819A810E94BF2503C0B0
:1006C0000E94EB25182F69817A81812F04C00E9436
:1006D000182669817A810F900F900F900F900F90DC
:1006E000DF91CF911F910C94FE16FC01262F4081C3
:1006F00051816281738184810C944203CF93DF9393
:10070000EC0160E00E947503BE01DF91CF910C9473
:1007100040038F929F92AF92BF92CF92DF92EF925F
:10072000FF920F931F936B017C0181E090E0A0E0AA
:10073000B0E04C015D0104C0880C991CAA1CBB1CD4
:100740004A95D2F7AC01BD0104C0440F551F661F86
:10075000771F2A95D2F7482959296A297B2904C08D
:10076000880F991FAA1FBB1F0A95D2F78A019B0108
:100770000C211D212E213F214017510762077307CD
:1007800039F4BC01CD016C297D298E299F290AC02D
:1007900080959095A095B095BC01CD016C217D21EF
:1007A0008E219F211F910F91FF90EF90DF90CF90AE
:1007B000BF90AF909F908F9008950F93382F262F62
:1007C0006091E5027091E6028091E7029091E80263
:1007D000042F432F0E9489030F910C94FB240E9445
:1007E0007A290E944527811102C00E94EC270C94AF
:1007F00025070C94210708950E9448210E94FB03BD
:100800002FEF84E39CE0215080409040E1F700C04E
:1008100000000C9462290F931F93CF93DF93EC0198
:1008200061E00E9475038C01BE010E94EE148823D2
:10083000A9F1BE01C8010E943D03882379F1BE01E0
:10084000C8010E943318882349F1BE01C8010E94E3
:100850008518882319F1BE01C8010E94B0198823A8
:10086000E9F0BE01C8010E94F7138823B9F08A811C
:10087000882369F001158CE5180731F00E3D1C4501
:1008800031F40E94EC270AC00E94FC0307C0CE018D
:10089000DF91CF911F910F910C94390380E0DF918C
:1008A000CF911F910F910895DF92EF92FF920F93D6
:1008B0001F93CF93DF93E82FF0E0E855FD4FD490DE
:1008C000282F26952695269530E0F901E85BFC4F08
:1008D0000491877010E0082E02C0159507950A94C0
:1008E000E2F701701127F901E85CFC4FE490F12C6C
:1008F000082E02C0F594E7940A94E2F791E0E92209
:10090000FF24F901E85DFC4FC491D0E002C0D59509
:10091000C7958A95E2F7C170DD270115110519F019
:1009200081EE0E94921DE114F10419F086EE0E94FE
:10093000921D8D2D0E94BB1EEF2819F086EE0E949D
:100940003C1E012B19F081EE0E943C1ECD2B51F074
:100950008CE2DF91CF911F910F91FF90EF90DF908C
:100960000C94BB1EDF91CF911F910F91FF90EF90E0
:10097000DF900895EF92FF920F931F93CF93DF9331
:10098000EC01162F0AE08881882309F455C08130D4
:1009900009F043C08981813041F47E0182E0E80E94
:1009A000F11C8A810E94BB1E09C0823049F47E017D
:1009B000E2E0EE0EF11C8A810E94921DE7012FC039
:1009C000833041F47E01F2E0EF0EF11C8A810E9437
:1009D0003C1EF4CF843011F0219621C02A8122964A
:1009E00080E090E030E0205331092A30310558F49E
:1009F000089FA001099F500D1124C901840F951F64
:100A000021962881EFCF009751F0EFE9FFE0319771
:100A1000F1F700C000000197F6CF0E945404219620
:100A2000812F882309F4AFCFEFE9FFE03197F1F789
:100A300000C000008150F5CFDF91CF911F910F9141
:100A4000FF90EF90089560E00C94BA0408950C9420
:100A5000260581E008950C942905CF93C82F0E94A4
:100A600027058C2F0E942B05CF910895CF93DF93FC
:100A70000E94FE160E943806EC01811521E59207BE
:100A800008F043C0811540E5940708F08AC0883E0D
:100A9000910520F5803E910508F0E6C0883A910561
:100AA00070F4853A910508F074C08130910509F41D
:100AB000DBC008F4D7C0049708F0D6C0D3C08F3B82
:100AC000910508F0CFC0C85AD0E0CC0FDD1FC35C41
:100AD000DE4F0990D881C02DD464C6C0C11580E214
:100AE000D80758F4C11521E0D20708F0BDC0C03FB7
:100AF000D10508F4B7C0D065B7C0C11540E4D4072C
:100B000008F4B0C0DF70D06AAFC0C11585E5D80762
:100B1000A0F4C11524E5D20708F08AC0C11543E549
:100B2000D40708F06FC0C11582E5D80708F054C09B
:100B3000DC2FCC27C16FD06A97C0C11529E5D20739
:100B4000A0F4C11548E5D40708F077C0C11586E5C3
:100B5000D80708F087C08C2F0E94CC068F71C82F51
:100B6000D0E0DC2FCC27D0627FC0C1152AE5D207A8
:100B700008F468C0CE0190568115904208F072C00A
:100B80008D2F8F710E94CC06DD27D0628F71D82BFC
:100B90006BC0C55AD0E0C559DE4FC881D0E0D064E3
:100BA00063C074E0969587957A95E1F783709C2FE2
:100BB000937021E030E002C0220F331F9A95E2F7D4
:100BC0003C68382BCF70C695C69580E2C89FE0017F
:100BD0001124C22BD32B48C0CE018370992721E06A
:100BE00030E002C0220F331F8A95E2F78C2F8695E2
:100BF000869540E2849FC0011124E901C82BD92BBE
:100C0000DC6832C0CE018370992721E030E002C059
:100C1000220F331F8A95E2F78C2F8695869540E246
:100C2000849FC0011124E901C82BD92BDA681CC0AC
:100C3000DC2FCC27C46FD06A17C0DC2FCC27C06F45
:100C4000D06A12C08C2F8F700E94CC0694E0D6958B
:100C5000C7959A95E1F7CF70D0E0DC2FCC27D0690B
:100C6000C82B02C0C0E0D0E0CE01DF91CF91089543
:100C70008238910569F1B0F48133910509F46DC0B2
:100C800048F48932910509F463C08A32910509F468
:100C900069C008958533910509F455C089339105DC
:100CA000B9F00895833E910569F138F4803E9105CD
:100CB000B1F0823E910509F10895863E9105A9F1B2
:100CC000873E9105B9F1843E910509F064C023C0C7
:100CD0002091550320FD4FC021FD4DC00895809106
:100CE000550380FD44C08091560380FF44C080912D
:100CF000550384FD42C083EE4DC08091550382FFB1
:100D000038C0F5CF8091550382FD33C080915603E2
:100D100080FD31C0ECCF8091560381FF32C08091BD
:100D2000550384FD2AC087EE35C08091550383FFAB
:100D300026C0F5CF8091550383FD21C080915603D5
:100D400081FD1FC0ECCF8091550385FD1CC01DC0E7
:100D50008091550385FD19C016C08091550386FD0D
:100D600016C017C08091550386FD13C010C089E3DB
:100D700011C082EE0FC080EE0DC080E00BC086EE89
:100D800009C084EE07C089E205C085E303C08AE29A
:100D900001C081E390E008959091550392FF0DC04A
:100DA000282F2871283019F4877F846006C0282FE7
:100DB0002471243011F48B7F886093FF0DC0282F9D
:100DC0002871283119F4877E846106C0282F247188
:100DD000243111F48B7E88612091560320FF0DC0D1
:100DE000382F3871383019F4877F816006C0382F6A
:100DF0003171313011F48E7F886021FF0DC0282FB2
:100E00002871283119F4877E816106C0282F21714D
:100E1000213111F48E7E886194FD877E0895E82F3C
:100E2000F0E0E25FFC4F80810895089580EA8A95A2
:100E3000F1F7089500C008950C94160708950C94D6
:100E40001E070C941F070C941E070C942307F8949C
:100E5000E82FE295EF70F0E031A1282F2F7081E0AC
:100E600090E001C0880F2A95EAF7982F9095932378
:100E700091A392A1892B82A37894089508950F934A
:100E80001F93CF93DF930E94CD088091040180913E
:100E90000401811102C094E001C090E09093170317
:100EA00084E0891B80931603CEE6D1E004E711E0CD
:100EB00089910E9427070C171D07D1F786EF0E9422
:100EC000270787EF0E94270781E30E94270783E314
:100ED0000E942707E6E0F3E0AEE0B3E011921D9236
:100EE00083E0EE30F807D1F784E00E9477080E9493
:100EF000EF03DF91CF911F910F910C94E1081F93A5
:100F0000CF93DF9300D000D0CDB7DEB70E94AE08FC
:100F100060911703882309F442C019821A821B8248
:100F20001C82862F90E0BE016F5F7F4F825F9C4FD7
:100F30000E940A1A811117C08091EA018F5F809385
:100F4000EA01863040F1E0911603F0E0E25FFC4FE9
:100F5000DE011196CE01059611921D92A817B907D0
:100F6000D9F711E019C01092EA01E0911603F0E000
:100F7000E25FFC4FDE0111969E012B5F3F4F10E0B8
:100F80008D919081981711F0808311E03196A2170E
:100F9000B307B1F701C010E00E94F9030DC070E083
:100FA000625F7C4F8091160390E0825F9C4F0E94AD
:100FB000381A0E943E0710E0812F0F900F900F907B
:100FC0000F90DF91CF911F9108958F929F92AF92D2
:100FD000BF92CF92DF92EF92FF920F931F93CF9326
:100FE000DF930EE611E0C0E0D0E0912CEE24E39414
:100FF000F12C9AE0C92E93E0D92E5801D8018C919A
:10100000F894E82FE295EF70F0E021A18F70A7012E
:1010100002C0440F551F8A95E2F7CA01922F982B00
:1010200091A392A18095892382A378940E941A07A4
:10103000C7010C2E01C0880F0A94EAF7582F282FF9
:101040002095E6E0F3E064E771E0812C4081DB016C
:101050003D91BD01832F82958F7090E0DC019096C9
:101060008C9190E03F7002C0959587953A95E2F794
:1010700080FD03C0842F852B02C0842F8223481754
:1010800019F08083882483943196CE16DF06F1F61A
:101090000F5F1F4FF50180810E942707C530D105E2
:1010A00011F00E941C0798282196C630D10509F03E
:1010B000A4CF6091170370E0625F7C4F292D44E05C
:1010C00086E093E00E9478080E947F07992011F043
:1010D00081E090E0DF91CF911F910F91FF90EF9011
:1010E000DF90CF90BF90AF909F908F90089508951C
:1010F000FF920F931F93CF93DF938C01F62ED72F80
:10110000C42F222349F081E08093ED010E94CB2877
:101110009093EC018093EB018091ED018823C1F065
:101120008091EB019091EC010E94E328069780F0FA
:10113000EF2DFD2FD8014C2F50E0CD01801B910BDE
:10114000841795071CF48D918193F7CF1092ED01D0
:10115000DF91CF911F910F91FF9008958091EE0143
:10116000811112C08091D80080618093D8008AE1FB
:101170008A95F1F700C08091D90080FD02C082E01D
:1011800001C081E08093EE0181E09091EE01913009
:1011900009F080E008950C94AE080E94CB0880937B
:1011A00004018091040166E0882311F080E001C011
:1011B00086E00E94360C0E94AE0881110C94E11961
:1011C00008950E94AE08811102C00C94E719089599
:1011D0008091F50180FF0BC060910A0185E0689F56
:1011E000B001112475956795759567952BC081FFA2
:1011F00009C060910A0185E0689FB00111247595CE
:10120000679520C082FF07C060910A0185E0689F52
:10121000B001112417C09091F4019923D1F060918D
:101220000901961788F720910A0185E0289F90010F
:101230001124929FA001939F500D112470E0CA01C8
:101240000E9483346038710540F46115710519F40A
:1012500006C065E070E0862F08958FE7089581E06D
:1012600008958091F50180FF08C06091060170E04B
:10127000759567957595679521C081FF06C060914A
:10128000060170E07595679519C082FF04C06091F2
:10129000060170E010C09091F301992399F06091DC
:1012A00005019617A0F780910601899FC0011124BE
:1012B00070E00E9483346038710540F46115710557
:1012C00019F406C061E070E0862F08958FE7089555
:1012D00081E00895803F21F40E94E808819504C0D0
:1012E000813F29F40E94E8088093F9010895823F24
:1012F00021F40E94E808819504C0833F29F40E94EC
:10130000E8088093F8010895893F19F40E94310993
:1013100005C08A3F31F40E94310981958093FA011A
:1013200008958B3F21F40E943109819504C08C3FC0
:1013300029F40E9431098093FB0108959CE0980FE5
:10134000953078F421E030E0A90102C0440F551F28
:101350009A95E2F7CA019091F701892B8093F701E2
:1013600008958D3F21F48091F50181600BC08E3F7F
:1013700021F48091F501826005C08F3F29F48091AE
:10138000F50184608093F5010895803F39F49091D0
:10139000F90197FF35C01092F90159C0813F29F436
:1013A0009091F9011916BCF32BC09091F801823F7E
:1013B00029F497FF25C01092F80149C0833F19F422
:1013C0001916CCF31DC09091FA01893F29F4191622
:1013D000BCF41092FA013BC08A3F19F497FF10C089
:1013E000F8CF8B3F39F49091FB0197FF09C0109221
:1013F000FB012DC08C3F21F49091FB011916BCF329
:101400009CE0980F953080F421E030E0A90102C003
:10141000440F551F9A95E2F7CA0180959091F70104
:1014200089238093F70113C08D3F21F48091F5014A
:101430008E7F0BC08E3F21F48091F5018D7F05C01A
:101440008F3F29F48091F5018B7F8093F501809186
:10145000F801811106C08091F901811102C010923A
:10146000F4018091FA01811106C08091FB01811184
:1014700002C01092F30108950E94CB282091F80138
:10148000211104C02091F901222321F09093F2014F
:101490008093F1012091FA01211104C02091FB01F8
:1014A000222321F09093F0018093EF0186EF91E0E9
:1014B0000C94391CEF92FF920F931F93CF93DF93FD
:1014C00000D000D000D0CDB7DEB786E0E6EFF1E087
:1014D000DE01119601900D928A95E1F7E090F801F6
:1014E000F090F9010091FA011091FB011092F801BE
:1014F0001092F9011092FA011092FB01E11003C061
:10150000FF2009F45DC08091F1019091F2010E94E9
:10151000E328AC019091F401992339F020910B015B
:1015200030E02417350758F04BC020910C018AE0B9
:10153000289F900111242417350718F041C09F3FC0
:1015400019F09F5F9093F401EE2061F00E94E8088B
:101550001E1414F09FEF01C091E0989F902D11246C
:101560009093F801FF2061F00E94E8081F1414F026
:101570009FEF01C091E0989F902D11249093F90165
:101580003091F8013323E1F02091F9012223C1F0D9
:1015900045EB3403C0011124992319F09093F8010D
:1015A00003C081E08093F80135EB2303C0011124CF
:1015B000992319F09093F90103C081E08093F90118
:1015C000011103C0112309F45DC08091EF019091D6
:1015D000F0010E94E328AC019091F301992339F0C6
:1015E0002091070130E02417350758F04BC02091B7
:1015F00008018AE0289F900111242417350718F06C
:1016000041C09F3F19F09F5F9093F301002361F069
:101610000E943109101614F09FEF01C091E0989FCD
:10162000902D11249093FA01112361F00E94310949
:10163000111614F09FEF01C091E0989F902D112496
:101640009093FB013091FA013323E1F02091FB01EB
:101650002223C1F045EB3403C0011124992319F072
:101660009093FA0103C081E08093FA0135EB2303E4
:10167000C0011124992319F09093FB0103C081E06C
:101680008093FB018091F80181110BC08091F901D9
:10169000811107C08091FA01811103C08091FB0183
:1016A00081110E943C0AEB82FC820D831E8386E03E
:1016B000FE013196A6EFB1E001900D928A95E1F717
:1016C00026960FB6F894DEBF0FBECDBFDF91CF9147
:1016D0001F910F91FF90EF900895E6EFF1E086E003
:1016E000DF011D928A95E9F71092F4011092F3013F
:1016F0001092F5010895EF92FF920F931F93CF93ED
:10170000DF938B01682F11110AC0442329F0E82FC1
:10171000F0E0EE58FC4F6491762F862F75C0212F94
:1017200030E0E82FF0E0442321F0EE58FC4FE49144
:10173000F0E046E0049FC0011124CFEFD0E0BE01ED
:101740000E946F344BEA4603C001479F900D11245D
:10175000800F911D800F911D982F990F890FAE0159
:10176000421B530B4E9FD0014F9FB00D5E9FB00D9B
:1017700011249B2F189FA0011124452F55278E015E
:10178000041B150B0E9FA0010F9F500D1E9F500DA7
:1017900011247E01E81AF108E29E8001E39E100DFB
:1017A000F29E100D1124212F3327C21BD30BCE9F85
:1017B0009001CF9F300DDE9F300D112462307105F6
:1017C000A9F048F46115710569F061307105C9F43B
:1017D0008B2F752F0DC06430710581F058F0663085
:1017E000710579F47E2F8B2F932F0DC0832F7B2FC4
:1017F0009E2F09C08E2F7B2F952F05C08E2F732F04
:1018000002C07E2F852F692FDF91CF911F910F91FD
:10181000FF90EF90089541E00E947B0B089508959A
:10182000682F70E080E090E00E94643220E030E0B9
:101830004FE753E40E9487312BED3FE049E450E449
:101840000E948D330E94FA330E9401322BE43AE366
:101850004EE25FE30E941A3120EF3BEF48ED52E485
:101860000E948D330E943332862F0895E0E1F1E02B
:101870008083618308950E940B0C0895CF93DF93BA
:10188000762FE901682F842F0E943B0C79836883AF
:101890008A83DF91CF91089580911803282F269590
:1018A00030E02115310519F48170826005C02B32BA
:1018B000310524F08170846580931803089588E0D1
:1018C00090E00C946835CF92DF92EF92FF926B011B
:1018D0007C010E944C0CB701A60188E090E0FF90CB
:1018E000EF90DF90CF900C94863560911803709143
:1018F000190380911A0390911B030C94630CE8E187
:10190000F3E083E0808311828FEF828383831482EC
:10191000ABE5B2E012968C911297836012968C938D
:1019200060817181828193810C94630C8091180392
:1019300080FF02C08695089580E0089590911C0371
:10194000933018F49F5F90931C03882351F06091AB
:1019500018037091190380911A0390911B030C9442
:10196000630C089581E00C949E0C90911C039923C4
:1019700019F0915090931C03882351F06091180343
:101980007091190380911A0390911B030C94630CBE
:10199000089581E00C94B50C80911C030895809308
:1019A0001C03662351F06091180370911903809114
:1019B0001A0390911B030C94630C089560E00C943F
:1019C000CF0C80911903089580911A030895809196
:1019D0001B03089570E00C946614609111018091CE
:1019E000180380FF0AC08091100123E0829FC0018C
:1019F0001124835E9C4F0C94EA0C8091120190910B
:101A00001301891780F7E82FF0E09F01220F331FA1
:101A1000E20FF31FE35EFC4F1182108212828F5F90
:101A2000F0CF9091180390FF16C090911201209171
:101A30001301921770F4E92FF0E0DF01AA0FBB1F2A
:101A4000EA0FFB1FE35EFC4F8183608342839F5F4D
:101A5000F0CF0C94ED0C0895CF93DF9300D01F923C
:101A6000CDB7DEB79091180390FF0AC09E012F5F9B
:101A70003F4F0E943E0C4B8169818A810E94110D6B
:101A80000F900F900F90DF91CF910895CF93DF9338
:101A9000EC018C810E94100CE8E1F3E0482F628198
:101AA00081810E942C0D8C818F5F8C83DF91CF917F
:101AB0000895CF93DF93EC01E8E1F3E04381628185
:101AC0008C810E942C0D8C818F5F8C83DF91CF9154
:101AD00008950F931F93CF93DF9300D01F92CDB73C
:101AE000DEB78C018091FC0181110AC09E012F5F3D
:101AF0003F4F4FEF6FEF0E943E0C8A818093FC01B5
:101B0000F8018481813051F028F0823061F44091F5
:101B1000FC010AC08091FC0140E007C06091FC011B
:101B200040E080E003C040E080E060E00E94110DF2
:101B3000F801848190E0019663E070E00E948334B4
:101B400084830F900F900F90DF91CF911F910F9191
:101B50000895AF92BF92CF92DF92EF92FF920F93D0
:101B60001F93CF93DF9300D01F92CDB7DEB7182F0E
:101B7000F62E042FE22E9091180390FF7EC0E92FDD
:101B8000E695AE2FB0E0A458BE4F8C9180935B02D7
:101B90009E7F923061F49E012F5F3F4F812F0E9404
:101BA0003E0C4B8169818A810E94110D43C08230B5
:101BB00019F400911B033EC0863019F410911903EB
:101BC00039C08930D9F38931A9F5E9518E2F817057
:101BD000D82EE695F0E0E359FC4FA590B490C12CC7
:101BE000BB2460911401C61618F52C2D30E0A29E7E
:101BF000C001A39E900DB29E900D112470E00E9432
:101C00006F34812FD11002C0860F01C0861B9091C6
:101C10001201290F311DA901440F551F240F351F33
:101C2000235E3C4F402F6F2D0E943E0CC394D9CFB2
:101C30000E94ED0C80911903181308C080911A03BB
:101C4000F81204C080911B03081729F080915D02EF
:101C5000826080935D0210931903F0921A0300933F
:101C60001B03EE2051F060911803709119038091CD
:101C70001A0390911B030E94630C0F900F900F901A
:101C8000DF91CF911F910F91FF90EF90DF90CF9058
:101C9000BF90AF900895E8E1F3E09181282F438150
:101CA000628180E1890F0C94A90D81E00C944B0EA8
:101CB000E8E1F3E09181282F4381628180EF890F71
:101CC0000C94A90D81E00C94580EE8E1F3E06281D8
:101CD00020E1620F08F46FEF282F438181810C947B
:101CE000A90D81E00C94650EE8E1F3E0628120E14A
:101CF000621B08F460E0282F438181810C94A90DB8
:101D000081E00C94740EE8E1F3E0438120E1420F9E
:101D100008F44FEF282F628181810C94A90D81E096
:101D20000C94830EE8E1F3E0438120E1421B08F4C8
:101D300040E0282F628181810C94A90D81E00C94F0
:101D4000920E20E00C94A90DFF920F931F93CF9356
:101D5000DF93EC01F12C0FEF10E060911401F61607
:101D6000F0F4809112012F2D30E0280F311DC901B0
:101D7000880F991F280F391F235E3C4F70E0C80160
:101D80000E948334962F8C8140911B0360911A032B
:101D9000F99E800D11240E943E0CF394DECF0E9428
:101DA000ED0C9A818C8190FF02C08F5F01C0815041
:101DB0008C83DF91CF911F910F91FF9008959F9297
:101DC000AF92BF92CF92DF92EF92FF920F931F9349
:101DD000CF93DF93EC018A8180FF03C0BB24BA94C8
:101DE00002C0BB24B3948C8181110DC081E0B81274
:101DF00006C08091140181508093FE0102C01092B0
:101E0000FE0181E08C83A12C80911401A81608F0BA
:101E100041C080911201CA2CD12C8601080F111DDE
:101E2000C801880F991F080F191F035E1C4FF80186
:101E300011821082128234E0E32EF12C912C8091D9
:101E4000FE01890D813114F08F7005C087FF03C03A
:101E500090911401890F082E000C990BC816D90611
:101E600091F480911B038E9DA0018F9D500D112434
:101E70005595479555954795980160911A0380911E
:101E800019030E943E0C9B0CF1E0EF1AF108B9F621
:101E9000A394BACF0E94ED0C8091FE0191E0B9129B
:101EA0000EC0811107C08091140181508093FE0102
:101EB0001C820FC081508093FE01BC820AC090E05A
:101EC00001966091140170E00E9483348093FE01BA
:101ED0008C83DF91CF911F910F91FF90EF90DF9056
:101EE000CF90BF90AF909F9008951F93CF93DF93B3
:101EF000EC018C81811109C081E08C831092FD017D
:101F000092E090930F0180930E01809112019091C5
:101F10001301891770F4E82FF0E09F01220F331F9F
:101F2000E20FF31FE35EFC4F1182108212828F5F7B
:101F3000F0CF10E0609114011617C0F5E12FF0E02A
:101F400070E0CF010E94833420911201820F209112
:101F5000FD01022E000C330B90E0E217F307CCF0EA
:101F600020910F01022E000C330B2E173F078CF02F
:101F70009C01220F331F820F931F9C01235E3C4F55
:101F800040911B0360911A03809119030E943E0C3B
:101F90000BC0FC01EE0FFF1F8E0F9F1FFC01E35EC5
:101FA000FC4F1182108212821F5FC4CF0E94ED0C81
:101FB00080910E012091FD01280F2093FD01909149
:101FC0000F01980F90930F0119165CF4022E000C6C
:101FD000330B4091140150E041505109241735074B
:101FE00034F0819580930E01813009F41C82DF91D9
:101FF000CF911F9108958F929F92AF92BF92CF92EF
:10200000DF92EF92FF920F931F93CF93DF938C0198
:10201000FC014481C42FD0E09E01DE010E94CE3439
:102020009B01AC010E94E4346B017C01E0E2F0E032
:10203000EC1BFD0BA5E5B0E09B01AC010E94E43474
:102040004B015C019F01DF010E94C6349B01AC0182
:102050000E94EF349B01AC012C0D3D1D4E1D5F1DF8
:10206000C501B4010E949734C22FD22F2A3228F41E
:10207000F3E02F9F900111240DC025E530E02C1BCB
:102080003109C901880F991F280F391F37FF02C076
:102090002F5F3F4F35952795C22FC095F12C85E5D1
:1020A000E82EED1A80911401F816C8F4F1FC02C074
:1020B0008E2D01C08D2F909112012F2D30E0290F10
:1020C000311DA901440F551F240F351F235E3C4FBE
:1020D0004C2F60911A030E943E0CF394E3CF0E94B0
:1020E000ED0CF8018481811102C091E003C08032BF
:1020F00019F49FEF90930D0190910D01890FF80154
:102100008483DF91CF911F910F91FF90EF90DF902B
:10211000CF90BF90AF909F908F9008950F931F9393
:10212000CF93DF93EC0100E010E080911401282FA1
:1021300030E00217130724F5909112019801290F3E
:10214000311DA901440F551F240F351F235E3C4F3D
:10215000869590E04C81081719071CF4442331F050
:1021600002C0411103C040911B0301C040E06091D7
:102170001A03809119030E943E0C0F5F1F4FD5CFA9
:102180000E94ED0C8C8190E00196817099278C83E0
:10219000DF91CF911F910F9108957F928F929F921F
:1021A000AF92BF92CF92DF92EF92FF920F931F9365
:1021B000CF93DF93FC019280748081E0848380E080
:1021C0000E94100C882E8FE70E94100CA12CF5E0C5
:1021D000BF2ECC24CA94D12C8819E82EF12C8091E2
:1021E0001401A81608F09FC00A2D10E022E029155E
:1021F00068F0B09EF001B19EF00D1124EE5FFD4F2E
:1022000080911903808380911A03818371100AC021
:10221000B09EF001B19EF00D1124EE5FFD4F1382D0
:10222000128267C0B09EE001B19ED00D1124CE5F36
:10223000DD4F8B818823E1F081508B832FEF829FCC
:10224000C00111246C8170E00E946F34862F0E94BF
:10225000100C88192FEF829FC0011124B7010E9432
:102260006F3480911B03689FB00111247A8341C0B1
:102270000E94433520911B032695215830E0A90187
:10228000440F551F322F2227240F351F232F3327AA
:102290008217930774F582E0891588F40E9443350C
:1022A000B6010E94833488830E94433520911A032B
:1022B0002695622F70E00E948334280F2983B09EF8
:1022C000F001B19EF00D1124EE5FFD4F128280915E
:1022D0001B03843120F0893C18F088EC01C084E1B4
:1022E000B09EF001B19EF00D1124EE5FFD4F84838E
:1022F0008383809112019801280F311DC901880F35
:10230000991F280F391F235E3C4FB09EF001B19EEC
:10231000F00D1124EE5FFD4F4281618180810E94AA
:102320003E0CA3945CCFDF91CF911F910F91FF9052
:10233000EF90DF90CF90BF90AF909F908F907F9065
:102340000C94ED0C80915D02089510925D02089549
:1023500025E0E8E1F3E0DC0101900D922A95E1F738
:1023600020915B0230915C0240915D02FC0125836B
:1023700036834783089560911803669570E04BE0BB
:1023800050E085E191E00E945335892B19F481E0FA
:1023900080935C020E9459299093530280935202C9
:1023A00080915D02846080935D020895EBE5F2E028
:1023B000118282818460828308959091180390FF36
:1023C0003AC09170811102C0926006C08B3210F049
:1023D000946502C0880F982B9093180380915D023A
:1023E000816080935D02662351F0609118037091C3
:1023F000190380911A0390911B030E94630C609152
:102400001803669570E04BE050E085E191E00E9492
:102410005335892B19F00E94D61102C00E94BB11BE
:1024200081E08093550240911B0360911A038091D3
:1024300019030C94A10E0895682F90911803969596
:1024400081E0890F8B3208F081E00C94DD1181E08E
:102450000C941C12682F9091180396958FEF890F9A
:1024600009F48AE20C94DD1181E00C942A1261E0F7
:102470000C94DD11E8E1F3E0808181608083869532
:102480000C94371260E00C94DD11E8E1F3E08081F8
:102490008160808386950C9442121092590280913B
:1024A000580281110E9445120C94BB11E8E1F3E03F
:1024B00080818E7F808360817181828193810E947F
:1024C000630C0E94D611EBE5F2E082818160828389
:1024D0002FEF80E792E0215080409040E1F700C06C
:1024E00000000C94ED0C8091180380FD0C945612A2
:1024F0000C943A12E8E1F3E080818E7F80830E94A1
:10250000D611EBE5F2E08281816082832FEF80E7D4
:1025100092E0215080409040E1F700C000000C9410
:10252000ED0C0E94D6118091590281110AC081E000
:1025300080935902809118038170809358020C9403
:102540007A1208951F93CF93DF93EC01162F8F819A
:1025500080FF0FC0888180FF0AC0809118038160CE
:1025600080931803888186950E94DD1102C00E9425
:102570007A128F8181FF06C0212F4B816A81898168
:102580000E94A90D8F8182FF08C08E81882319F0D7
:102590000E94BB1102C00E94D6118F8183FF03C02D
:1025A00081E080935502DF91CF911F910895809132
:1025B0005A02811133C00E944527811104C00E9434
:1025C000EC270E947F0C0E945F0C609318037093AD
:1025D000190380931A0390931B0380915D0283601B
:1025E00080935D026E7F61F40E947F0C0E945F0CFD
:1025F000609318037093190380931A0390931B033D
:102600000E944C0C0E94D6118091180380FF03C0D9
:1026100086950E94421281E080935A020895EF92BB
:10262000FF920F931F93CF93DF9380915C028823D7
:1026300009F4BBC080915B02E0911803E695E81BAA
:10264000E0935402823049F4F0E0E759FC4FE49102
:10265000CE2FD0E006E41DE059C0863049F4F0E00A
:10266000EA59FC4FE491CE2FD0E009E51DE04EC0C1
:10267000893051F4E695F0E0ED59FC4FE491CE2F0E
:10268000D0E004EA1EE042C08F3051F4E695F0E05D
:10269000E05AFC4FE491CE2FD0E00FED1EE036C0A3
:1026A000853149F4F0E0E35AFC4FE491CE2FD0E0BD
:1026B00005E71FE02BC08831D9F0833239F4EBE510
:1026C000F3E0C591D49109E61DE020C08432A9F061
:1026D0008532C1F48E2F63E00E946334E92FF0E06D
:1026E000E85AFC4FE491CE2FD0E00DEC10E10EC083
:1026F000C8E2D0E00BEF1FE009C0C4EFD1E00EE864
:1027000010E104C0C0EDD7E00FE01CE0809155025D
:10271000882361F0109255020E9459299093530228
:102720008093520210925702109256020E94592929
:10273000E0915202F09153029C012E1B3F0B2F3F60
:102740003F4798F5209101022223B1F01092010237
:102750002091FF0130910002821B930B8F3F9F4716
:1027600058F4205D3A48309300022093FF01809195
:102770005D02886080935D02E0905602F0905702FF
:10278000EC0FFD1FF0935302E093520282E592E0BA
:10279000F80109958091560290915702892B29F4EE
:1027A000EF2819F081E080930102DF91CF911F9112
:1027B0000F91FF90EF900895882311F0FA0101C066
:1027C000FB010994CF93DF93C82FD62F0E94960C5C
:1027D0008C1740F00E94960C8D1720F4DF91CF915A
:1027E0000C9427128C2FDF91CF910C9437121F93EA
:1027F000CF93DF93FB011281111163C0EC010E94A2
:1028000099268272FE01E25CFC45E431F10508F094
:1028100057C0EA5AFF4F0C94B9340E94731251C04A
:1028200044E352E167E272E104C047E252E164E34B
:1028300072E10E94DC1345C042E65EE065E57EE0A1
:10284000F8CF45E55EE062E67EE0F3CF40E85EE08B
:1028500061E77EE0EECF41E75EE060E87EE0E9CF51
:102860004EE95EE06FE87EE0E4CF4FE85EE06EE9BF
:102870007EE0DFCF49EC5CE062EB7CE0DACF42EB5C
:102880005CE069EC7CE0D5CF81E017C065E082E0D8
:1028900010C068E086E00DC06EE089E00AC064E127
:1028A0008FE007C067E185E104C088E106C062E20D
:1028B00089E10E94E21305C083E20E94371201C041
:1028C00011E0812FDF91CF911F910895539A2BB181
:1028D000277F3BB138604FB7F894FC01CB01880FDC
:1028E000991F680F791F6E0F7F1FE617F70789F092
:1028F000819198E03BB9000000C087FF2BB9880F99
:10290000000000C000C000C02BB900C09A9591F72C
:10291000ECCF4FBF8FE594E00197F1F700C00000C6
:10292000089582E290E00E946035813281F483E272
:1029300090E00E946035833051F484E290E00E9480
:10294000603591E0883209F090E0892F01C080E085
:1029500081700895CF93C82F811102C06FEF01C01D
:1029600061E282E290E00E947435C11102C06FEF13
:1029700001C063E083E290E00E947435C11102C09F
:102980006FEF01C068E284E290E0CF910C9474355F
:1029900080E00E94AA140C943F27089585E290E0FD
:1029A0000E946035682F70E080E090E0089585E235
:1029B00090E00C9474350E94CD140E949114811102
:1029C0000CC060E070E0CB010E94D7140E94791621
:1029D0000E94581781E00C94AA140895CF93FB012C
:1029E000C281CC23E9F09C0122513F4520313105C1
:1029F00020F482510E9468170CC08031FFE59F07C8
:102A000051F481E00E94212543E062E081E00E94D0
:102A1000DD03C0E018C081319F45A9F482E0F2CF08
:102A20008031EFE59E0711F481E004C081319F45BC
:102A300049F482E00E94422543E062E081E00E9486
:102A4000DD0301C0C1E08C2FCF9108952FEFFC0171
:102A500020830895CF93DF93EC018881813889F03A
:102A600028F48038A1F40E94E70C10C0823861F08D
:102A7000833869F40E94E10C89830E94E40C8A8304
:102A800006C00E94960C02C00E94CC0C8983DF9184
:102A9000CF910895CF93DF93EC0188818138B1F015
:102AA00058F4803851F5D9810E94E40CC82F0E9457
:102AB000E10C4D2F6C2F1DC08238B1F08338E9F442
:102AC0000E94E70C482F6A81898113C089810E9486
:102AD00042128981811104C0DF91CF910C947A1246
:102AE000DF91CF910C9445128981DF91CF910C94A5
:102AF000DE0CDF91CF910C94A10EDF91CF91089560
:102B0000EF92FF920F931F93CF93DF93EC01062F69
:102B10000196E8814E2F50E0FA013197E331F1053B
:102B200008F09AC0E659FF4F0C94B934198289E035
:102B300056C08981823039F0833061F0813029F5C7
:102B40000E94D72802C00E94CE149A838B837C8374
:102B50006D8384C07E0182E0E80EF11C10E0812FBD
:102B60000E940F07F70181937F011F5F1830B9F7AB
:102B700075C08981823049F46A817B818C819D8115
:102B80000E94BF340E94D71469C0602FCE010E94FA
:102B9000261564C04B816A8189810E944B169C83F3
:102BA0008D835CC02C813D813227232732274B81C6
:102BB0006A8189810E94641651C00E9479164EC0B4
:102BC0000E944A154BC00E942A1548C00E94750CED
:102BD00045C00E940B1724C00E940D1799838A8359
:102BE0003DC06B8170E089819A81AE014C5F5F4F7F
:102BF0009827892798270E94101730C06B8170E0B2
:102C000089819A81AE014C5F5F4F98278927982769
:102C10000E94351723C00E94581720C00E94381602
:102C200089831CC06B8170E089819A81AE014C5F01
:102C30005F4F9827892798270E94B8160FC06B818D
:102C400070E089819A81AE014C5F5F4F9827892798
:102C500098270E94DC1602C08FEF8883602FCE0178
:102C6000DF91CF911F910F91FF90EF900C94382A34
:102C700084E0089550E0440F551F2CE0629F400D02
:102C8000511D11249A0160E6869F200D311D1124EB
:102C9000C901869608950F931F93CF93DF930E94E7
:102CA0003A168C010E946035C82FD0E0DC2FCC276B
:102CB000C80101960E9460359E01282BC901DF9151
:102CC000CF911F910F9108950F931F93CF93DF938F
:102CD000122F032F0E943A16EC01602F0E947435C8
:102CE000612FCE010196DF91CF911F910F910C942E
:102CF0007435AF92BF92CF92DF92EF92FF920F9313
:102D00001F93CF93DF93A12CE12CF12CB12C00E089
:102D100010E0C0E0D0E06701C00ED11EFE01EE0F52
:102D2000FF1FEC0DFD1DE857FE4F259134914C2FF0
:102D30006B2D8A2D0E9464162196C630D10571F73D
:102D4000045F1F4FB39488E0B812E3CF80E6E80E2B
:102D5000F11CA39484E0A812D9CFDF91CF911F91E9
:102D60000F91FF90EF90DF90CF90BF90AF900895BC
:102D7000EF92FF920F931F93CF93DF93EA017A01B3
:102D8000E60EF71E8C01C8018696CE15DF0569F0A8
:102D9000003821E0120720F40E946035888301C0CA
:102DA000188221960F5F1F4FEECFDF91CF911F91B9
:102DB0000F91FF90EF900895EF92FF920F931F9362
:102DC000CF93DF93EA017A01E60EF71E8C01C8016A
:102DD0008696CE15DF0559F0003821E0120718F469
:102DE00068810E94743521960F5F1F4FF0CFDF91ED
:102DF000CF911F910F91FF90EF900895462F84304F
:102E000038F4783028F4663018F4672F0C944B1699
:102E100080E090E0089580E108958AE592E00895C9
:102E2000EF92FF920F931F93CF93DF93EA017A0102
:102E3000E60EF71E8C01C8018A559E4FCE15DF05A0
:102E400069F00A3522E0120720F40E946035888379
:102E500001C0188221960F5F1F4FEDCFDF91CF91F8
:102E60001F910F91FF90EF900895EF92FF920F93B3
:102E70001F93CF93DF93EA017A01E60EF71E8C01D0
:102E8000C8018A559E4FCE15DF0559F00A3522E05C
:102E9000120718F468810E94743521960F5F1F4F46
:102EA000EFCFDF91CF911F910F91FF90EF90089599
:102EB000CF93DF93C6EAD1E060E0CE010E94743583
:102EC0002196C11584E0D807B9F7DF91CF91089515
:102ED000DF92EF92FF920F931F93CF93DF9300D077
:102EE00000D0CDB7DEB7F82E8FE08F15E8F18FEF69
:102EF00093E00E946035811137C006EA11E0FF209F
:102F000069F0011584E0180779F1C8010E94603565
:102F1000811101C0FA940F5F1F4FF1CF19821A82FD
:102F20001B821C82DD24D39478018FEFE81AF80A03
:102F3000C8010E94603589831A828823A9F09FEF17
:102F4000980F933058F48A83D9820E5F1F4FC701C0
:102F50000E9460358B83882339F07801CE01019679
:102F60000E9423058701E0CF0F900F900F900F90E4
:102F7000DF91CF911F910F91FF90EF90DF90089517
:102F80000F931F93CF93DF93C42FD22FFC01828125
:102F90008823C9F0409360020E94CB2890935F027F
:102FA00080935E0280E28C0F883008F057C0C770B3
:102FB00081E001C0880FCA95EAF7DF91CF911F9198
:102FC0000F910C94C41E80916002481330C0809110
:102FD0005E0290915F020E94E328883C910538F5DB
:102FE00010E21D0FCD17B9F080E28C0F883040F44D
:102FF000C77081E001C0880FCA95EAF70E94CB1E16
:10300000183028F581E09D2F977001C0880F9A95A0
:10301000EAF70E94C41E802F0E94BB1E1830F0F4F5
:10302000D77081E001C0880FDA95EAF70AC080E224
:103030008C0F883098F4C77081E001C0880FCA9562
:10304000EAF7DF91CF911F910F910C94CB1E802F47
:10305000DF91CF911F910F910C94BB1EDF91CF9107
:103060001F910F9108950F939C01CB01233F4CE5D5
:10307000340731F188F4283DFCE53F07D9F0293DBC
:103080004CE5340779F1273D3C45A9F506E221EEF0
:1030900041EE67ED7CE52BC0253FFCE53F07E1F005
:1030A000A8F0263F3C4539F507E225EE46EE66EFEF
:1030B0007CE51DC007E225EE45EE68ED7CE517C016
:1030C00006E221EE40EE63EF7CE511C007E225EE5B
:1030D00044EE64EF7CE50BC006E221EE42EE65EFC4
:1030E0007CE505C008E221E045EE69ED7CE50E9443
:1030F000C01780E008C0FC018281882319F010927B
:10310000600201C081E00F910895CF93DF93EC013D
:10311000FB018281882309F41FC1C230FCE5DF076F
:1031200008F41BC1C6319CE5D90738F09E012A5F1F
:103130003C452930310508F010C10E945827909372
:10314000560380935503C031ECE5DE0709F4C3C094
:1031500008F041C0C8308CE5D80709F49AC0F0F4F3
:10316000C430ECE5DE0709F487C068F4C2308CE5B2
:10317000D80709F477C0C330DC4509F0E3C080917B
:103180005503826076C0C630ECE5DE0709F46EC0F8
:1031900008F07BC08091550388606BC0CC308CE513
:1031A000D80709F485C068F4CA30ECE5DE0709F4F5
:1031B00074C008F079C00E9448218091550380684E
:1031C00058C0CE308CE5D80709F476C008F07FC02F
:1031D000809155038BC0CB3FECE5DE0709F44FC06F
:1031E00018F5C3318CE5D80709F47DC078F4C131F6
:1031F000ECE5DE0709F473C0C231DC4509F0A2C07A
:103200000E944821809155038F7733C0C5318CE5EA
:10321000D80709F472C008F486C0CA3FDC4509F03B
:1032200091C0809156033EC0CF3FFCE5DF0709F413
:103230005FC058F4CD3F9CE5D90709F444C008F4B9
:103240003FC08091560382602DC0C130FDE5DF078D
:1032500009F475C008F45DC0C230DD4509F072C0E4
:1032600080E06EC080915503816003C0809155035A
:1032700080618093550366C08091550311C0809191
:1032800056038260809356035DC08091550380622F
:10329000F0CF809155038064ECCF80915503886016
:1032A0008460E7CF8160EECF809155038E7FE1CFC0
:1032B000809155038D7FDDCF80915503877FD9CFD6
:1032C0008091560318C0809156038D7FDBCF80918B
:1032D00055038F7ECECF809155038F7DCACF8091CD
:1032E00055038F7BC6CF80915503877F8B7FC1CFDE
:1032F000809156038D7F8E7FC5CF8091550382FBD1
:10330000222720F991E0922790FB82F990FB83F924
:10331000B0CF80915603982F909591708E7F892B16
:1033200090FB81F9AFCF0E9448218091550387FB24
:10333000222720F991E0922790FB87F99ACF81E02C
:103340000E94EE2780915503909156030E946927B1
:103350000E94482180E001C081E0DF91CF91089573
:10336000CF93DF9386319C4541F5EB010E9499266E
:10337000982F8A812091300130913101882379F092
:103380009A7A81E009F480E080936102911102C091
:1033900069E201C065E3C9010E9435280AC0809135
:1033A0006102811102C069E201C065E3C9010E94A6
:1033B00037280E94DA2680E001C081E0DF91CF91BA
:1033C000089562E070E080E291E00C94B81A62E047
:1033D00070E080E291E00C94C11A0E94A21188234F
:1033E00061F08CE692E00E94A81181E090E00E94DA
:1033F0009A1B892B11F40C94A511089580916B02EE
:10340000883039F460E08CE692E00E94A2121092BB
:103410006B020895CF93DF93D62FC72F0E94ED192B
:1034200080E090E00E949A1B892BF1F4ED2FFC2F95
:1034300080E090E0DC01A959BD4F2C9121930196C9
:1034400084309105B9F70E943E29DC01CB01029638
:10345000A11DB11D8093630290936402A093650245
:10346000B093660281E001C080E0DF91CF910895C2
:10347000CF93DF93D62FC72F0E94FE19609163026E
:103480007091640280916502909166020E942129E8
:10349000ED2FFC2F80E090E02191DC01A959BD4F78
:1034A0002C93019684309105B9F7DF91CF9108955F
:1034B0008EE14A9B02C08150E1F74A9BFECF0895FE
:1034C0005A9880E28A95F1F75A9A0895FC012AE009
:1034D0002A95F1F790E020E080E031E0261779F0BE
:1034E00040E14A95F1F7880F4A9B02C0816093271B
:1034F00000C0000040E14A95F1F72F5FEFCF20E1D7
:103500002A95F1F729B100C0000030E13A95F1F7B2
:1035100022FB222720F992272081920F9083089581
:10352000EF92FF920F931F93CF93DF931F92CDB72C
:10353000DEB719828C017C01E60EF11C0E151F0509
:1035400059F00E94581A68E0CE0101960E94661A4E
:10355000F80181938F01F2CF81E09981911180E090
:103560000F90DF91CF911F910F91FF90EF900895F1
:10357000909376028093750260937402529A5A9ADD
:103580000895909376028093750260937402529826
:103590005A9AEA9AE9E6F0E080818F7C8083089568
:1035A000615091E001C0990F6A95EAF720E031E09F
:1035B000992361F0492F482319F05A9A232701C013
:1035C0005A9840E24A95F1F79695F2CF222311F0EE
:1035D0005A9A01C05A9880E28A95F1F75A9808954C
:1035E000FF920F931F93CF93DF93EC018C01060F93
:1035F000111DC017D10741F0F9900E94601A68E0D0
:103600008F2D0E94D01AF5CFDF91CF911F910F918E
:10361000FF9008951F920F920FB60F9211240F93EF
:103620001F932F933F934F935F936F937F938F934A
:103630009F93AF93BF93EF93FF93CF93DF931F922B
:10364000CDB7DEB719820E94581A67E0CE01019605
:103650000E94661A382F369536953695932F969593
:103660009570232F2570920F292F2370969596958C
:103670008770920F891348C08981811145C080915C
:103680007402831708F440C080E18A95F1F75A9AD2
:10369000529AA2E0AA95F1F700C00091750210912C
:1036A0007602B8E03B9F000D111D11245A98F801D5
:1036B0006581662321F0868197810E94F01A0E941D
:1036C000601AF0E1FA95F1F75A9852985A9A80E107
:1036D0008A95F1F7D80112966C911297662369F0DA
:1036E00013968D919C9114970E94901AD801ED9198
:1036F000FC91811105C082E004C0D801ED91FC91DC
:1037000088E080830E94581A0F90DF91CF91FF913B
:10371000EF91BF91AF919F918F917F916F915F9149
:103720004F913F912F911F910F910F900FBE0F90CE
:103730001F9018950F931F93CF93DF9320917402DE
:1037400030E0281739070CF471C09C0193E0220F78
:10375000331F9A95E1F7C0917502D0917602C20F9E
:10376000D31FF894529A5A9845E04A95F1F7000011
:10377000982F969595708570890F982F93708695E0
:103780008695890F8901082B0E94601A84E08A952A
:10379000F1F700C067E0802F0E94D01A40E14A95FF
:1037A000F1F752985A9A4A9902C000C0FCCF87E0BC
:1037B00090E04A9B0EC0019751F4529A5A9AE881C0
:1037C000F98181E08083789481E090E031C000C08D
:1037D000F0CF6D81662381F08E819F810E94901AC7
:1037E00081110AC0529A5A9AE881F98182E0808355
:1037F000789482E090E01CC00E94581A80E28A957A
:10380000F1F75A98529A40E14A95F1F76A81662396
:1038100021F08B819C810E94F01A0E94601AE8813D
:10382000F9811082789480E090E002C084E090E01A
:10383000DF91CF911F910F91089590937C02809317
:103840007B020895E0917B02F0917C02309721F099
:103850000190F081E02D099480E00895E0917B02D1
:10386000F0917C02309721F00280F381E02D0994E1
:103870000895E0917B02F0917C02309739F022E0CC
:10388000DC012C930480F581E02D099408952091AA
:10389000790230917A022817390771F090937A02F1
:1038A00080937902E0917B02F0917C02309721F0C5
:1038B0000680F781E02D09940895209177023091D8
:1038C00078022817390771F0909378028093770275
:1038D000E0917B02F0917C02309721F00084F18529
:1038E000E02D099408950E94D72860938A0270936E
:1038F0008B0280938C0290938D026093860270936A
:1039000087028093880290938902089585B7806822
:1039100085BF85B7806885BF08950C94AE0808956B
:103920000C948F1C0C948F1C0C94921C0C948F1C68
:103930000C94961C0C948F1C0E94861C8DE397E2BD
:103940000E9473290E949A1C0C94981C0E94C22801
:103950000E9418290E943F070E94DB140E948E29B2
:103960000E94D7120C94941C9F92AF92BF92CF9258
:10397000DF92EF92FF920F931F93CF93DF93CDB718
:10398000DEB72A970FB6F894DEBF0FBECDBF0E94F8
:10399000901C0E948F1C0E94E50781110E94731CDD
:1039A0008EE7A82E82E0B82E00E010E0902E802F47
:1039B0000E940F07D82EF501C1905F01C826B1F40F
:1039C0000F5F1F4F0830110589F78FEF89838A83B6
:1039D0001B820E94CB288160782F9D838C83498134
:1039E0005A816B818D810E94581D2FC08091FA02EF
:1039F00081FD0E941507E12CFF24F3948C2D8F216B
:103A0000F1F00E948D1C882399F0EE829F82DF20C6
:103A100081E009F480E088870E94CB288160782FBC
:103A20009A8789874E815F8168858A850E94581DA3
:103A3000F801E258FD4F8081F826F08206C0E39439
:103A4000FF0CF6E0EF12DACFBBCF0E940F130E94FB
:103A50005A0A0E94221C90917D028917B9F00E9497
:103A6000221C80937D022A960FB6F894DEBF0FBE0B
:103A7000CDBFDF91CF911F910F91FF90EF90DF901D
:103A8000CF90BF90AF909F900C942D052A960FB6C3
:103A9000F894DEBF0FBECDBFDF91CF911F910F9184
:103AA000FF90EF90DF90CF90BF90AF909F900895E0
:103AB000DF92EF92FF920F931F93CF93DF93CDB7D7
:103AC000DEB72B970FB6F894DEBF0FBECDBFF42E36
:103AD000052F162FE72ED82E61110E94B926FE0160
:103AE000319686E0DF011D928A95E9F77E2D4F2DF4
:103AF000502F612F8D2D9E810E9401242B960FB691
:103B0000F894DEBF0FBECDBFDF91CF911F910F9113
:103B1000FF90EF90DF900895FC01808191810E94D9
:103B20005A260895CF93882309F4A4C0C82F823859
:103B3000C1F40E94221C81FD9DC069E38091300187
:103B4000909131010E9435280E94DA262FEF81EEF4
:103B500094E0215080409040E1F700C0000069E30C
:103B600019C0833801F50E94221C80FD83C063E5E3
:103B700080913001909131010E9435280E94DA260F
:103B80002FEF81EE94E0215080409040E1F700C09B
:103B9000000063E580913001909131010E94372847
:103BA000CF910C94DA268438C1F40E94221C82FD45
:103BB00061C067E480913001909131010E94352805
:103BC0000E94DA262FEF81EE94E021508040904051
:103BD000E1F700C0000067E4DDCF8CEF8C0F813A85
:103BE000D0F46C2F80913001909131010E94FF2719
:103BF000882349F06C2F80913001909131010E940F
:103C000037280E94DA266C2F809130019091310183
:103C10000E943528C5CF80E28C0F883048F4C770E9
:103C200081E001C0880FCA95EAF70E949C26B8CFB0
:103C3000EBE5EC0FE33040F4F0E0EB52FE4F808117
:103C400090E0CF910C94471CE8E5EC0FE73150F47D
:103C5000F0E0EE0FFF1FE955FE4F80819181CF917B
:103C60000C945D1CC03F30F08C2F0E946A09CF91EC
:103C70000C943C0ACF910895882309F464C08238DB
:103C800079F40E94221C81FF5EC069E380913001BB
:103C9000909131010E9435280E94DA2669E310C014
:103CA0008338B1F40E94221C80FF4DC063E58091EF
:103CB0003001909131010E9435280E94DA2663E597
:103CC00080913001909131010E9437280C94DA26BE
:103CD000843879F40E94221C82FF35C067E4809109
:103CE0003001909131010E9435280E94DA2667E464
:103CF000E7CF9CEF980F913A10F4682FE1CF90E254
:103D0000980F983050F4877091E001C0990F8A9510
:103D1000EAF7892F0E94A226D9CF9BE5980F93300E
:103D200020F480E090E00C94471C98E5980F9731C0
:103D300020F480E090E00C945D1C803F20F00E9415
:103D4000C5090C943C0A08951F93CF93DF93182F55
:103D5000EB010E94921D209741F08FE99FE00197AF
:103D6000F1F700C000002197F6CF812FDF91CF91AE
:103D70001F910C943C1E893319F060E070E002C082
:103D800060E570E00C94A41E882321F00E949C261C
:103D90000C94DA260895882321F00E94A2260C9420
:103DA000DA260895CF92DF92EF92FF920F931F933E
:103DB000CF93DF937C01D62FC72FFC0112810581A1
:103DC00002950F700E949226882399F0112389F0A2
:103DD0008C2F807F803421F080E28D0F883048F076
:103DE00082E00E9424270E94922691E0D82ED926B4
:103DF00001C0D12CCC2EC2948FE0C8228C2D90E033
:103E00008C30910508F0B6C1FC01E358FF4F0C94CB
:103E1000B9348C2F807FCF70882311F0C295C07F7A
:103E2000112399F0CC2309F491C180E28D0F8830E1
:103E300010F0D11104C08C2F0E949C2603C08C2F3F
:103E40000E94AC260E94DA2681C18D2F0E943C1E62
:103E5000CC2309F48FC180E28D0F883010F0D1118E
:103E600004C08C2F0E94A22603C08C2F0E94B22671
:103E70000E94DA267FC18C2F807FCF70803211F0B4
:103E8000C295C07FDD2319F0D130C9F022C01123C3
:103E900071F0002341F0013031F40E94BF268C2BD9
:103EA0000E94C72667C10E94BF268C2B1DC000231D
:103EB00019F0013009F45EC10E94D02625C01123FB
:103EC00021F0063008F056C10EC0053008F052C18E
:103ED0001BC0112361F0002331F0F701858180FFC1
:103EE00035C18F7085838C2F0E94C41E43C100236F
:103EF00059F0D93309F03BC1FFEF07EE13E0F15061
:103F000000401040E1F731C18C2F0E94CB1E32C11E
:103F10008C2F86958695837019F0813061F02AC1C7
:103F2000112321F08D2F9C2F937002C080E090E030
:103F30000E94471C27C1112321F08D2F9C2F9370C5
:103F400002C080E090E00E945D1C1CC18D2F1123F7
:103F500019F00E946A0902C00E94C5090E943C0A29
:103F600011C18C2F837009F047C0111107C12D2F8B
:103F7000229526952770220F220F6D2F6F70862FA6
:103F800090E0A0E0B0E0022E04C0880F991FAA1FA5
:103F9000BB1F0A94D2F7D4FF10C04FE050E060E09E
:103FA00070E004C0440F551F661F771F2A95D2F793
:103FB000409550956095709503C040E050E0BA017F
:103FC000C695C695C3708A019B01082B192B2A2B15
:103FD0003B2BC901B801C23049F058F4C13019F087
:103FE0000E94D524CBC00E94C324C8C00E94E724ED
:103FF000C5C00E94C124C2C0112319F08C2F81704A
:1040000001C08695882309F4B9C02D2F22952695E5
:104010002770220F220F6D2F6F70862F90E0A0E087
:10402000B0E0022E04C0880F991FAA1FBB1F0A947C
:10403000D2F7D4FF10C04FE050E060E070E004C061
:10404000440F551F661F771F2A95D2F7409550954C
:104050006095709503C040E050E0BA01C695C695E2
:10406000C3708A019B01082B192B2A2B3B2BC901FA
:10407000B801C23049F058F4C13019F00E949A25B5
:104080007DC00E9488257AC00E94AC2577C00E941E
:10409000FB2474C0CF70112339F08C2F0E9421258E
:1040A0008D2F0E94C41E6AC08D2F0E94CB1E8C2FA4
:1040B0000E94422563C0D23F01F128F4D03F41F075
:1040C000D13FA1F03FC0D33FF9F0D43F39F13AC01E
:1040D000112341F0053008F04DC08C2F8F710E94E4
:1040E000672548C0063008F045C0F7CF112339F0E6
:1040F0008C2F8F710E9421253DC01123C9F38C2F75
:104100008F710E94422536C0112329F08C2F8F71A8
:104110000E940C252FC00E9407252CC0112349F0B6
:10412000CF718C2F0E94212563E08C2F0E940F27D6
:1041300021C081E00E9424270230E0F082E00E944A
:10414000242718C0112331F0002391F28D2F0E94F3
:10415000921D10C0002399F2D93349F41FEF27EEC6
:1041600033E0115020403040E1F700C000008D2FB7
:104170000E943C1E88EF8C0D843020F40E94221C8B
:104180000E942D05DD20C9F00E948E2680FD15C0FD
:10419000F70112820E9488260E942125C7010E94F1
:1041A000FE200E948826DF91CF911F910F91FF90F2
:1041B000EF90DF90CF900C944225DF91CF911F912B
:1041C0000F91FF90EF90DF90CF9008950F931F9382
:1041D000CF93DF93EC01688179818A810E94652603
:1041E0008C010E94BE250E94AF24B801CE010E941E
:1041F000D21EDF91CF911F910F910895CF93DF933E
:10420000EC01988189812B813C81232B31F08F3FF8
:1042100031F481E09F3F19F403C081E001C080E0E8
:1042200080FD19C0CE010E940B0481110CC00E94B8
:104230009226882381F08A81882369F082E0DF91C9
:10424000CF910C942427CE010E94E620CE01DF916D
:10425000CF910C947E03DF91CF91089580E090E0A0
:104260000E94471C80E090E00E945D1C0E94B926DD
:104270000E94BC260E94DA260E946D0B0C943C0A18
:1042800080913001909131010E9439280C942E21A7
:104290000E94A9260C944021E92FE295EF704E2F41
:1042A00050E0FA013297EE30F105B0F4E757FF4FD6
:1042B0000C94B934803F91F018F4883E68F40EC035
:1042C000843F51F40BC0883E48F0813F29F406C07A
:1042D00093FB882780F9089580E0089581E0089590
:1042E0000E945A260E944C210895CF93DF9300D05C
:1042F00000D01F92CDB7DEB70F900F900F900F90A8
:104300000F90DF91CF910895CF93DF9300D000D02D
:1043100000D0CDB7DEB726960FB6F894DEBF0FBE3D
:10432000CDBFDF91CF9108951F93CF93DF93C091BD
:104330008F0216E080919002C81799F0D0E01C9F80
:10434000F0011D9FF00D1124EF56FD4F408151816A
:1043500062817381848195810E9484212196C77036
:10436000E9CFDF91CF911F9108954091C102509103
:10437000C2026091C3027091C4028091C502909103
:10438000C6020C9484210F931F93CF93DF938091E7
:10439000C60282958F7009F05DC08091C3028823A8
:1043A00009F458C080918F02109190026091C1026F
:1043B0007091C202C091C402D091C50291E06F3FDA
:1043C00009F090E0292F06E0811709F443C02097F7
:1043D00021F07F3F21F030E003C031E001C0322FF7
:1043E00090E030FD34C0089FF001099FF00D1124CA
:1043F000DF01AF56BD4F11963C911197371327C07F
:104400003C91361324C012963C91129731111FC073
:1044100013964D915C9114974C1B5D0B483C5105D4
:10442000B0F48091C6028F7080618093C602EA5614
:10443000FD4F80818F708061808381EC92E00E94CB
:10444000FE20DF91CF911F910F910C949421019642
:104450008770BACFDF91CF911F910F9108959F92EE
:10446000AF92BF92CF92DF92EF92FF920F931F9382
:10447000CF93DF93CDB7DEB761970FB6F894DEBF69
:104480000FBECDBF8C0185E0F801DE011D960190C5
:104490000D928A95E1F7F80140815181E280909177
:1044A000C1026091C2022091C4023091C50221155F
:1044B000310531F06F3F31F481E09F3F19F403C0C3
:1044C00081E001C080E0F82FF1709F2E80FD46C191
:1044D000F801A380B48081ECC82E82E0D82EF09041
:1044E000C302F501E21BF30BFF2009F4DFC080914A
:1044F000C602E83CF10508F09BC0282F207F09F098
:1045000052C0561313C0491311C0FE2CE1100EC047
:104510008F7080618093C6020E94B521C6010E94FF
:10452000FE208091C602F801858358C1AB2831F086
:104530005F3F31F481E04F3F19F403C081E001C0D7
:1045400080E080FD03C081E08E2502C080E090E025
:10455000F82FF170FF2E80FF1CC080918F022091F8
:10456000900236E0821709F417C190E0389FF001FD
:10457000399FF00D1124EF56FD4F6181561306C08F
:104580006081461303C06281E61203C00196877002
:10459000E9CFFE2CEE2009F421C18091C602816092
:1045A0008093C6025AC0561306C0491304C0E110D6
:1045B00002C0F8019FC04D875E878D859E850E9451
:1045C0007021882379F1EE2069F12091C602822FB3
:1045D00082958F7090E0029774F08091C102909163
:1045E000C20298878F831986BB86AA862C87CE0144
:1045F00007960E94FE2086E0F801A1ECB2E001904F
:104600000D928A95E1F70E94C3210E94B5210DC049
:10461000561729F14D875E878D859E850E947021F2
:1046200081112CC0C8010E94FE20FF24F394D6C043
:10463000282F207F69F77A2DB98AA88A6E2D89895B
:104640000E94752181EC92E00E94FE2086E0F60136
:1046500011928A95E9F70E94B521F12CBFC0491348
:10466000D9CFE110D7CFF8018583C8010E94FE2081
:1046700086E0F60111928A95E9F7B0C0EE2091F23A
:104680002091C602822F82958F7090E002970CF4E1
:10469000B2CF8091C1029091C2029A8389831B821A
:1046A000BD82AC822E83CE010196A3CFE83CF105FA
:1046B00008F047C0FE2CEE2009F4B4CF561330C0EA
:1046C00049132EC02091C60220FD21C0822F829561
:1046D0008F70482F50E041155105C9F0F80125832E
:1046E0004F30510541F08F5F982F9295907F822F28
:1046F0008F70892B8583C8010E94FE2086E0F80117
:10470000A1ECB2E001900D928A95E1F742C086E0FB
:10471000F801A1ECB2E001900D928A95E1F75EC03C
:104720004D875E878D859E850E947021811163CFA4
:104730008091C60281608093C602C8010E94FE205B
:104740004DC07A2DB98AA88A6E2D89890E9475215B
:1047500086E0F60111928A95E9F71BC0EE2009F474
:1047600061CF4D875E878D859E850E947021F82ED2
:10477000882309F457CF86E0F801A1ECB2E001905C
:104780000D928A95E1F781EC92E00E948C1D0E94C7
:10479000C3210E94B52122C04D875E878D859E85ED
:1047A0000E945A26292F22952F70223028F49F70BC
:1047B00039F0811105C00BC0243028F49F7049F4F2
:1047C000805E883020F0C8010E94FE209F2CF92CCA
:1047D00005C0F8019581907F99F7F9CF8F2D6196EB
:1047E0000FB6F894DEBF0FBECDBFDF91CF911F9102
:1047F0000F91FF90EF90DF90CF90BF90AF909F9080
:1048000008951F93CF93DF93CDB7DEB72C970FB6E4
:10481000F894DEBF0FBECDBF4F83588769877A8774
:104820008B879C87CE0107960E942F228823D1F088
:104830009F8188852A853B85232B31F08F3F31F47A
:1048400081E09F3F19F403C081E001C080E080FD5A
:1048500047C04F81588569857A858B859C850E94E4
:1048600084213EC086E0FE013796DE01119601905C
:104870000D928A95E1F7FF81E8856A857B85611550
:10488000710531F0EF3F31F481E0FF3F19F403C0CF
:1048900081E001C080E080FD23C02091900230E0E3
:1048A000C90101968770992740918F0250E08417C3
:1048B0009507F1F1F983EA837D836C8396E0929FFB
:1048C000D001939FB00D1124AF56BD4FFE0131961C
:1048D00001900D929A95E1F7809390020E949421A5
:1048E00016E080918F0290919002891771F1189FC4
:1048F000C00111248F569D4F0E942F22882329F139
:10490000E0918F021E9FF0011124EF56FD4F408170
:10491000518162817381848195810E94842180917B
:104920008F0290E001968770992780938F02D9CFEC
:104930000E9448211092900210928F02E1ECF2E066
:1049400086E0DF011D928A95E9F72C960FB6F89460
:10495000DEBF0FBECDBFDF91CF911F9108950895A7
:1049600008950C94B0240C94B1240E94B324609355
:10497000E9027093EA028093EB029093EC020C94AC
:104980002E210C94B5240F931F930091E9021091EE
:10499000EA022091EB023091EC02602B712B822B0A
:1049A000932B1F910F910C94B5240F931F9300919B
:1049B000E9021091EA022091EB023091EC026023AF
:1049C0007123822393231F910F910C94B5240F938D
:1049D0001F930091E9021091EA022091EB023091BD
:1049E000EC0260277127822793271F910F910C9467
:1049F000B5240C94B0240E94F9246093E5027093CE
:104A0000E6028093E7029093E8020C942E2160E086
:104A100070E0CB010C94FB240F931F9341E050E016
:104A200060E070E08A019B0104C0000F111F221F8B
:104A3000331F8A95D2F7C901B8011F910F910C94C9
:104A4000FB240F931F9341E050E060E070E004C04E
:104A5000440F551F661F771F8A95D2F78091E50294
:104A60009091E602A091E702B091E8028A019B01D1
:104A7000082B192B2A2B3B2BC901B8011F910F9131
:104A80000C94FB240F931F9341E050E060E070E032
:104A900004C0440F551F661F771F8A95D2F74095B3
:104AA0005095609570958091E5029091E602A091F5
:104AB000E702B091E8028A019B01082319232A2307
:104AC0003B23C901B8011F910F910C94FB240F9354
:104AD0001F9341E050E060E070E004C0440F551FB8
:104AE000661F771F8A95D2F78091E5029091E602C2
:104AF000A091E702B091E8028A019B0108271927DB
:104B00002A273B27C901B8011F910F910C94FB2460
:104B10000F931F930091E5021091E6022091E702A6
:104B20003091E802602B712B822B932B1F910F91F8
:104B30000C94FB240F931F930091E5021091E60261
:104B40002091E7023091E8026023712382239323AE
:104B50001F910F910C94FB240F931F930091E5027A
:104B60001091E6022091E7023091E8026027712758
:104B7000822793271F910F910C94FB240895292FCE
:104B8000220F920F990F890FE82FE695E695E6958B
:104B9000877051E001C0550F8A95EAF785E0E89FDC
:104BA000F0011124E953FD4F20E030E070E0408136
:104BB000CB01022E02C0969587950A94E2F7817088
:104BC000819584278523842781932F5F3F4F25304C
:104BD000310569F70895292F220F920F990F890F38
:104BE000682F669566956695982F977085E0689F03
:104BF000B001112440E050E080E0FB01E40FF51F1C
:104C0000E953FD4F208130E0092E02C036952795EB
:104C10000A94E2F721703327042E01C0220F0A9470
:104C2000EAF7822B4F5F5F4F4530510531F708950A
:104C3000BF92CF92DF92EF92FF920F931F93CF9389
:104C4000DF938C01C090E502D090E602E090E7028D
:104C5000F090E8028091E9029091EA02A091EB02C3
:104C6000B091EC02C82AD92AEA2AFB2ACFE1D0E087
:104C7000D701C6010C2E04C0B695A79597958795C8
:104C80000A94D2F780FD04C0219790F7B12C07C099
:104C9000BC2EB8018C2F0E9436050197A9F38B2DED
:104CA000DF91CF911F910F91FF90EF90DF90CF9008
:104CB000BF900895CF93DF93EC010E941826BE01A8
:104CC0000E943605DF91CF9108951F93CF93DF9314
:104CD000EB0190918E02992321F0CB010E945A267C
:104CE00013C0882349F0CB010E941826182F682F83
:104CF000CE010E94BF2504C0CB010E94EB25182FD6
:104D0000BE01812F0E943605DF91CF911F9108953A
:104D10008091ED0285958595859508958091ED02A8
:104D2000877008959091ED02977081E009F480E01A
:104D300008958091F90208959091F902892B80934A
:104D4000F902089580959091F90289238093F902E0
:104D500008951092F90208959091F802892B80939A
:104D6000F802089580959091F80289238093F802C3
:104D700008951092F80208951092F7020895809114
:104D8000EE02089508950C94C2260C94C3269091C7
:104D9000EE02981721F08093EE020C94C526089538
:104DA0008091EE02882329F01092EE0280E00C94AC
:104DB000C5260895E0913001F09131018091F9020A
:104DC0008083E0913001F091310190818091F8026F
:104DD000892B8083E0913001F091310190818091A5
:104DE000F702892B80838091EE02882381F0E09185
:104DF0003001F09131019081892B808380913001C5
:104E0000909131010E94F32781110E94D026809158
:104E10003001909131010C942E1C0C94C22698E024
:104E2000899F90011124262B2093ED020E942125B9
:104E30008091ED028595859585950C940D271092AE
:104E4000ED0280E00C940D272091ED0280958223E5
:104E50008093ED02982F977079F430E0482F082E58
:104E6000000C550B2417350739F0859585958595E8
:104E70000E9442250C941F27089580E008956FEF4B
:104E80007FEF80E090E00C94923580E090E00E940B
:104E90006E3521E08B3E9E4F09F020E0822F089571
:104EA00082E090E00C94603583E090E00C946035F3
:104EB000CF9384E090E00E946035C82F81E290E0BB
:104EC0000E9460352C2F30E0A901582BCA01CF91E8
:104ED0000895CF93C92F682F84E090E00E94743525
:104EE0006C2F81E290E0CF910C947435AB01BC0142
:104EF0008FE090E00C948635AB01BC0183E190E03B
:104F00000C94863560E070E0CB010C947C2760E067
:104F100070E0CB010E9476270C9482276BEE7EEF27
:104F200080E090E00E94923560E082E090E00E9494
:104F3000743560E083E090E00E9474351092E902DD
:104F40001092EA021092EB021092EC0260E084E010
:104F500090E00E94743560E081E290E00E94743538
:104F600060E085E090E00E94743560E086E090E0CB
:104F70000E9474356FEF87E090E00E94743540E046
:104F800050E0BA0188E090E00E94863560E08DE054
:104F900090E00E94743540E050E0BA0188E190E072
:104FA0000E94863560E087E190E00E94743540E021
:104FB00050E0BA018CE190E00E94863560E080E22A
:104FC00090E00E94743540E050E0BA0188E190E042
:104FD0000E9486350C9487270C948E27682F8EE0CC
:104FE00090E00C947435FC01329697E080E091508B
:104FF00029F021912223D9F38F5FF9CF08956623F9
:1050000049F0FC01329608962191621729F0E817C1
:10501000F907D1F780E0089581E008959C01FC0133
:1050200032969FEF80E04191461789F09F3F19F437
:10503000411101C0982F8F5F8630A9F79F3F39F04B
:10504000F901E90FF11D97FDFA956283089508951E
:105050009C012A5F3F4FFC014281461301C012822E
:10506000019682179307B9F708950C940E280C94B3
:105070002828029626E0FC0111922A95E9F7089566
:1050800008950C9440280C944028CF930E94432804
:105090000E94E5070E944128C0E08C2F0E940F0764
:1050A000811104C0CF5FC830C1F701C081E0CF914A
:1050B00008950C9440280C94592880915B03843007
:1050C00059F10E945B2880E00E942D050E949112F8
:1050D0001092FB0220E488E190E00FB6F894A895C6
:1050E000809360000FBE2093600083B7817F84604F
:1050F00083BF83B7816083BF7894889583B78E7FA1
:1051000083BF0FB6F894A895809160008861809362
:105110006000109260000FBE08950C9440280E9419
:1051200048210E94221C0E942D050E944D120C94C1
:105130008D281F920F920FB60F9211248F939F9379
:10514000AF93BF938091FB02811113C080914D03F7
:1051500090914E03A0914F03B09150034196A11D31
:10516000B11D80934D0390934E03A0934F03B093D2
:105170005003BF91AF919F918F910F900FBE0F90F1
:105180001F90189582E084BD93E095BD9AEF97BD7E
:1051900080936E0008952FB7F89480914D039091FD
:1051A0004E03A0914F03B09150032FBF08952FB726
:1051B000F89460914D0370914E0380914F0390914C
:1051C00050032FBF08959C014FB7F89480914D0371
:1051D00090914E03A0914F03B09150034FBF821B9B
:1051E000930B089578941F920F920FB60F9211248B
:1051F0008F939F93AF93BF9380914D0390914E03F4
:10520000A0914F03B09150030196A11DB11D809351
:105210004D0390934E03A0934F03B0935003BF915F
:10522000AF919F918F910F900FBE0F901F90189587
:105230001092510310925203109253031092540390
:105240000895CF92DF92EF92FF926B017C010E9452
:10525000AE0881110EC00E94D728C61AD70AE80AE4
:10526000F90AC0925103D0925203E0925303F09294
:105270005403FF90EF90DF90CF9008950F931F930A
:105280000E94AE08882321F01F910F910C94D7281B
:105290000E94D7280091510310915203209153038B
:1052A00030915403600F711F821F931F1F910F9144
:1052B00008950E94AE0881110C94CB280E943E29CB
:1052C000CB01089587E797E7909301088093000842
:1052D0009AE088E10FB6F894A895809360000FBE1D
:1052E00090936000FFCF9093E9018093E8010895C7
:1052F0000C94C8140E94E5078FE39CE90197F1F72D
:1053000000C000000E94E50780E00E940F0780FFB8
:1053100004C00E9478290C94622908950E944527B0
:10532000811102C00E94EC270E9450278093FA024C
:105330000E94582790935603809355030E94542748
:10534000682F70E080E090E00E94C1246091E50247
:105350007091E6028091E7029091E8020C94F924A2
:10536000809104030895CF93DF9300D01F92CDB7AF
:10537000DEB790915B03943011F589837B836A8358
:105380009093E9008FEF9091E800815095FD06C061
:1053900095ED9A95F1F700008111F5CF8091E80025
:1053A00085FF0DC040E050E063E070E0CE01019663
:1053B0000E94312C8091E8008E778093E8000F9056
:1053C0000F900F90DF91CF910895BC0184E00C9471
:1053D000B329BC0183E00C94B32924E02093E900B5
:1053E0002FEF3091E800215035FD06C035ED3A959C
:1053F000F1F700002111F5CF2091E80025FF0BC047
:1054000040E050E066E070E00E94312C8091E800BE
:105410008E778093E8000895CF93DF9321E0209367
:10542000E9002FEF3091E800215035FD06C035ED41
:105430003A95F1F700002111F5CF2091E80025FF02
:1054400014C0EC0140E050E068E070E00E94312CB4
:105450008091E8008E778093E80088E0FE01ACEF51
:10546000B2E001900D928A95E1F7DF91CF91089516
:10547000CF93603219F520915B032430F9F4C09189
:10548000E900CF703091EC00232F217030FD20E82F
:10549000C22B22E02093E9002091E80020FF0BC0FE
:1054A00040E050E060E270E00E94312C8091E80022
:1054B0008E778093E800CF70C093E900CF91089574
:1054C00080915A03811109C00E940D2E0E946A2EFC
:1054D0008091E20084608093E200089510925A0364
:1054E000089508950895089542E061EC81E00E94D6
:1054F000862D42E261EC84E00E94862D42E261EC5E
:1055000082E00E94862D42E260EC83E00C94862DBE
:1055100080915D03833009F462C030F4813071F012
:10552000823009F49BC008958A3009F487C08B301B
:1055300009F46DC0893009F0A9C020C080915C03D6
:10554000813A09F0A3C08091E800877F8093E8004A
:105550008091600390916103892B21F468E08CEFC6
:1055600092E003C060E080E090E070E00E94C72C11
:105570008091E8008B778093E800089580915C0328
:10558000813209F083C0809160039091610300979C
:1055900019F0029709F07AC08091E800877F809324
:1055A000E8008091E80082FD05C080915B038111D5
:1055B000F8CF6CC02091F3008091F20090E0922B24
:1055C000029729F48091F1008B7F813021F4809142
:1055D000F100809304038091E8008B7753C08091A1
:1055E0005C03813A09F052C080916003909161039D
:1055F000892B09F04BC08091E800877F8093E800F9
:105600008091E80080FFFCCF80913C0136C0809102
:105610005C038132D9F58091600390916103892BFD
:10562000A9F58091E800877F8093E8000E94BB2D58
:1056300080915E0380933C010C94482180915C032F
:10564000813221F58091E800877F8093E8000E94F5
:10565000BB2D80915F0380930503089580915C03C7
:10566000813AA1F48091E800877F8093E8008091DF
:10567000E80080FFFCCF809105038093F1008091CA
:10568000E8008E778093E8000C94BB2D08951F935B
:10569000CF93DF93CDB7DEB7A0970FB6F894DEBFF8
:1056A0000FBECDBF84B7877F84BF0FB6F894A8958F
:1056B00080916000886180936000109260000FBE4E
:1056C00090E080E80FB6F8948093610090936100B9
:1056D0000FBE0E949C1C0E940D2E0E946A2E80917B
:1056E000E20084608093E20078940E94FF300E9480
:1056F000A61C82E391E00E941D1C13E080915B03D5
:105700008530A9F480915B03853079F40E945D288F
:10571000809159038823B1F30E944528882391F38F
:105720000E941B2C0E944821EDCF0E948F280E94CE
:10573000B41C80915B03843009F51093E9008091DB
:10574000E80082FF1BC08091E80085FF0AC040E0AE
:1057500050E060E270E0CE0101960E947C2C91E066
:1057600001C090E08091E8008B778093E800992356
:1057700029F060E2CE0101960E9480150E94901CE3
:105780000E948F1CBBCF0C94C52B292F33272330AD
:105790003105C9F060F42130310581F02230310546
:1057A00009F041C08BE590E026E934E040C02132A9
:1057B0003105E1F02232310531F135C082E190E06E
:1057C00021EF34E034C099278130910549F028F069
:1057D000029749F5E2E7F4E005C0E2E9F4E002C02F
:1057E000E6E8F4E0849190E09F0121C06330710508
:1057F000D0F4660F771FFB01EF51FE4F20813181FE
:1058000089E090E014C06330710568F4FB01EE0F8D
:10581000FF1FE552FE4F20813181FB01E852FE4F10
:10582000808190E004C080E090E020E030E0FA0168
:1058300031832083089580E189BD82E189BD09B467
:1058400000FEFDCF8091D8008F7D8093D80080919D
:10585000E00082608093E0008091E00081FDFCCF59
:105860000895CF92DF92EF92FF920F931F93CF9301
:10587000DF93EC018B017A010E94DA2D811133C094
:10588000E114F10439F0F70180819181081B190BB3
:10589000C80FD91FC12CD12C0115110519F1809108
:1058A000E80085FD16C08091E8008E778093E800BF
:1058B000E114F10449F0F70180819181C80ED91EED
:1058C000D182C08285E00FC00E94DA2D882321F3A7
:1058D0000AC089918093F10001501109FFEFCF1A9E
:1058E000DF0ADACF80E0DF91CF911F910F91FF9017
:1058F000EF90DF90CF900895CF92DF92EF92FF92DA
:105900000F931F93CF93DF93EC018B017A010E94D9
:10591000DA2D811133C0E114F10439F0F7018081EF
:105920009181081B190BC80FD91FC12CD12C01154F
:10593000110519F18091E80085FD16C08091E800FD
:105940008B778093E800E114F10449F0F70180813E
:105950009181C80ED91ED182C08285E00FC00E94FD
:10596000DA2D882321F30AC08091F1008993015038
:105970001109FFEFCF1ADF0ADACF80E0DF91CF9174
:105980001F910F91FF90EF90DF90CF90089520919D
:105990006203309163032617370748F061157105DC
:1059A00039F42091E8002E772093E80001C0B90176
:1059B000FC0120E06115710579F180915B0388237A
:1059C000F1F18530F1F18091E80083FD3CC08091D8
:1059D000E80082FD2EC08091E80080FFEBCF20918F
:1059E000F3008091F20090E0922B6115710551F067
:1059F0008830910538F421912093F10061507109AC
:105A00000196F3CF21E0089709F020E08091E800AB
:105A10008E778093E800CECF2111CFCF0AC080913E
:105A20005B03882361F0853061F08091E80083FD9D
:105A30000AC08091E80082FFF2CF80E0089582E002
:105A4000089583E0089581E00895209162033091E4
:105A500063032617370748F06115710539F4209163
:105A6000E8002E772093E80001C0B901FC0120E096
:105A70006115710591F180915B03882309F440C0A1
:105A8000853009F43FC08091E80083FD3DC08091DE
:105A9000E80082FD2FC08091E80080FFE9CF2091CF
:105AA000F3008091F20090E0922B6115710559F09E
:105AB0008830910540F424912093F1003196615093
:105AC00071090196F2CF21E0089709F020E080915A
:105AD000E8008E778093E800CBCF2111CCCF0AC0AD
