:100000000C94A3010C94EA010C94EA010C941709D6
:100010000C94EA010C94EA010C94EA010C94EA01B4
:100020000C94EA010C94EA010C94871D0C94591E5F
:100030000C94F8150C94EA010C94EA010C94EA0172
:100040000C94EA010C94EA010C94EA010C94EA0184
:100050000C94EA010C9445160C94EA010C94EA0104
:100060000C94EA010C94EA010C94EA010C94EA0164
:100070000C94EA010C94EA010C94EA010C94EA0154
:100080000C94EA010C94EA010C94EA010C94EA0144
:100090000C94EA010C94EA010C94EA010C94EA0134
:1000A0000C94EA010C94EA010C94EA016C0C6C0CBF
:1000B0009E0C9E0CEB0C090D1D0E1D0E140DAD0DAE
:1000C000BE0DBE0DBD0EBD0ECF0ECF0EC60ECF0E99
:1000D000CF0ECF0EBD0EBD0ECB0ECF0ECF0ECB0E64
:1000E000C61EED1EE51FED1EE51F391F5C1FE51F37
:1000F000B31FC21F290014001A00080015001700C2
:10010000E00004001600070009000A00E1001D00DD
:100110001B00060019000500E2000000E3002C416E
:10012000000000001C0018000C00120013002A0040
:100130000B000D000E000F002D0028001100100014
:10014000360037003800E50005422C720000E4005C
:100150002A4100002B001E001F0020002100220069
:10016000E0001E021F02200221022202E1005700CD
:100170005600550054006700E2000000E3002C0028
:1001800000000000230024002500260027004C006A
:1001900023022402250226022702280035008900B6
:1001A0002F1230122D12E50005002C000000E70090
:1001B000000000002B003A003B003C003D003E00E8
:1001C000E0001F023100330033123400E100C35C51
:1001D000C45CC65CC75CC85CE2000000E3002C00A5
:1001E000000000003F0040004100420043004C007E
:1001F0005000510052004F002E002800C95CCA5C1C
:100200002F0030003100E5000000CB5C0000E7006B
:10021000E6000000120363006F006F006C003900FD
:1002200034003300530000000A036D002E006B0001
:10023000690000000403090409023B00020100A058
:10024000FA09040000010301010009211101000164
:100250002240000705810308000A09040100010388
:10026000000000092111010001228100070582031D
:1002700020000A1201100100000008EDFE0000013C
:10028000000102000105010902A10185020901A185
:10029000000509190129051500250195057501813C
:1002A0000295017503810105010930093115812588
:1002B0007F95027508810609381581257F9501759E
:1002C000088106050C0A38021581257F95017508FD
:1002D0008106C0C005010980A101850319012AB763
:1002E00000150126B700950175108100C0050C09A5
:1002F00001A101850419012AA002150126A0029579
:100300000175108100C005010906A101050719E06A
:1003100029E71500250195087501810295017508E9
:1003200081010507190029FF150026FF00950675B4
:1003300008810005081901290595057501910295A7
:100340000175039101C011241FBECFEFDAE0DEBFBB
:10035000CDBF04B603FE27C080915702909158028A
:10036000A0915902B0915A028730904BA740B04BF0
:10037000D1F4109257021092580210925902109222
:100380005A0214BE84B7877F84BF0FB6F894A8952D
:1003900080916000886180936000109260000FBEC1
:1003A000E0E0F8E3099511E0A0E0B1E0E6E1F1E476
:1003B00002C005900D92AE38B107D9F722E0AEE841
:1003C000B1E001C01D92A735B207E1F70E94C71A3C
:1003D0000C9489200C94000081E0089581E0089538
:1003E0000C94EE0108950C94F2011F93CF93DF93C8
:1003F00000D000D01F92CDB7DEB749835A836B83FC
:100400003091AD0189819A81311114C0662359F070
:10041000222349F00E947B13182F682F89819A812B
:100420000E94221303C00E944E13182F69817A8103
:10043000812F04C00E947B1369817A810F900F90F5
:100440000F900F900F90DF91CF911F910C94A50208
:10045000FC01262F408151816281738184810C943B
:10046000F501CF93DF93EC0160E00E942802BE010A
:10047000DF91CF910C94F3010E947E160E94A61486
:10048000811102C00E944D150C94A3040C949F048A
:1004900008950E94AB0E0E9448022FEF84E39CE077
:1004A000215080409040E1F700C000000C946B1692
:1004B0000F931F93CF93DF93EC0161E00E9428021A
:1004C0008C01BE010E94F001882349F1BE01C801E0
:1004D0000E94BE06882319F1BE01C8010E941007C0
:1004E0008823E9F0BE01C8010E943B088823B9F0C7
:1004F0008A81882369F001158CE5180731F00F3DDA
:100500001C4531F40E944D150AC00E94490207C0E3
:10051000CE01DF91CF911F910F910C94EC0180E0FF
:10052000DF91CF911F910F91089508950C9495023A
:1005300081E008950C949802CF93C82F0E949602F0
:100540008C2F0E949A02CF91089520E3829FC001D0
:100550001124FC0126E0729FE00DF11D1124E60F2D
:10056000F11DEE0FFF1FEC50FF4F85919491089500
:10057000CF93DF930E94A5020E94BA03EC0181157C
:1005800021E5920708F043C0811540E5940708F083
:100590008AC0883E910520F5803E910508F0E6C0AE
:1005A000883A910570F4853A910508F074C081305D
:1005B000910509F4DBC008F4D7C0049708F0D6C051
:1005C000D3C08F3B910508F0CFC0C85AD0E0CC0F04
:1005D000DD1FC25EDE4F0990D881C02DD464C6C035
:1005E000C11580E2D80758F4C11521E0D20708F000
:1005F000BDC0C03FD10508F4B7C0D065B7C0C115B4
:1006000040E4D40708F4B0C0DF70D06AAFC0C115B1
:1006100085E5D807A0F4C11524E5D20708F08AC003
:10062000C11543E5D40708F06FC0C11582E5D807AE
:1006300008F054C0DC2FCC27C16FD06A97C0C11519
:1006400029E5D207A0F4C11548E5D40708F077C022
:10065000C11586E5D80708F087C08C2F0E944E048C
:100660008F71C82FD0E0DC2FCC27D0627FC0C1159E
:100670002AE5D20708F468C0CE0190568115904251
:1006800008F072C08D2F8F710E944E04DD27D0625A
:100690008F71D82B6BC0C55AD0E0C45BDE4FC881C8
:1006A000D0E0D06463C074E0969587957A95E1F7C1
:1006B00083709C2F937021E030E002C0220F331F23
:1006C0009A95E2F73C68382BCF70C695C69580E2C4
:1006D000C89FE0011124C22BD32B48C0CE018370E8
:1006E000992721E030E002C0220F331F8A95E2F7FC
:1006F0008C2F8695869540E2849FC0011124E901E4
:10070000C82BD92BDC6832C0CE018370992721E039
:1007100030E002C0220F331F8A95E2F78C2F8695B6
:10072000869540E2849FC0011124E901C82BD92B92
:10073000DA681CC0DC2FCC27C46FD06A17C0DC2F4E
:10074000CC27C06FD06A12C08C2F8F700E944E04CD
:1007500094E0D695C7959A95E1F7CF70D0E0DC2F5D
:10076000CC27D069C82B02C0C0E0D0E0CE01DF9119
:10077000CF9108958238910569F1B0F481339105E4
:1007800009F46DC048F48932910509F463C08A32D6
:10079000910509F469C008958533910509F455C0A0
:1007A00089339105B9F00895833E910569F138F4D4
:1007B000803E9105B1F0823E910509F10895863E93
:1007C0009105A9F1873E9105B9F1843E910509F0A3
:1007D00064C023C02091480220FD4FC021FD4DC0C0
:1007E00008958091480280FD44C08091490280FFB5
:1007F00044C08091480284FD42C083EE4DC0809188
:10080000480282FF38C0F5CF8091480282FD33C094
:100810008091490280FD31C0ECCF8091490281FF77
:1008200032C08091480284FD2AC087EE35C0809195
:10083000480283FF26C0F5CF8091480283FD21C086
:100840008091490281FD1FC0ECCF8091480285FD57
:100850001CC01DC08091480285FD19C016C0809142
:10086000480286FD16C017C08091480286FD13C05D
:1008700010C089E311C082EE0FC080EE0DC080E091
:100880000BC086EE09C084EE07C089E205C085E38F
:1008900003C08AE201C081E390E00895909148028C
:1008A00092FF0DC0282F2871283019F4877F8460AB
:1008B00006C0282F2471243011F48B7F886093FFA9
:1008C0000DC0282F2871283119F4877E846106C055
:1008D000282F2471243111F48B7E886120914902E4
:1008E00020FF0DC0382F3871383019F4877F8160B0
:1008F00006C0382F3171313011F48E7F886021FFAE
:100900000DC0282F2871283119F4877E816106C017
:10091000282F2171213111F48E7E886194FD877E0C
:100920000895E82FF0E0E65CFD4F8081089508957A
:1009300080EA8A95F1F7089508950C949C040C942C
:100940009D040C949C040C94A104F894E82FE29567
:10095000EF70F0E031A1282F2F7081E090E001C00E
:10096000880F2A95EAF7982F9095932391A392A147
:10097000892B82A37894089508950F931F93CF93A2
:10098000DF930E9404068091000180910001811193
:1009900002C094E001C090E09093430284E0891B80
:1009A0008093420281E90E94A50480E90E94A50487
:1009B00084E90E94A50485E30E94A504CFE4D1E068
:1009C00005E511E089910E94A5040C171D07D1F7D8
:1009D000E2E3F2E0AAE3B2E011921D9282E0EA3390
:1009E000F807D1F784E00E94AE050E943C02DF9137
:1009F000CF911F910F910C940E060E94E50588235C
:100A0000F1F08091420290E0865C9D4F0E942106A9
:100A1000811111C080918E018F5F80938E0186308D
:100A200060F0E0914202F0E0E65CFD4F108211823E
:100A30001282138202C010928E010C9446028091A1
:100A4000430290E0865C9D4F0E943C060C94BC04DF
:100A50008F929F92AF92BF92CF92DF92EF92FF92CE
:100A60000F931F93CF93DF9385E5A82E81E0B82ED7
:100A7000C2E3D2E099E5E92E91E0F92E912C01E054
:100A800010E06501F5018081F894E82FE295EF70A0
:100A9000F0E021A18F70A80102C0440F551F8A9574
:100AA000E2F7CA01922F982B91A392A180958923F6
:100AB00082A378940E949804EFE4F1E020E030E013
:100AC000812C4191A42FA295AF70B0E090968C91AB
:100AD00090E04F7002C0959587954A95E2F780FDAA
:100AE00007C0802F022E01C0880F0A94EAF701C0C8
:100AF00080E0882A2F5F3F4F2630310511F75FEFE6
:100B0000A51AB50AF60180810E94A504888188167D
:100B100019F0888281E001C080E0982A2196EA14C9
:100B2000FB0409F0AECF6091430270E0665C7D4F3C
:100B3000292D44E082E392E00E94AF050E94FD046B
:100B4000892DDF91CF911F910F91FF90EF90DF9052
:100B5000CF90BF90AF909F908F9008950895FF928F
:100B60000F931F93CF93DF938C01F62ED72FC42FB3
:100B7000222349F081E0809391010E942A169093EC
:100B8000900180938F01809191018823C1F0809121
:100B90008F01909190010E943616069780F0EF2DFC
:100BA000FD2FD8014C2F50E0CD01801B910B8417F5
:100BB00095071CF48D918193F7CF10929101DF91ED
:100BC000CF911F910F91FF90089580919201811113
:100BD00012C08091D80080618093D8008AE18A9504
:100BE000F1F700C08091D90080FD02C082E001C011
:100BF00081E08093920181E090919201913009F01F
:100C000080E008950C94E5050E940206809300019F
:100C10000E94E50581110C94150608950E94E505D2
:100C2000811102C00C941B06089561E070E081E020
:100C300091E00C94C90861E070E081E091E00C94CF
:100C4000D008CF93DF93D82FC92F0E946809892B32
:100C500079F4ED2FFC2F80E090E0DC01AC56BE4F24
:100C60002C912193019684309105B9F781E001C060
:100C700080E0DF91CF91089520E030E0FC014191C8
:100C8000CF01F901EC56FE4F40832F5F3F4F2430D8
:100C90003105A1F708950F931F93CF93DF93C42FCE
:100CA000D22FFC0182818823C9F040939A010E94CF
:100CB0002A16909399018093980180E28C0F8830D6
:100CC00008F057C0C77081E001C0880FCA95EAF7E5
:100CD000DF91CF911F910F910C94240C80919A0178
:100CE000481330C080919801909199010E94361666
:100CF000883C910538F510E21D0FCD17B9F080E260
:100D00008C0F883040F4C77081E001C0880FCA950D
:100D1000EAF70E942B0C183028F581E09D2F977080
:100D200001C0880F9A95EAF70E94240C802F0E9438
:100D3000110C1830F0F4D77081E001C0880FDA95FB
:100D4000EAF70AC080E28C0F883098F4C77081E01F
:100D500001C0880FCA95EAF7DF91CF911F910F91DB
:100D60000C942B0C802FDF91CF911F910F910C943D
:100D7000110CDF91CF911F910F9108950F939C015A
:100D8000CB01243F4CE5340731F188F4293DFCE5E3
:100D90003F07D9F02A3D4CE5340779F1283D3C4521
:100DA000A9F506E221EE41EE68ED7CE52BC0263F79
:100DB000FCE53F07E1F0A8F0273F3C4539F507E2A5
:100DC00025EE46EE67EF7CE51DC007E225EE45EE19
:100DD00069ED7CE517C006E221EE40EE64EF7CE5AC
:100DE00011C007E225EE44EE65EF7CE50BC006E29C
:100DF00021EE42EE66EF7CE505C008E221E045EE1B
:100E00006AED7CE50E944B0680E008C0FC0182810F
:100E1000882319F010929A0101C081E00F91089582
:100E2000CF93DF93EC01FB018281882309F41FC17A
:100E3000C230FCE5DF0708F41BC1C6319CE5D907C9
:100E400038F09E012B5F3C452930310508F010C178
:100E50000E94B9149093490280934802C031ECE596
:100E6000DE0709F4C3C008F041C0C8308CE5D807DC
:100E700009F49AC0F0F4C430ECE5DE0709F487C049
:100E800068F4C2308CE5D80709F477C0C330DC457C
:100E900009F0E3C080914802826076C0C630ECE57C
:100EA000DE0709F46EC008F07BC0809148028860BC
:100EB0006BC0CC308CE5D80709F485C068F4CA3023
:100EC000ECE5DE0709F474C008F079C00E94AB0EAF
:100ED00080914802806858C0CE308CE5D80709F46C
:100EE00076C008F07FC0809148028BC0CC3FECE513
:100EF000DE0709F44FC018F5C3318CE5D80709F4B3
:100F00007DC078F4C131ECE5DE0709F473C0C2316D
:100F1000DC4509F0A2C00E94AB0E809148028F7799
:100F200033C0C5318CE5D80709F472C008F486C017
:100F3000CB3FDC4509F091C0809149023EC0C1150C
:100F4000FDE5DF0709F45FC058F4CE3F9CE5D90703
:100F500009F444C008F43FC08091490282602DC06A
:100F6000C230FDE5DF0709F475C008F45DC0C33089
:100F7000DD4509F072C080E06EC08091480281605A
:100F800003C08091480280618093480266C08091CE
:100F9000480211C0809149028260809349025DC07D
:100FA000809148028062F0CF809148028064ECCF4B
:100FB0008091480288608460E7CF8160EECF8091A5
:100FC00048028E7FE1CF809148028D7FDDCF8091F6
:100FD0004802877FD9CF8091490218C08091490289
:100FE0008D7FDBCF809148028F7ECECF80914802EB
:100FF0008F7DCACF809148028F7BC6CF80914802F7
:10100000877F8B7FC1CF809149028D7F8E7FC5CF37
:101010008091480282FB222720F991E0922790FBE1
:1010200082F990FB83F9B0CF80914902982F909577
:1010300091708E7F892B90FB81F9AFCF0E94AB0E10
:101040008091480287FB222720F991E0922790FBAC
:1010500087F99ACF81E00E944F15809148029091C4
:1010600049020E94CA140E94AB0E80E001C081E0D8
:10107000DF91CF910895CF93DF9386319C4541F561
:10108000EB010E94FC13982F8A8120910901309175
:101090000A01882379F09A7A81E009F480E080934C
:1010A0009B01911102C069E201C065E3C9010E9480
:1010B00096150AC080919B01811102C069E201C0AE
:1010C00065E3C9010E9498150E943D1480E001C0AB
:1010D00081E0DF91CF9108958EE14A9B02C081505B
:1010E000E1F74A9BFECF08955A9880E28A95F1F77E
:1010F0005A9A0895FC012AE02A95F1F728E090E039
:1011000080E031E040E14A95F1F7880F4A9B02C048
:101110008160932700C0000040E14A95F1F721501B
:1011200089F720E12A95F1F729B100C0000030E1EC
:101130003A95F1F722FB222720F992272081920F7E
:1011400090830895EF92FF920F931F93CF93DF93B5
:101150001F92CDB7DEB719828C017C01E60EF11C1F
:101160000E151F0551F00E946C08CE0101960E94D9
:101170007A08F80181938F01F3CF81E09981911171
:1011800080E00F90DF91CF911F910F91FF90EF9032
:10119000089590939D0180939C01529A5A9A0895C4
:1011A00090939D0180939C0152985A9AEA9AE9E69D
:1011B000F0E080818F7C80830895615091E001C0D0
:1011C000990F6A95EAF720E031E0992361F0492F01
:1011D000482319F05A9A232701C05A9840E24A95A9
:1011E000F1F79695F2CF222311F05A9A01C05A983E
:1011F00080E28A95F1F75A980895FF920F931F9312
:10120000CF93DF93EC018C01060F111DC017D1079E
:1012100041F0F9900E94740868E08F2D0E94DD086B
:10122000F5CFDF91CF911F910F91FF9008951F92FD
:101230000F920FB60F9211242F933F934F935F930A
:101240006F937F938F939F93AF93BF93CF93DF93CE
:10125000EF93FF935A98529AC0919C01D0919D01AF
:101260006D81662321F08E819F810E94FD080E947E
:10127000740880E18A95F1F75A9852985A9A80E159
:101280008A95F1F76A81662351F08B819C810E94D7
:10129000A208E881F981811104C082E003C0E881DD
:1012A000F98188E080830E946C08FF91EF91DF91C3
:1012B000CF91BF91AF919F918F917F916F915F91EE
:1012C0004F913F912F910F900FBE0F901F90189547
:1012D000CF93DF93C0919C01D0919D01F894529AD5
:1012E0005A9885E08A95F1F7000052985A9A80E260
:1012F0008A95F1F74A9B0AC0529A5A9AE881F98175
:1013000081E08083789481E090E02CC06D81662339
:1013100081F08E819F810E94A20881110AC0529A99
:101320005A9AE881F98182E08083789482E090E0A3
:1013300019C00E946C0880E28A95F1F75A98529A77
:1013400080E18A95F1F76A81662321F08B819C8187
:101350000E94FD080E947408E881F9811082789447
:1013600080E090E0DF91CF9108959093A301809366
:10137000A2010895E091A201F091A301309721F01C
:101380000190F081E02D099480E00895E091A201A0
:10139000F091A301309721F00280F381E02D0994B0
:1013A0000895E091A201F091A301309739F022E075
:1013B000DC012C930480F581E02D0994089520919F
:1013C000A0013091A1012817390771F09093A10174
:1013D0008093A001E091A201F091A301309721F048
:1013E0000680F781E02D0994089520919E013091A7
:1013F0009F012817390771F090939F0180939E01F8
:10140000E091A201F091A301309721F00084F185D1
:10141000E02D0994089585B7806885BF85B78068F9
:1014200085BF08950C94E50508950C94140A0C9456
:10143000140A0C94170A0C94140A0C941B0A0C94AA
:10144000140A0E940B0A0E941F0A0C941D0A0E9493
:1014500021160E94BD040E9492160C94190AAF92A4
:10146000BF92CF92DF92EF92FF920F931F93CF9391
:10147000DF93CDB7DEB72A970FB6F894DEBF0FBE65
:10148000CDBF0E94150A0E94140A0E9428050E94DE
:10149000120A811111C08FEF89838A831B820E94F7
:1014A0002A168160782F9D838C8349815A816B81B4
:1014B0008D810E94CB0A40C085EAA82E81E0B82E1B
:1014C00000E010E0C02E802F0E949104E82EF5016C
:1014D000D1905F01D82631F40F5F1F4F08301105FE
:1014E00089F7D9CF8091190281FD0E94970480E08D
:1014F000FF24F3949D2D9F21D1F08E83CF82EF2086
:1015000081E009F480E088870E942A168160782FA4
:101510009A8789874E815F8168858A850E94CB0A78
:10152000F801EB55FE4F8081F826F08205C08F5FF1
:10153000FF0C8630F9F6D0CF0E9441180E94BA09FC
:101540009091A4018917B1F00E94BA098093A40177
:101550002A960FB6F894DEBF0FBECDBFDF91CF91B4
:101560001F910F91FF90EF90DF90CF90BF90AF90C1
:101570000C949C022A960FB6F894DEBF0FBECDBF26
:10158000DF91CF911F910F91FF90EF90DF90CF905F
:10159000BF90AF900895CF93DF93CDB7DEB72B9771
:1015A0000FB6F894DEBF0FBECDBF4F835887698753
:1015B0007A878B87DE01119686E0FD0111928A956C
:1015C000E9F785E0FE01379601900D928A95E1F7E3
:1015D00049815A816B817C818D819E810E94641139
:1015E0002B960FB6F894DEBF0FBECDBFDF91CF9123
:1015F0000895FC01808191810E94BD130895CF93CD
:10160000882309F4A4C0C82F8238C1F40E94BA0903
:1016100081FD9DC069E38091090190910A010E94BA
:1016200096150E943D142FEF81EE94E021508040EA
:101630009040E1F700C0000069E319C0833801F56C
:101640000E94BA0980FD83C063E5809109019091F1
:101650000A010E9496150E943D142FEF81EE94E03E
:10166000215080409040E1F700C0000063E5809188
:10167000090190910A010E949815CF910C943D1494
:101680008438C1F40E94BA0982FD61C067E4809188
:10169000090190910A010E9496150E943D142FEFB6
:1016A00081EE94E0215080409040E1F700C00000BE
:1016B00067E4DDCF8CEF8C0F813AD0F46C2F8091F2
:1016C000090190910A010E946015882349F06C2F4E
:1016D0008091090190910A010E9498150E943D1481
:1016E0006C2F8091090190910A010E949615C5CF37
:1016F00080E28C0F883048F4C77081E001C0880F09
:10170000CA95EAF70E94FF13B8CFEBE5EC0FE33080
:1017100040F4F0E0E557FE4F808190E0CF910C94CB
:10172000DF09E8E5EC0FE73150F4F0E0EE0FFF1FC2
:10173000E35AFE4F80819181CF910C94F509C03F0F
:1017400030F08C2F0E943617CF910C942318CF9134
:101750000895882309F464C0823879F40E94BA0994
:1017600081FF5EC069E38091090190910A010E94A6
:1017700096150E943D1469E310C08338B1F40E94AD
:10178000BA0980FF4DC063E58091090190910A017B
:101790000E9496150E943D1463E580910901909185
:1017A0000A010E9498150C943D14843879F40E9423
:1017B000BA0982FF35C067E48091090190910A015E
:1017C0000E9496150E943D1467E4E7CF9CEF980FA6
:1017D000913A10F4682FE1CF90E2980F983050F4CE
:1017E000877091E001C0990F8A95EAF7892F0E94CE
:1017F0000514D9CF9BE5980F933020F480E090E05A
:101800000C94DF0998E5980F973120F480E090E080
:101810000C94F509803F20F00E949E170C94231829
:101820000895CF93C82F0E94FF0AC93349F42FEFC0
:1018300087EE93E0215080409040E1F700C0000027
:101840008C2FCF910C94A90B882321F00E94FF13B9
:101850000C943D140895882321F00E9405140C94E3
:101860003D140895CF92DF92EF92FF920F931F9352
:10187000CF93DF937C01D62FC72FFC010581029502
:101880000F70128111110E941C140E94F5138823FD
:1018900099F0112389F08C2F807F803421F080E231
:1018A0008D0F883048F082E00E9487140E94F51363
:1018B00091E0D82ED92601C0D12CCC2EC2948FE035
:1018C000C8228C2D90E08C30910508F0B6C1FC0147
:1018D000EA5AFF4F0C942D208C2F807FCF708823E5
:1018E00011F0C295C07F112399F0CC2309F491C166
:1018F00080E28D0F883010F0D11104C08C2F0E942F
:10190000FF1303C08C2F0E940F140E943D1481C14D
:101910008D2F0E94A90BCC2309F48FC180E28D0F7B
:10192000883010F0D11104C08C2F0E94051403C020
:101930008C2F0E9415140E943D147FC18C2F807F34
:10194000CF70803211F0C295C07FDD2319F0D13005
:10195000C9F022C0112371F0002341F0013031F4AD
:101960000E9422148C2B0E942A1467C10E94221408
:101970008C2B1DC0002319F0013009F45EC10E94B8
:10198000331425C0112321F0063008F056C10EC0D3
:10199000053008F052C11BC0112361F0002331F063
:1019A000F701858180FF35C18F7085838C2F0E9460
:1019B000240C43C1002359F0D93309F03BC1FFEF98
:1019C00007EE13E0F15000401040E1F731C18C2FD9
:1019D0000E942B0C32C18C2F86958695837019F04E
:1019E000813061F02AC1112321F08D2F9C2F93703B
:1019F00002C080E090E00E94DF0927C1112321F09E
:101A00008D2F9C2F937002C080E090E00E94F5091A
:101A10001CC18D2F112319F00E94361702C00E949D
:101A20009E170E94231811C18C2F837009F047C0A4
:101A3000111107C12D2F229526952770220F220FF5
:101A40006D2F6F70862F90E0A0E0B0E0022E04C0F2
:101A5000880F991FAA1FBB1F0A94D2F7D4FF10C08A
:101A60004FE050E060E070E004C0440F551F661F77
:101A7000771F2A95D2F7409550956095709503C0D1
:101A800040E050E0BA01C695C695C3708A019B013B
:101A9000082B192B2A2B3B2BC901B801C23049F066
:101AA00058F4C13019F00E943812CBC00E9426129F
:101AB000C8C00E944A12C5C00E942412C2C011238D
:101AC00019F08C2F817001C08695882309F4B9C064
:101AD0002D2F229526952770220F220F6D2F6F70C4
:101AE000862F90E0A0E0B0E0022E04C0880F991F7E
:101AF000AA1FBB1F0A94D2F7D4FF10C04FE050E0DA
:101B000060E070E004C0440F551F661F771F2A95E0
:101B1000D2F7409550956095709503C040E050E035
:101B2000BA01C695C695C3708A019B01082B192B73
:101B30002A2B3B2BC901B801C23049F058F4C130FF
:101B400019F00E94FD127DC00E94EB127AC00E9423
:101B50000F1377C00E945E1274C0CF70112339F04A
:101B60008C2F0E9484128D2F0E94240C6AC08D2F0E
:101B70000E942B0C8C2F0E94A51263C0D23F01F152
:101B800028F4D03F41F0D13FA1F03FC0D33FF9F05E
:101B9000D43F39F13AC0112341F0053008F04DC06F
:101BA0008C2F8F710E94CA1248C0063008F045C0C1
:101BB000F7CF112339F08C2F8F710E9484123DC012
:101BC0001123C9F38C2F8F710E94A51236C01123E7
:101BD00029F08C2F8F710E946F122FC00E946A1201
:101BE0002CC0112349F0CF718C2F0E94841263E026
:101BF0008C2F0E94721421C081E00E948714023051
:101C0000E0F082E00E94871418C0112331F0002315
:101C100091F28D2F0E94FF0A10C0002399F2D93350
:101C200049F41FEF27EE33E0115020403040E1F738
:101C300000C000008D2F0E94A90B88EF8C0D84300E
:101C400020F40E94BA090E949C02DD20C9F00E9483
:101C5000F11380FD15C0F70112820E94EB130E9460
:101C60008412C7010E94610E0E94EB13DF91CF9195
:101C70001F910F91FF90EF90DF90CF900C94A512E1
:101C8000DF91CF911F910F91FF90EF90DF90CF9058
:101C900008950F931F93CF93DF93EC0168817981AF
:101CA0008A810E94C8138C010E9421130E94121283
:101CB000B801CE010E94320CDF91CF911F910F919C
:101CC0000895CF93DF93EC01988189812B813C812A
:101CD000232B31F08F3F31F481E09F3F19F403C093
:101CE00081E001C080E080FD19C0CE010E94580251
:101CF00081110CC00E94F513882381F08A8188230A
:101D000069F082E0DF91CF910C948714CE010E949C
:101D1000490ECE01DF91CF910C943102DF91CF912A
:101D200008950E941C140E941F140E943D140E94DA
:101D300054190E94231880E090E00E94DF0980E09F
:101D400090E00C94F5098091090190910A010E949C
:101D50009A150C94910E0E940C140C94A30EE92F6A
:101D6000E295EF704E2F50E0FA013297EE30F10518
:101D7000B0F4EE59FF4F0C942D20803F91F018F4F1
:101D8000883E68F40EC0843F51F40BC0883E48F092
:101D9000813F29F406C093FB882780F9089580E0ED
:101DA000089581E008950E94BD130E94AF0E08952A
:101DB000CF93DF9300D000D01F92CDB7DEB70F9046
:101DC0000F900F900F900F90DF91CF910895CF93C8
:101DD000DF9300D000D000D0CDB7DEB726960FB687
:101DE000F894DEBF0FBECDBFDF91CF9108951F9352
:101DF000CF93DF93C091AE0116E08091AF01C81779
:101E000099F0D0E01C9FF0011D9FF00D1124E055CA
:101E1000FE4F4081518162817381848195810E944E
:101E2000E70E2196C770E9CFDF91CF911F910895FA
:101E30004091E0015091E1016091E2017091E30174
:101E40008091E4019091E5010C94E70E0F931F93AC
:101E5000CF93DF938091E50182958F7009F05DC08B
:101E60008091E201882309F458C08091AE0110915D
:101E7000AF016091E0017091E101C091E301D09167
:101E8000E40191E06F3F09F090E0292F06E081170F
:101E900009F443C0209721F07F3F21F030E003C0D8
:101EA00031E001C0322F90E030FD34C0089FF001D6
:101EB000099FF00D1124DF01A055BE4F11963C91F2
:101EC0001197371327C03C91361324C012963C91CA
:101ED000129731111FC013964D915C9114974C1BB2
:101EE0005D0B483C5105B0F48091E5018F70806135
:101EF0008093E501EB54FE4F80818F708061808379
:101F000080EE91E00E94610EDF91CF911F910F91C1
:101F10000C94F70E01968770BACFDF91CF911F9185
:101F20000F9108959F92AF92BF92CF92DF92EF925E
:101F3000FF920F931F93CF93DF93CDB7DEB76197D7
:101F40000FB6F894DEBF0FBECDBF8C0185E0F8015F
:101F5000DE011D9601900D928A95E1F7F80140810E
:101F60005181E2809091E0016091E1012091E301D3
:101F70003091E4012115310531F06F3F31F481E0FA
:101F80009F3F19F403C081E001C080E0F82FF17099
:101F90009F2E80FD46C1F801A380B48080EEC82E3C
:101FA00081E0D82EF090E201F501E21BF30BFF2057
:101FB00009F4DFC08091E501E83CF10508F09BC021
:101FC000282F207F09F052C0561313C0491311C0A7
:101FD000FE2CE1100EC08F7080618093E5010E949D
:101FE000180FC6010E94610E8091E501F8018583FA
:101FF00058C1AB2831F05F3F31F481E04F3F19F415
:1020000003C081E001C080E080FD03C081E08E2537
:1020100002C080E090E0F82FF170FF2E80FF1CC01E
:102020008091AE012091AF0136E0821709F417C10B
:1020300090E0389FF001399FF00D1124E055FE4FDC
:102040006181561306C06081461303C06281E612A7
:1020500003C001968770E9CFFE2CEE2009F421C160
:102060008091E50181608093E5015AC0561306C056
:10207000491304C0E11002C0F8019FC04D875E877C
:102080008D859E850E94D30E882379F1EE2069F11B
:102090002091E501822F82958F7090E0029774F075
:1020A0008091E0019091E10198878F831986BB862A
:1020B000AA862C87CE0107960E94610E86E0F80161
:1020C000A0EEB1E001900D928A95E1F70E94260FF3
:1020D0000E94180F0DC0561729F14D875E878D8518
:1020E0009E850E94D30E81112CC0C8010E94610EF2
:1020F000FF24F394D6C0282F207F69F77A2DB98A60
:10210000A88A6E2D89890E94D80E80EE91E00E94E7
:10211000610E86E0F60111928A95E9F70E94180F88
:10212000F12CBFC04913D9CFE110D7CFF801858377
:10213000C8010E94610E86E0F60111928A95E9F7C6
:10214000B0C0EE2091F22091E501822F82958F7030
:1021500090E002970CF4B2CF8091E0019091E10100
:102160009A8389831B82BD82AC822E83CE01019625
:10217000A3CFE83CF10508F047C0FE2CEE2009F49F
:10218000B4CF561330C049132EC02091E50120FD75
:1021900021C0822F82958F70482F50E04115510544
:1021A000C9F0F80125834F30510541F08F5F982F1A
:1021B0009295907F822F8F70892B8583C8010E9412
:1021C000610E86E0F801A0EEB1E001900D928A95D3
:1021D000E1F742C086E0F801A0EEB1E001900D9277
:1021E0008A95E1F75EC04D875E878D859E850E944A
:1021F000D30E811163CF8091E50181608093E50169
:10220000C8010E94610E4DC07A2DB98AA88A6E2D30
:1022100089890E94D80E86E0F60111928A95E9F725
:102220001BC0EE2009F461CF4D875E878D859E85AA
:102230000E94D30EF82E882309F457CF86E0F801C8
:10224000A0EEB1E001900D928A95E1F780EE91E069
:102250000E94F90A0E94260F0E94180F22C04D8783
:102260005E878D859E850E94BD13292F22952F7034
:10227000223028F49F7039F0811105C00BC0243042
:1022800028F49F7049F4805E883020F0C8010E94D5
:10229000610E9F2CF92C05C0F8019581907F99F76C
:1022A000F9CF8F2D61960FB6F894DEBF0FBECDBF6C
:1022B000DF91CF911F910F91FF90EF90DF90CF9022
:1022C000BF90AF909F9008951F93CF93DF93CDB7AA
:1022D000DEB72C970FB6F894DEBF0FBECDBF4F838D
:1022E000588769877A878B879C87CE0107960E94DB
:1022F000920F8823D1F09F8188852A853B85232BE7
:1023000031F08F3F31F481E09F3F19F403C081E049
:1023100001C080E080FD47C04F81588569857A857E
:102320008B859C850E94E70E3EC086E0FE013796B5
:10233000DE01119601900D928A95E1F7FF81E88503
:102340006A857B856115710531F0EF3F31F481E0DD
:10235000FF3F19F403C081E001C080E080FD23C08D
:102360002091AF0130E0C901019687709927409113
:10237000AE0150E084179507F1F1F983EA837D837C
:102380006C8396E0929FD001939FB00D1124A055CD
:10239000BE4FFE01319601900D929A95E1F7809320
:1023A000AF010E94F70E16E08091AE019091AF014F
:1023B000891771F1189FC001112480559E4F0E940A
:1023C000920F882329F1E091AE011E9FF0011124A4
:1023D000E055FE4F408151816281738184819581F6
:1023E0000E94E70E8091AE0190E0019687709927D8
:1023F0008093AE01D9CF0E94AB0E1092AF01109224
:10240000AE01E0EEF1E086E0DF011D928A95E9F78A
:102410002C960FB6F894DEBF0FBECDBFDF91CF91E3
:102420001F910895089508950C9413120C9414129A
:102430000E941612609308027093090280930A02A8
:1024400090930B020C94910E0C9418120F931F93FF
:10245000009108021091090220910A0230910B02AA
:10246000602B712B822B932B1F910F910C941812C0
:102470000F931F93009108021091090220910A0204
:1024800030910B0260237123822393231F910F91BC
:102490000C9418120F931F930091080210910902D7
:1024A00020910A0230910B0260277127822793271F
:1024B0001F910F910C9418120C9413120E945C122D
:1024C00060930402709305028093060290930702C2
:1024D0000C94910E60E070E0CB010C945E120F93AF
:1024E0001F9341E050E060E070E08A019B0104C06E
:1024F000000F111F221F331F8A95D2F7C901B8019F
:102500001F910F910C945E120F931F9341E050E0C6
:1025100060E070E004C0440F551F661F771F8A9566
:10252000D2F78091040290910502A0910602B09129
:1025300007028A019B01082B192B2A2B3B2BC9016F
:10254000B8011F910F910C945E120F931F9341E0FD
:1025500050E060E070E004C0440F551F661F771F15
:102560008A95D2F7409550956095709580910402B8
:1025700090910502A0910602B09107028A019B0189
:10258000082319232A233B23C901B8011F910F9166
:102590000C945E120F931F9341E050E060E070E0F6
:1025A00004C0440F551F661F771F8A95D2F780918C
:1025B000040290910502A0910602B09107028A01DF
:1025C0009B01082719272A273B27C901B8011F911A
:1025D0000F910C945E120F931F93009104021091BF
:1025E00005022091060230910702602B712B822B8D
:1025F000932B1F910F910C945E120F931F930091D8
:102600000402109105022091060230910702602316
:102610007123822393231F910F910C945E120F93C9
:102620001F9300910402109105022091060230913F
:10263000070260277127822793271F910F910C941F
:102640005E120895292F220F920F990F890FE82FFC
:10265000E695E695E695877051E001C0550F8A959D
:10266000EAF785E0E89FF0011124EA51FE4F20E0EF
:1026700030E070E04081CB01022E02C09695879534
:102680000A94E2F7817081958427852384278193BA
:102690002F5F3F4F2530310569F70895292F220F0D
:1026A000920F990F890F682F669566956695982FFA
:1026B000977085E0689FB001112440E050E080E011
:1026C000FB01E40FF51FEA51FE4F208130E0092E97
:1026D00002C0369527950A94E2F721703327042E1D
:1026E00001C0220F0A94EAF7822B4F5F5F4F4530FB
:1026F000510531F70895BF92CF92DF92EF92FF928A
:102700000F931F93CF93DF938C01C0900402D0905E
:102710000502E0900602F090070280910802909175
:102720000902A0910A02B0910B02C82AD92AEA2A0A
:10273000FB2ACFE1D0E0D701C6010C2E04C0B6952C
:10274000A795979587950A94D2F780FD04C02197A5
:1027500090F7B12C07C0BC2EB8018C2F0E94B80294
:102760000197A9F38B2DDF91CF911F910F91FF90CE
:10277000EF90DF90CF90BF900895CF93DF93EC015F
:102780000E947B13BE010E94B802DF91CF91089591
:102790001F93CF93DF93EB019091AD01992321F02B
:1027A000CB010E94BD1313C0882349F0CB010E94C6
:1027B0007B13182F682FCE010E94221304C0CB0177
:1027C0000E944E13182FBE01812F0E94B802DF9184
:1027D000CF911F91089580910C02859585958595DF
:1027E000089580910C028770089590910C02977063
:1027F00081E009F480E00895809118020895909195
:102800001802892B809318020895809590911802E0
:1028100089238093180208951092180208959091C8
:102820001702892B809317020895809590911702C3
:102830008923809317020895109217020895109229
:102840001602089580910D02089508950C942514A0
:102850000C94261490910D02981721F080930D028C
:102860000C942814089580910D02882329F0109269
:102870000D0280E00C9428140895E0910901F09174
:102880000A01809118028083E0910901F0910A0108
:10289000908180911702892B8083E0910901F0914A
:1028A0000A01908180911602892B808380910D020C
:1028B000882381F0E0910901F0910A019081892B30
:1028C00080838091090190910A010E945415811121
:1028D0000E9433148091090190910A010C94C60959
:1028E0000C94251498E0899F90011124262B2093A5
:1028F0000C020E94841280910C0285958595859525
:102900000C94701410920C0280E00C9470142091BE
:102910000C028095822380930C02982F977079F493
:1029200030E0482F082E000C550B2417350739F0DE
:102930008595859585950E94A5120C94821408951D
:102940006FEF7FEF80E090E00C94732080E090E0E8
:102950000E944F2021E08C3E9E4F09F020E0822F04
:10296000089582E090E00C94472083E090E00C947E
:102970004720CF9384E090E00E944720C82F81E257
:1029800090E00E9447202C2F30E0A901582BCA016B
:10299000CF910895CF93C92F682F84E090E00E94D3
:1029A00055206C2F81E290E0CF910C945520AB0123
:1029B000BC018FE090E00C946720AB01BC0183E187
:1029C00090E00C94672060E070E0CB010C94DD1483
:1029D00060E070E0CB010E94D7140C94E3146CEE1D
:1029E0007EEF80E090E00E94732060E082E090E063
:1029F0000E94552060E083E090E00E9455201092F4
:102A000008021092090210920A0210920B0260E072
:102A100084E090E00E94552060E081E290E00E9416
:102A2000552060E085E090E00E94552060E086E05F
:102A300090E00E9455206FEF87E090E00E945520C3
:102A400040E050E0BA0188E090E00E94672060E03A
:102A50008DE090E00E94552040E050E0BA0188E10E
:102A600090E00E94672060E087E190E00E9455209E
:102A700040E050E0BA018CE190E00E94672060E005
:102A800080E290E00E94552040E050E0BA0188E1E9
:102A900090E00E9467200C94E8140C94EF14682FC7
:102AA0008EE090E00C945520FC01329697E080E097
:102AB000915029F021912223D9F38F5FF9CF089506
:102AC000662349F0FC01329608962191621729F09D
:102AD000E817F907D1F780E0089581E008959C0197
:102AE000FC0132969FEF80E04191461789F09F3FAD
:102AF00019F4411101C0982F8F5F8630A9F79F3FCD
:102B000039F0F901E90FF11D97FDFA9562830895F7
:102B100008959C012A5F3F4FFC014281461301C08A
:102B20001282019682179307B9F708950C946F15D6
:102B30000C948915029626E0FC0111922A95E9F77A
:102B4000089508950C94A1150C94A115CF930E949B
:102B5000A4150E9428050E94A215C0E08C2F0E9497
:102B60009104811104C0CF5FC830C1F701C081E07A
:102B7000CF9108950C94A1150C94BA150E94BC1520
:102B800080914E02843049F110921A0220E488E1CB
:102B900090E00FB6F894A895809360000FBE209344
:102BA000600080E00E949C020E94BC1583B7817F78
:102BB000846083BF83B7816083BF7894889583B72F
:102BC0008E7F83BF0FB6F894A895809160008861CE
:102BD00080936000109260000FBE08950C94A115C0
:102BE0000E94AB0E0E94BA090E949C020C94EE1542
:102BF0001F920F920FB60F9211248F939F93AF9352
:102C0000BF9380911A02811113C080914402909168
:102C10004502A0914602B09147024196A11DB11D07
:102C20008093440290934502A0934602B0934702DA
:102C3000BF91AF919F918F910F900FBE0F901F90FA
:102C4000189582E084BD93E095BD9AEF97BD80937F
:102C50006E0008952FB7F894809144029091450238
:102C6000A0914602B09147022FBF08959C014FB733
:102C7000F8948091440290914502A0914602B0914F
:102C800047024FBF821B930B089578941F920F92B7
:102C90000FB60F9211248F939F93AF93BF938091A0
:102CA000440290914502A0914602B09147020196DC
:102CB000A11DB11D8093440290934502A09346024A
:102CC000B0934702BF91AF919F918F910F900FBE2C
:102CD0000F901F90189587E797E7909301088093CE
:102CE00000089AE088E10FB6F894A89580936000F8
:102CF0000FBE90936000FFCF0C94A0140E94280593
:102D00008FE39CE90197F1F700C000000E942805BD
:102D100080E00E94910480FF04C00E947C160C9405
:102D20006B1608950E94A614811102C00E944D15D1
:102D30000E94B114809319020E94B9149093490221
:102D4000809348020E94B514682F70E080E090E004
:102D50000E94241260910402709105028091060283
:102D6000909107020C945C128091210280FF0BC0AD
:102D70006091100185E0689FB001112475956795F9
:102D8000759567952BC081FF09C06091100185E0A2
:102D9000689FB00111247595679520C082FF07C018
:102DA0006091100185E0689FB001112417C09091D7
:102DB00020029923D1F060910F01961788F7209196
:102DC000100185E0289F90011124929FA001939FFC
:102DD000500D112470E0CA010E941920603871055D
:102DE00040F46115710519F406C065E070E0862FA6
:102DF00008958FE7089581E008958091210280FF72
:102E000008C060910C0170E07595679575956795A0
:102E100021C081FF06C060910C0170E07595679537
:102E200019C082FF04C060910C0170E010C0909145
:102E30001F02992399F060910B019617A0F78091DA
:102E40000C01899FC001112470E00E941920603894
:102E5000710540F46115710519F406C061E070E078
:102E6000862F08958FE7089581E00895803F21F42B
:102E70000E94B416819504C0813F29F40E94B416C3
:102E8000809325020895823F21F40E94B416819513
:102E900004C0833F29F40E94B4168093240208954D
:102EA000893F19F40E94FD1605C08A3F31F40E9443
:102EB000FD1681958093260208958B3F21F40E9490
:102EC000FD16819504C08C3F29F40E94FD16809365
:102ED00027020895843F21F480912302816017C066
:102EE000853F21F480912302826011C0863F21F446
:102EF0008091230284600BC0873F21F480912302DC
:102F0000886005C0883F31F48091230280618093FE
:102F1000230208958D3F21F48091210281600BC02E
:102F20008E3F21F480912102826005C08F3F29F4F9
:102F3000809121028460809321020895803F39F4BA
:102F40008091250287FF6AC01092250267C0813FE9
:102F500029F4809125021816BCF360C090912402D8
:102F6000823F29F497FF5AC01092240257C0833F32
:102F700019F41916CCF352C090912602893F31F40E
:102F800019160CF04BC01092260248C08A3F19F463
:102F900097FF44C0F8CF8B3F39F48091270287FF19
:102FA0003DC0109227023AC08C3F29F4809127023D
:102FB0001816BCF333C0843F21F4809123028E7F26
:102FC00017C0853F21F4809123028D7F11C0863F79
:102FD00021F4809123028B7F0BC0873F21F48091E5
:102FE0002302877F05C0883F31F4809123028F7EC2
:102FF0008093230213C08D3F21F4809121028E7FA4
:103000000BC08E3F21F4809121028D7F05C08F3F40
:1030100029F4809121028B7F8093210280912402E8
:10302000811106C080912502811102C010922002F8
:1030300080912602811106C080912702811102C071
:1030400010921F0208950E942A1620912402211135
:1030500004C020912502222321F090931E02809328
:103060001D0220912602211104C020912702222353
:1030700021F090931C0280931B0282E292E00C9458
:10308000D109EF92FF920F931F93CF93DF9300D05C
:1030900000D000D0CDB7DEB786E0E2E2F2E0DE019C
:1030A000119601900D928A95E1F7E0902402F0903C
:1030B00025020091260210912702109224021092FC
:1030C00025021092260210922702E11003C0FF2071
:1030D00009F45DC080911D0290911E020E94361677
:1030E000AC0190912002992339F02091110130E038
:1030F0002417350758F04BC0209112018AE0289F11
:10310000900111242417350718F041C09F3F19F092
:103110009F5F90932002EE2061F00E94B4161E146F
:1031200014F09FEF01C091E0989F902D112490938F
:103130002402FF2061F00E94B4161F1414F09FEFC8
:1031400001C091E0989F902D112490932502309119
:1031500024023323E1F0209125022223C1F045EB24
:103160003403C0011124992319F09093240203C061
:1031700081E08093240235EB2303C00111249923BD
:1031800019F09093250203C081E08093250201117C
:1031900003C0112309F45DC080911B0290911C02B1
:1031A0000E943616AC0190911F02992339F02091AC
:1031B0000D0130E02417350758F04BC020910E0167
:1031C0008AE0289F900111242417350718F041C088
:1031D0009F3F19F09F5F90931F02002361F00E94B0
:1031E000FD16101614F09FEF01C091E0989F902DEE
:1031F000112490932602112361F00E94FD161116EE
:1032000014F09FEF01C091E0989F902D11249093AE
:103210002702309126023323E1F020912702222356
:10322000C1F045EB3403C0011124992319F09093A8
:10323000260203C081E08093260235EB2303C00100
:103240001124992319F09093270203C081E0809301
:1032500027028091240281110BC0809125028111E7
:1032600007C080912602811103C08091270281113D
:103270000E942318EB82FC820D831E8386E0FE01F0
:103280003196A2E2B2E001900D928A95E1F726967E
:103290000FB6F894DEBF0FBECDBFDF91CF911F9167
:1032A0000F91FF90EF900895E2E2F2E086E0DF01F7
:1032B0001D928A95E9F71092200210921F02109237
:1032C00021020895809130020895CF93DF9300D0BA
:1032D0001F92CDB7DEB790914E02943019F58983D5
:1032E0007B836A8382E08093E9008FEF9091E8000E
:1032F000815095FD06C095ED9A95F1F7000081117A
:10330000F5CF8091E80085FF0DC040E050E063E01C
:1033100070E0CE0101960E947B1B8091E8008E77C1
:103320008093E8000F900F900F90DF91CF91089558
:10333000BC0184E00C946519BC0183E00C94651910
:1033400022E02093E9002FEF3091E800215035FD75
:1033500006C035ED3A95F1F700002111F5CF209127
:10336000E80025FF0BC040E050E066E070E00E94FE
:103370007B1B8091E8008E778093E8000895CF93BF
:10338000DF9321E02093E9002FEF3091E8002150F6
:1033900035FD06C035ED3A95F1F700002111F5CF66
:1033A0002091E80025FF14C0EC0140E050E068E007
:1033B00070E00E947B1B8091E8008E778093E8008C
:1033C00088E0FE01A8E2B2E001900D928A95E1F753
:1033D000DF91CF91089580914D02811109C00E9423
:1033E0000C1D0E94691D8091E20084608093E200C0
:1033F000089510924D020895089508950C94F015C3
:1034000042E061EC81E00E94851C42E261EC82E0D6
:103410000C94851C80915002833009F460C030F414
:10342000813071F0823009F499C008958A3009F42E
:1034300085C08B3009F46BC0893009F0A7C020C06B
:1034400080914F02813A09F0A1C08091E800877F06
:103450008093E8008091530290915402892B21F4CB
:1034600068E088E292E003C060E080E090E070E015
:103470000E94C61B8091E8008B778093E800089536
:1034800080914F02813209F081C080915302909166
:103490005402029708F07AC08091E800877F8093F9
:1034A000E8008091E80082FD05C080914E02811104
:1034B000F8CF6CC02091F3008091F20090E0922B45
:1034C000029729F48091F1008B7F813021F4809163
:1034D000F100809330028091E8008B7753C0809197
:1034E0004F02813A09F052C08091530290915402E8
:1034F000892B09F04BC08091E800877F8093E8001A
:103500008091E80080FFFCCF80911D0136C0809142
:103510004F028132D9F58091530290915402892B48
:10352000A9F58091E800877F8093E8000E94BA1C8B
:103530008091510280931D010C94AB0E80914F023B
:10354000813221F58091E800877F8093E8000E9416
:10355000BA1C8091520280933102089580914F02EB
:10356000813AA1F48091E800877F8093E800809100
:10357000E80080FFFCCF809131028093F1008091C0
:10358000E8008E778093E8000C94BA1C089584B705
:10359000877F84BF0FB6F894A895809160008861FA
:1035A00080936000109260000FBE90E080E80FB63C
:1035B000F89480936100909361000FBE0E94210AED
:1035C0000E940C1D0E94691D8091E200846080931E
:1035D000E20078940E94FE1F0E94270A83E191E096
:1035E0000E94B50980914E02853069F40E94BE1593
:1035F00080914C028823B1F30E94A615882391F391
:103600000E94651BEFCF0E942F0A0E94150A0E949C
:10361000140AE8CF0C940C1B292F332723303105D3
:10362000C9F060F42130310581F02230310509F014
:1036300044C08BE390E028E332E043C021323105FF
:10364000E1F02232310549F138C082E190E023E710
:1036500032E037C099278130910549F028F0029770
:1036600061F5E4E1F2E005C0E4E3F2E002C0E8E283
:10367000F2E0849190E09F0124C06115710541F052
:1036800061307105D1F489E090E023E632E019C0A1
:1036900089E090E02AE432E014C06115710541F040
:1036A0006130710551F481E890E025E832E009C00D
:1036B00080E490E026E033E004C080E090E020E089
:1036C00030E0FA0131832083089580E189BD82E1F1
:1036D00089BD09B400FEFDCF8091D8008F7D809315
:1036E000D8008091E00082608093E0008091E0004B
:1036F00081FDFCCF0895CF92DF92EF92FF920F935E
:103700001F93CF93DF93EC018B017A010E94D91CA8
:10371000811133C0E114F10439F0F7018081918106
:10372000081B190BC80FD91FC12CD12C011511056D
:1037300019F18091E80085FD16C08091E8008E7730
:103740008093E800E114F10449F0F7018081918150
:10375000C80ED91ED182C08285E00FC00E94D91C3C
:10376000882321F30AC089918093F1000150110947
:10377000FFEFCF1ADF0ADACF80E0DF91CF911F9100
:103780000F91FF90EF90DF90CF9008952091550218
:10379000309156022617370748F06115710539F444
:1037A0002091E8002E772093E80001C0B901FC01C8
:1037B00020E06115710579F180914E028823F1F1C5
:1037C0008530F1F18091E80083FD3CC08091E800F4
:1037D00082FD2EC08091E80080FFEBCF2091F300A6
:1037E0008091F20090E0922B6115710551F08830C4
:1037F000910538F421912093F100615071090196EF
:10380000F3CF21E0089709F020E08091E8008E775F
:103810008093E800CECF2111CFCF0AC080914E0215
:10382000882361F0853061F08091E80083FD0AC053
:103830008091E80082FFF2CF80E0089582E0089551
:1038400083E0089581E00895209155023091560259
:103850002617370748F06115710539F42091E80003
:103860002E772093E80001C0B901FC0120E061152A
:10387000710591F180914E02882309F440C0853092
:1038800009F43FC08091E80083FD3DC08091E800CD
:1038900082FD2FC08091E80080FFE9CF2091F300E6
:1038A0008091F20090E0922B6115710559F08830FB
:1038B000910540F424912093F100319661507109F3
:1038C0000196F2CF21E0089709F020E08091E8000E
:1038D0008E778093E800CBCF2111CCCF0AC08091A6
:1038E0004E02882361F0853061F08091E80083FD0D
:1038F0000AC08091E80082FFF2CF80E0089582E064
:10390000089583E0089581E00895982F973068F531
:103910009093E900981739F07091EC002091ED0038
:103920005091F00003C0242F762F50E021FD02C0FB
:103930009F5FECCF3091EB003E7F3093EB003091F6
:10394000ED003D7F3093ED003091EB00316030931E
:10395000EB007093EC002093ED005093F000209169
:10396000EE0027FDE5CF80E008958F708093E90099
:1039700081E0089580914F0287FF11C08091E80097
:1039800082FD05C080914E028111F8CF11C0809157
:10399000E8008B770BC080914E02882349F080911C
:1039A000E80080FFF8CF8091E8008E778093E800F0
:1039B00008952091E4003091E50095E64091EC00F7
:1039C000842F817040FF23C08091E80080FD1DC0DE
:1039D00080914E02882399F0853099F08091EB0018
:1039E00085FD11C04091E4005091E5002417350792
:1039F00029F3915011F09A01E1CF84E0089582E01B
:103A0000089583E0089581E0089580E0089540914D
:103A1000E80042FFDDCF08950E947A1D0E94821DBA
:103A2000E0EEF0E0808181608083E8EDF0E080816D
:103A30008F77808319BCA7EDB0E08C918E7F8C933B
:103A400080818F7E808310924D0208950F931F9383
:103A5000CF93DF930E947A1D0E94821DC8EDD0E0B3
:103A600088818F77888388818068888388818F7D2B
:103A7000888319BC10924E0210924A0210924C0296
:103A800010924B0200EE10E0F80180818B7F808362
:103A900088818160888342E060E080E00E94851C2C
:103AA000E1EEF0E080818E7F8083E2EEF0E08081C5
:103AB00081608083808188608083F80180818E7F2F
:103AC0008083888180618883DF91CF911F910F91DE
:103AD0000895E8EDF0E080818F7E8083E7EDF0E0EF
:103AE00080818160808384E082BF81E080934D0289
:103AF0000C94261DE8EDF0E080818E7F808310928B
:103B0000E20008951092DA001092E10008951F92E9
:103B10000F920FB60F9211242F933F934F935F9301
:103B20006F937F938F939F93AF93BF93EF93FF9385
:103B30008091E10082FF0BC08091E20082FF07C00C
:103B40008091E1008B7F8093E1000E94FD1F8091B6
:103B5000DA0080FF1FC08091D80080FF1BC08091D9
:103B6000DA008E7F8093DA008091D90080FF0DC04B
:103B700080E189BD82E189BD09B400FEFDCF81E00D
:103B800080934E020E94EB1905C019BC10924E02A0
:103B90000E94F9198091E10080FF19C08091E20034
:103BA00080FF15C08091E2008E7F8093E2008091BB
:103BB000E20080618093E2008091D800806280936F
:103BC000D80019BC85E080934E020E94FD198091B7
:103BD000E10084FF30C08091E20084FF2CC080E1CE
:103BE00089BD82E189BD09B400FEFDCF8091D80076
:103BF0008F7D8093D8008091E1008F7E8093E100DB
:103C00008091E2008F7E8093E2008091E2008160EB
:103C10008093E20080914A02882311F084E007C07B
:103C20008091E30087FD02C081E001C083E08093C2
:103C30004E020E94FE198091E10083FF29C080910D
:103C4000E20083FF25C08091E100877F8093E1003F
:103C500082E080934E0210924A028091E1008E7FB2
:103C60008093E1008091E2008E7F8093E20080915A
:103C7000E20080618093E20042E060E080E00E9428
:103C8000851C8091F00088608093F0000E94FC19F0
:103C9000FF91EF91BF91AF919F918F917F916F9124
:103CA0005F914F913F912F910F900FBE0F901F90FA
:103CB00018951F920F920FB60F9211242F933F93D6
:103CC0004F935F936F937F938F939F93AF93BF9324
:103CD000CF93DF93EF93FF93C091E900CF70809172
:103CE000EC00D82FD17080FDD0E81092E9008091CF
:103CF000F000877F8093F00078940E949D1E1092C0
:103D0000E9008091F00088608093F000CD2BCF70A7
:103D1000C093E900FF91EF91DF91CF91BF91AF91F7
:103D20009F918F917F916F915F914F913F912F91D3
:103D30000F900FBE0F901F9018951F93CF93DF9396
:103D4000CDB7DEB7AA970FB6F894DEBF0FBECDBFD2
:103D5000EFE4F2E08091F100819322E0E735F20791
:103D6000C9F70E940A1A8091E80083FF2EC1809152
:103D70004F0290915002492F50E04A30510508F00F
:103D800024C1FA01E059FF4F0C942D20803821F016
:103D9000823809F01AC108C080914B0290914C0200
:103DA000992389F082600FC0809153028F70873011
:103DB00008F00BC18093E9008091EB0085FB882718
:103DC00080F91092E9009091E800977F9093E800C5
:103DD0008093F1001092F100D1C0282F2D7F09F0BF
:103DE000F4C0882319F0823061F0EFC08091510255
:103DF000813009F0EAC0933009F080E080934C02F2
:103E00002EC08091510281112AC0809153028F707F
:103E10002FEF280F263008F0D8C08093E9002091BA
:103E2000EB0020FF1CC0933021F48091EB008062F6
:103E300014C09091EB0090619093EB0021E030E092
:103E4000A90102C0440F551F8A95E2F74093EA008A
:103E50001092EA008091EB0088608093EB00109252
:103E6000E9008091E800877F8093E8000E94BA1CF7
:103E7000ACC08111AAC0109151021F778091E3005C
:103E80008078812B8093E3008091E800877F809386
:103E9000E8000E94BA1C8091E80080FFFCCF80916E
:103EA000E30080688093E300111102C082E001C04A
:103EB00083E080934E0289C08058823008F085C02C
:103EC00080915102909152028C3D53E0950779F513
:103ED00083E08A838AE289834FB7F894DE011396E0
:103EE00020E03EE051E2E32FF0E050935700E491F0
:103EF00020FF03C0E295EF703F5FEF708E2F90E0E0
:103F0000EA3010F0C79601C0C0968D939D932F5F45
:103F1000243149F74FBF8091E800877F8093E80004
:103F20006AE270E0CE0101960E94C61B16C0609145
:103F3000530270915402AE014F5F5F4F0E940A1B03
:103F4000BC01892B09F441C09091E800977F9093C0
:103F5000E80089819A810E94241C8091E8008B7777
:103F60008093E80032C0803881F58091E800877F37
:103F70008093E80080914A028093F1008091E800EC
:103F80008E7772CF811121C080915102909152029F
:103F900099270297D4F48091E800877F8093E80006
:103FA0008091510280934A020E94BA1C80914A0279
:103FB000811106C08091E30087FD02C081E001C04D
:103FC00084E080934E020E94001A8091E80083FFF3
:103FD0000AC08091E800877F8093E8008091EB0021
:103FE00080628093EB00AA960FB6F894DEBF0FBEF6
:103FF000CDBFDF91CF911F9108950895CF93809108
:104000004E028823A1F0C091E900CF709091EC009E
:10401000892F817090FD80E8C82B1092E900809173
:10402000E80083FD0E949D1ECF70C093E900CF91F0
:10403000089597FB072E16F4009407D077FD09D05A
:104040000E94332007FC05D03EF4909581959F4F48
:104050000895709561957F4F0895EE0FFF1F0590AD
:10406000F491E02D0994AA1BBB1B51E107C0AA1FC4
:10407000BB1FA617B70710F0A61BB70B881F991F09
:104080005A95A9F780959095BC01CD010895F999AD
:10409000FECF92BD81BDF89A992780B50895A8E119
:1040A000B0E042E050E00C947B20262FF999FECF3F
:1040B00092BD81BDF89A019700B4021639F01FBA7B
:1040C00020BD0FB6F894FA9AF99A0FBE0895039698
:1040D000272F0E9456200E945520252F0E945620EF
:1040E000242F0C9456200196272F0E9456200C94C2
:1040F0005520DC01CB01FC01F999FECF06C0F2BDD1
:10410000E1BDF89A319600B40D9241505040B8F795
:064110000895F894FFCFB2
:104116000193010094010494010E022808641E1400
:104126000A321E6219BF19A0199C19981901E200DA
:10413600E900EA00B500B600B700CD008301CC0067
:104146008A019201940121022302240225022602F9
:1041560027022A02B300B4006F007000818283F642
:10416600F7313300009190943597C60000E200E9DC
:1041760000EA00B500B600B700CD008301CC008A86
:10418600019201940121022302240225022602271C
:0E419600022A02B300B4006F00700081828321
:00000001FF
