:100000000C9427020C946E020C946E020C94910DC9
:100010000C946E020C946E020C946E020C946E02A0
:100020000C946E020C946E020C94BB220C948D23E3
:100030000C94741A0C946E020C946E020C946E0262
:100040000C946E020C946E020C946E020C946E0270
:100050000C946E020C94CD1A0C946E020C946E02E9
:100060000C946E020C946E020C946E020C946E0250
:100070000C946E020C946E020C946E020C946E0240
:100080000C946E020C946E020C946E020C946E0230
:100090000C946E020C946E020C946E020C946E0220
:1000A0000C946E020C946E020C946E0292089508E9
:1000B000B508C608CE08D9083109310931091F0928
:1000C0002209DC08DF08E408F108FE080109050937
:1000D0001209E810E8101A111A1167118511991206
:1000E0009912901129123A123A12391339134B13FB
:1000F0004B1342134B134B134B1339133913471341
:100100004B134B134713FA232124192521241925B6
:100110006D2490241925E724F624290014001A00E0
:10012000080015001700E000040016000700090091
:100130000A00E1001D001B00060019000500E20096
:100140000000E3002C41000000001C0018000C001F
:10015000120013002A000B000D000E000F002D00EE
:10016000280011001000360037003800E500054275
:100170002C000000E4002A4100002B001E001F009C
:10018000200021002200E0001E021F0220022102A6
:100190002202E10057005600550054006700E200BB
:1001A0000000E3002C0000000000230024002500D4
:1001B000260027004C0023022402250226022702E3
:1001C0002800350089002F1230122D12E50005009D
:1001D0002C000000E700000000002B003A003B006C
:1001E0003C003D003E00E0001F02310033003312AE
:1001F0003400E100C35CC45CC65CC75CC85CE20060
:100200000000E3002C00000000003F00400041001F
:10021000420043004C005000510052004F002E009D
:100220002800C95CCA5C2F0030003100E5000000E6
:10023000CB5C0000E700E6000000000000000000CA
:1002400000002A2B28000000000000000000000031
:10025000000000000029000000002C1E3420212294
:1002600024342627252E362D3738271E1F202122FD
:10027000232425263333362E37381F040506070876
:10028000090A0B0C0D0E0F10111213141516171866
:10029000191A1B1C1D2F3130232D350405060708A4
:1002A000090A0B0C0D0E0F10111213141516171846
:1002B000191A1B1C1D2F3130354C000000000000A6
:1002C00000000000000000000000000000007E0FA1
:1002D00000D4FFFFFFC700000078120363006F0027
:1002E0006F006C00390034003300530000000A0333
:1002F0006D002E006B006900000004030904090270
:100300005B00030100A0FA090400000103010100E1
:100310000921110100012240000705810308000A9C
:10032000090401000203000000092111010001225B
:1003300022000705820320000107050303200001B6
:10034000090402000103000000092111010001223B
:1003500081000705840320000A120110010000003B
:1003600008EDFE00000100010200010660FF0961C6
:10037000A1010962150026FF009520750881020978
:1003800063150026FF00952075089102C00501093C
:1003900002A10185020901A100050919012905151C
:1003A00000250195057501810295017503810105FF
:1003B00001093009311581257F95027508810609EB
:1003C000381581257F950175088106050C0A3802CC
:1003D0001581257F950175088106C0C0050109803A
:1003E000A101850319012AB700150126B70095015F
:1003F00075108100C0050C0901A101850419012AAD
:10040000A002150126A002950175108100C005010A
:100410000906A101050719E029E71500250195083E
:10042000750181029501750881010507190029FFF1
:10043000150026FF00950675088100050819012999
:1004400005950575019102950175039101C011246F
:100450001FBECFEFDAE0DEBFCDBF04B603FE27C07C
:100460008091670290916802A0916902B0916A023E
:100470008730904BA740B04BD1F410926702109296
:1004800068021092690210926A0214BE84B7877FD4
:1004900084BF0FB6F894A89580916000886180931E
:1004A0006000109260000FBEE0E0F8E3099511E0F3
:1004B000A0E0B1E0ECE8FBE402C005900D92AE399B
:1004C000B107D9F722E0AEE9B1E001C01D92A7362D
:1004D000B207E1F70E94821F0C94C4250C9400001F
:1004E00081E0089581E008950C94720208950C94BF
:1004F00076021F93CF93DF9300D000D01F92CDB729
:10050000DEB749835A836B833091BD0189819A811B
:10051000311114C0662359F0222349F00E94F717C5
:10052000182F682F89819A810E949E1703C00E940C
:10053000CA17182F69817A81812F04C00E94F7178A
:1005400069817A810F900F900F900F900F90DF913B
:10055000CF911F910C94030AFC01262F40815181F9
:100560006281738184810C947902CF93DF93EC01D3
:1005700060E00E94AC02BE01DF91CF910C94770243
:10058000FF920F931F93CF93DF93E82FF0E0E65C89
:10059000FD4FF490C82FC695C695C695D0E0FE01D4
:1005A000E653FD4F0491877010E0082E02C01595A8
:1005B00007950A94E2F701701127FE01E654FD4FFA
:1005C000C491D0E002C0D595C7958A95E2F7C17075
:1005D000DD270115110519F081EE0E947B0F209790
:1005E00019F086EE0E947B0F8F2D0E948D10CD2B6F
:1005F00019F086EE0E942510012B41F081EEDF916B
:10060000CF911F910F91FF900C942510DF91CF9106
:100610001F910F91FF900895EF92FF920F931F93F8
:10062000CF93DF93EC01162F0AE08881882309F429
:1006300055C0813009F043C08981813041F47E0189
:1006400082E0E80EF11C8A810E948D1009C0823080
:1006500049F47E01E2E0EE0EF11C8A810E947B0FDC
:10066000E7012FC0833041F47E01F2E0EF0EF11C70
:100670008A810E942510F4CF843011F0219621C088
:100680002A81229680E090E030E0205331092A3020
:10069000310558F4089FA001099F500D1124C9018C
:1006A000840F951F21962881EFCF009751F0EFE935
:1006B000FFE03197F1F700C000000197F6CF0E94EC
:1006C000C0022196812F882309F4AFCFEFE9FFE024
:1006D0003197F1F700C000008150F5CFDF91CF9145
:1006E0001F910F91FF90EF90089560E00C940C0320
:1006F0008F929F92AF92BF92CF92DF92EF92FF9232
:100700000F931F936B017C0181E090E0A0E0B0E0CB
:100710004C015D0104C0880C991CAA1CBB1C4A95A5
:10072000D2F7AC01BD0104C0440F551F661F771FEF
:100730002A95D2F7482959296A297B2904C0880FAC
:10074000991FAA1FBB1F0A95D2F78A019B010C2192
:100750001D212E213F21401751076207730739F4ED
:10076000BC01CD016C297D298E299F290AC0809565
:100770009095A095B095BC01CD016C217D218E2175
:100780009F211F910F91FF90EF90DF90CF90BF902E
:10079000AF909F908F9008950F93382F262F6091E0
:1007A0001402709115028091160290911702042F85
:1007B000432F0E9478030F910C94DA160E94061BB7
:1007C0000E942219811102C00E94C9190C94380696
:1007D0000C94340608950E9427130E94EA032FEF19
:1007E00084E39CE0215080409040E1F700C000008D
:1007F0000C94F31A0F931F93CF93DF93EC0161E0F6
:100800000E94AC028C01BE010E944108882379F14C
:10081000BE01C8010E947402882349F1BE01C801CB
:100820000E94380B882319F1BE01C8010E948A0B6F
:100830008823E9F0BE01C8010E94B50C8823B9F0F5
:100840008A81882369F001158CE5180731F00F3D86
:100850001C4531F40E94C9190AC00E94EB0307C06D
:10086000CE01DF91CF911F910F910C94700280E027
:10087000DF91CF911F910F91089508950C943D043D
:1008800081E008950C944004CF93C82F0E943E0449
:100890008C2F0E944204CF910895CF93DF930E9442
:1008A000030A0E944F05EC01811521E5920708F02B
:1008B00043C0811540E5940708F08AC0883E910541
:1008C00020F5803E910508F0E6C0883A910570F465
:1008D000853A910508F074C08130910509F4DBC0B8
:1008E00008F4D7C0049708F0D6C0D3C08F3B910559
:1008F00008F0CFC0C85AD0E0CC0FDD1FC25EDE4F7B
:100900000990D881C02DD464C6C0C11580E2D80733
:1009100058F4C11521E0D20708F0BDC0C03FD10591
:1009200008F4B7C0D065B7C0C11540E4D40708F4D7
:10093000B0C0DF70D06AAFC0C11585E5D807A0F49C
:10094000C11524E5D20708F08AC0C11543E5D407D4
:1009500008F06FC0C11582E5D80708F054C0DC2F3D
:10096000CC27C16FD06A97C0C11529E5D207A0F482
:10097000C11548E5D40708F077C0C11586E5D8074A
:1009800008F087C08C2F0E94E3058F71C82FD0E03C
:10099000DC2FCC27D0627FC0C1152AE5D20708F42E
:1009A00068C0CE0190568115904208F072C08D2F1C
:1009B0008F710E94E305DD27D0628F71D82B6BC049
:1009C000C55AD0E0C45BDE4FC881D0E0D06463C0BC
:1009D00074E0969587957A95E1F783709C2F9370D4
:1009E00021E030E002C0220F331F9A95E2F73C6805
:1009F000382BCF70C695C69580E2C89FE0011124C0
:100A0000C22BD32B48C0CE018370992721E030E060
:100A100002C0220F331F8A95E2F78C2F86958695A8
:100A200040E2849FC0011124E901C82BD92BDC6866
:100A300032C0CE018370992721E030E002C0220F3E
:100A4000331F8A95E2F78C2F8695869540E2849F26
:100A5000C0011124E901C82BD92BDA681CC0DC2F96
:100A6000CC27C46FD06A17C0DC2FCC27C06FD06AE8
:100A700012C08C2F8F700E94E30594E0D695C79525
:100A80009A95E1F7CF70D0E0DC2FCC27D069C82B46
:100A900002C0C0E0D0E0CE01DF91CF91089582384E
:100AA000910569F1B0F48133910509F46DC048F402
:100AB0008932910509F463C08A32910509F469C04D
:100AC00008958533910509F455C089339105B9F02E
:100AD0000895833E910569F138F4803E9105B1F0A7
:100AE000823E910509F10895863E9105A9F1873E60
:100AF0009105B9F1843E910509F064C023C02091AD
:100B0000580220FD4FC021FD4DC00895809158022C
:100B100080FD44C08091590280FF44C080915802FA
:100B200084FD42C083EE4DC08091580282FF38C0E0
:100B3000F5CF8091580282FD33C08091590280FD2B
:100B400031C0ECCF8091590281FF32C080915802B0
:100B500084FD2AC087EE35C08091580283FF26C0ED
:100B6000F5CF8091580283FD21C08091590281FD0B
:100B70001FC0ECCF8091580285FD1CC01DC0809124
:100B8000580285FD19C016C08091580286FD16C016
:100B900017C08091580286FD13C010C089E311C0B0
:100BA00082EE0FC080EE0DC080E00BC086EE09C063
:100BB00084EE07C089E205C085E303C08AE201C074
:100BC00081E390E008959091580292FF0DC0282F84
:100BD0002871283019F4877F846006C0282F24717B
:100BE000243011F48B7F886093FF0DC0282F28716B
:100BF000283119F4877E846106C0282F247124319E
:100C000011F48B7E88612091590220FF0DC0382F8E
:100C10003871383019F4877F816006C0382F317100
:100C2000313011F48E7F886021FF0DC0282F28718C
:100C3000283119F4877E816106C0282F2171213166
:100C400011F48E7E886194FD877E0895E82FF0E090
:100C5000E65BFD4F80810895089580EA8A95F1F75B
:100C6000089508950C9431060C9432060C943106C4
:100C70000C943606F894E82FE295EF70F0E031A17D
:100C8000282F2F7081E090E001C0880F2A95EAF7A5
:100C9000982F9095932391A392A1892B82A3789466
:100CA000089508950F931F93CF93DF930E949D079C
:100CB0008091000180910001811102C094E001C087
:100CC00090E09093530284E0891B80935202CFE41A
:100CD000D1E005E511E089910E943A060C171D0745
:100CE000D1F786EF0E943A0687EF0E943A0681E329
:100CF0000E943A0683E30E943A06E2E4F2E0AAE4A4
:100D0000B2E011921D9282E0EA34F807D1F784E054
:100D10000E9447070E94DE03DF91CF911F910F9140
:100D20000C94A7070E947E078823F1F0809152025D
:100D300090E0865B9D4F0E94BA07811111C080919F
:100D40009E018F5F80939E01863060F0E091520299
:100D5000F0E0E65BFD4F108211821282138202C026
:100D600010929E010C94E8038091530290E0865B00
:100D70009D4F0E94D5070C9451068F929F92AF927F
:100D8000BF92CF92DF92EF92FF920F931F93CF9378
:100D9000DF930FE411E0C0E0D0E0912CEE24E39467
:100DA000F12C96E4A92E92E0B92E6801D8018C911D
:100DB000F894E82FE295EF70F0E021A18F70A70181
:100DC00002C0440F551F8A95E2F7CA01922F982B53
:100DD00091A392A18095892382A378940E942D06E5
:100DE000C7010C2E01C0880F0A94EAF7582F282F4C
:100DF0002095E2E4F2E065E571E0812C4081DB01C1
:100E00003D91BD01832F82958F7090E0DC0190961B
:100E10008C9190E03F7002C0959587953A95E2F7E6
:100E200080FD03C0842F852B02C0842F82234817A6
:100E300019F08083882483943196AE16BF06F1F6AC
:100E40000F5F1F4FF60180810E943A069828219675
:100E5000C630D10509F0A9CF6091530270E0665BFE
:100E60007D4F292D44E082E492E00E9448070E94D1
:100E70009206892DDF91CF911F910F91FF90EF90F6
:100E8000DF90CF90BF90AF909F908F90089508957E
:100E9000FF920F931F93CF93DF938C01F62ED72FE2
:100EA000C42F222349F081E08093A1010E94A61A59
:100EB0009093A00180939F018091A1018823C1F0AC
:100EC00080919F019091A0010E94BE1A069780F028
:100ED000EF2DFD2FD8014C2F50E0CD01801B910B41
:100EE000841795071CF48D918193F7CF1092A1017F
:100EF000DF91CF911F910F91FF9008958091A201F2
:100F0000811112C08091D80080618093D8008AE15D
:100F10008A95F1F700C08091D90080FD02C082E07F
:100F200001C081E08093A20181E09091A201913003
:100F300009F080E008950C947E070E949B0780933F
:100F400000010E947E0781110C94AE0708950E9453
:100F50007E07811102C00C94B407089561E070E02F
:100F600081E091E00C94430D61E070E081E091E05C
:100F70000C944A0DCF93DF93D82FC92F0E94E20D16
:100F8000892B79F4ED2FFC2F80E090E0DC01AC554B
:100F9000BE4F2C912193019684309105B9F781E0E1
:100FA00001C080E0DF91CF91089520E030E0FC01A6
:100FB0004191CF01F901EC55FE4F40832F5F3F4F28
:100FC00024303105A1F7089582E290E00E94822545
:100FD000813281F483E290E00E948225833051F4D3
:100FE00084E290E00E94822591E0883209F090E04E
:100FF000892F01C080E081700895CF93C82F81119F
:1010000002C06FEF01C061E282E290E00E94902591
:10101000C11102C06FEF01C063E083E290E00E9463
:101020009025C11102C06FEF01C068E284E290E038
:10103000CF910C94902580E00E94FD070C941C1920
:10104000089585E290E00E948225682F70E080E09C
:1010500090E0089585E290E00C9490250E9420088D
:101060000E94E40781110CC060E070E0CB010E9497
:101070002A080E947E090E945D0A81E00C94FD0707
:101080000895CF93FB01C281CC23E9F09C0122514A
:101090003F452031310520F482510E946D0A0CC079
:1010A0008031FFE59F0751F481E00E94001743E083
:1010B00062E081E00E94CC03C0E018C081319F450E
:1010C000A9F482E0F2CF8031EFE59E0711F481E0D0
:1010D00004C081319F4549F482E00E94211743E01A
:1010E00062E081E00E94CC0301C0C1E08C2FCF916F
:1010F00008952FEFFC0120830895EF92FF920F9344
:101100001F93CF93DF93EC01162FE8818E2F90E091
:10111000FC013197E331F10508F0A3C0EA5AFF4F13
:101120000C946125198289E04DC08981823039F0A3
:10113000833061F0813029F50E94B21A02C00E940A
:1011400021089A838B837C836D838DC07E0122E08E
:10115000E20EF11C00E0802F0E942606F701819329
:101160007F010F5F0830B9F77EC08981823049F472
:101170006A817B818C819D810E9467250E942A085B
:1011800072C0612FCE010E9479086DC04B816A81C7
:1011900089810E9450099C838D8365C02C813D818B
:1011A0003227232732274B816A8189810E9469096E
:1011B0005AC00E947E0957C00E94100A24C00E9493
:1011C000120A99838A834FC06B8170E089819A816A
:1011D000AE014C5F5F4F9827892798270E94150A18
:1011E00042C06B8170E089819A81AE014C5F5F4F94
:1011F0009827892798270E943A0A35C00E945D0ADD
:1012000032C00E943D0989832EC06B8170E08981C4
:101210009A81AE014C5F5F4F9827892798270E94DB
:10122000BD0921C06B8170E089819A81AE014C5F5C
:101230005F4F9827892798270E94E10914C00E94D0
:101240001B0811C0CE010E94721EFFEF21EE84E048
:10125000F15020408040E1F700C000000E94F31AE6
:1012600002C08FEF8883612FCE01DF91CF911F9154
:101270000F91FF90EF900C94721E84E0089550E05F
:10128000440F551F2CE0629F400D511D11249A01FF
:1012900060E6869F200D311D1124C90186960895B0
:1012A0000F931F93CF93DF930E943F098C010E94FD
:1012B0008225C82FD0E0DC2FCC27C80101960E94E0
:1012C00082259E01282BC901DF91CF911F910F919B
:1012D00008950F931F93CF93DF93122F032F0E9434
:1012E0003F09EC01602F0E949025612FCE010196ED
:1012F000DF91CF911F910F910C949025AF92BF92E7
:10130000CF92DF92EF92FF920F931F93CF93DF93D1
:10131000A12CE12CF12CB12C00E010E0C0E0D0E0D9
:101320006701C00ED11EFE01EE0FFF1FEC0DFD1D6B
:10133000E65EFE4F259134914C2F6B2D8A2D0E9435
:1013400069092196C630D10571F7045F1F4FB39428
:1013500088E0B812E3CF80E6E80EF11CA39484E0A5
:10136000A812D9CFDF91CF911F910F91FF90EF90ED
:10137000DF90CF90BF90AF900895EF92FF920F93C0
:101380001F93CF93DF93EA017A01E60EF71E8C01DB
:10139000C8018696CE15DF0569F0003821E01207F6
:1013A00020F40E948225888301C0188221960F5F55
:1013B0001F4FEECFDF91CF911F910F91FF90EF90D4
:1013C0000895EF92FF920F931F93CF93DF93EA015B
:1013D0007A01E60EF71E8C01C8018696CE15DF0550
:1013E00059F0003821E0120718F468810E94902516
:1013F00021960F5F1F4FF0CFDF91CF911F910F917B
:10140000FF90EF900895462F843038F4783028F418
:10141000663018F4672F0C94500980E090E008952E
:1014200080E108958AE592E00895EF92FF920F938C
:101430001F93CF93DF93EA017A01E60EF71E8C012A
:10144000C8018A559E4FCE15DF0569F00A3522E0A6
:10145000120720F40E948225888301C018822196F9
:101460000F5F1F4FEDCFDF91CF911F910F91FF9035
:10147000EF900895EF92FF920F931F93CF93DF9316
:10148000EA017A01E60EF71E8C01C8018A559E4FCB
:10149000CE15DF0559F00A3522E0120718F46881ED
:1014A0000E94902521960F5F1F4FEFCFDF91CF91C4
:1014B0001F910F91FF90EF900895CF93DF93C6EAAD
:1014C000D1E060E0CE010E9490252196C11584E014
:1014D000D807B9F7DF91CF910895DF92EF92FF928D
:1014E0000F931F93CF93DF9300D000D0CDB7DEB71B
:1014F000F82E8FE08F15E8F18FEF93E00E948225A0
:10150000811137C006EA11E0FF2069F0011584E07F
:10151000180779F1C8010E948225811101C0FA944F
:101520000F5F1F4FF1CF19821A821B821C82DD24AC
:10153000D39478018FEFE81AF80AC8010E94822537
:1015400089831A828823A9F09FEF980F933058F46B
:101550008A83D9820E5F1F4FC7010E9482258B8329
:10156000882339F07801CE0101960E947503870126
:10157000E0CF0F900F900F900F90DF91CF911F91C0
:101580000F91FF90EF90DF9008950F931F93CF93EB
:10159000DF93C42FD22FFC0182818823C9F04093AE
:1015A000AA010E94A61A9093A9018093A80180E243
:1015B0008C0F883008F057C0C77081E001C0880FD9
:1015C000CA95EAF7DF91CF911F910F910C94A0106B
:1015D0008091AA01481330C08091A8019091A9017F
:1015E0000E94BE1A883C910538F510E21D0FCD17F8
:1015F000B9F080E28C0F883040F4C77081E001C000
:10160000880FCA95EAF70E94A710183028F581E0E4
:101610009D2F977001C0880F9A95EAF70E94A0103D
:10162000802F0E948D101830F0F4D77081E001C037
:10163000880FDA95EAF70AC080E28C0F883098F4B8
:10164000C77081E001C0880FCA95EAF7DF91CF919A
:101650001F910F910C94A710802FDF91CF911F91B4
:101660000F910C948D10DF91CF911F910F910895E0
:101670000F939C01CB01243F4CE5340731F188F4F2
:10168000293DFCE53F07D9F02A3D4CE5340779F1C7
:10169000283D3C45A9F506E221EE41EE68ED7CE5EA
:1016A0002BC0263FFCE53F07E1F0A8F0273F3C4573
:1016B00039F507E225EE46EE67EF7CE51DC007E24F
:1016C00025EE45EE69ED7CE517C006E221EE40EE21
:1016D00064EF7CE511C007E225EE44EE65EF7CE5A2
:1016E0000BC006E221EE42EE66EF7CE505C008E2A3
:1016F00021E045EE6AED7CE50E94C50A80E008C065
:10170000FC018281882319F01092AA0101C081E0B6
:101710000F910895CF93DF93EC01FB018281882321
:1017200009F41FC1C230FCE5DF0708F41BC1C63154
:101730009CE5D90738F09E012B5F3C4529303105E7
:1017400008F010C10E9435199093590280935802F5
:10175000C031ECE5DE0709F4C3C008F041C0C83071
:101760008CE5D80709F49AC0F0F4C430ECE5DE0744
:1017700009F487C068F4C2308CE5D80709F477C053
:10178000C330DC4509F0E3C080915802826076C026
:10179000C630ECE5DE0709F46EC008F07BC080912E
:1017A000580288606BC0CC308CE5D80709F485C03E
:1017B00068F4CA30ECE5DE0709F474C008F079C0BB
:1017C0000E94271380915802806858C0CE308CE563
:1017D000D80709F476C008F07FC0809158028BC00A
:1017E000CC3FECE5DE0709F44FC018F5C3318CE5BA
:1017F000D80709F47DC078F4C131ECE5DE0709F4BF
:1018000073C0C231DC4509F0A2C00E942713809149
:1018100058028F7733C0C5318CE5D80709F472C000
:1018200008F486C0CB3FDC4509F091C08091590295
:101830003EC0C115FDE5DF0709F45FC058F4CE3F97
:101840009CE5D90709F444C008F43FC080915902CF
:1018500082602DC0C230FDE5DF0709F475C008F4D1
:101860005DC0C330DD4509F072C080E06EC080917C
:101870005802816003C080915802806180935802B1
:1018800066C08091580211C0809159028260809395
:1018900059025DC0809158028062F0CF8091580259
:1018A0008064ECCF8091580288608460E7CF8160CB
:1018B000EECF809158028E7FE1CF809158028D7FCC
:1018C000DDCF80915802877FD9CF8091590218C00F
:1018D000809159028D7FDBCF809158028F7ECECFD1
:1018E000809158028F7DCACF809158028F7BC6CFDE
:1018F00080915802877F8B7FC1CF809159028D7F65
:101900008E7FC5CF8091580282FB222720F991E07B
:10191000922790FB82F990FB83F9B0CF8091590216
:10192000982F909591708E7F892B90FB81F9AFCF86
:101930000E9427138091580287FB222720F991E00B
:10194000922790FB87F99ACF81E00E94CB19809172
:101950005802909159020E9446190E94271380E074
:1019600001C081E0DF91CF910895CF93DF9386315D
:101970009C4541F5EB010E947818982F8A812091AF
:10198000090130910A01882379F09A7A81E009F4FB
:1019900080E08093AB01911102C069E201C065E370
:1019A000C9010E94121A0AC08091AB01811102C0C4
:1019B00069E201C065E3C9010E94141A0E94B918C6
:1019C00080E001C081E0DF91CF9108958EE14A9BD4
:1019D00002C08150E1F74A9BFECF08955A9880E2F9
:1019E0008A95F1F75A9A0895FC012AE02A95F1F7B1
:1019F00028E090E080E031E040E14A95F1F7880F7F
:101A00004A9B02C08160932700C0000040E14A95D4
:101A1000F1F7215089F720E12A95F1F729B100C0AB
:101A2000000030E13A95F1F722FB222720F99227B6
:101A30002081920F90830895EF92FF920F931F934E
:101A4000CF93DF931F92CDB7DEB719828C017C0153
:101A5000E60EF11C0E151F0551F00E94E60CCE019A
:101A600001960E94F40CF80181938F01F3CF81E07D
:101A70009981911180E00F90DF91CF911F910F918B
:101A8000FF90EF9008959093AD018093AC01529A2E
:101A90005A9A08959093AD018093AC0152985A9A46
:101AA000EA9AE9E6F0E080818F7C808308956150B6
:101AB00091E001C0990F6A95EAF720E031E099239F
:101AC00061F0492F482319F05A9A232701C05A98E8
:101AD00040E24A95F1F79695F2CF222311F05A9AF7
:101AE00001C05A9880E28A95F1F75A980895FF92BA
:101AF0000F931F93CF93DF93EC018C01060F111D01
:101B0000C017D10741F0F9900E94EE0C68E08F2DCC
:101B10000E94570DF5CFDF91CF911F910F91FF904C
:101B200008951F920F920FB60F9211242F933F9397
:101B30004F935F936F937F938F939F93AF93BF93D5
:101B4000CF93DF93EF93FF935A98529AC091AC01D1
:101B5000D091AD016D81662321F08E819F810E941D
:101B6000770D0E94EE0C80E18A95F1F75A98529811
:101B70005A9A80E18A95F1F76A81662351F08B8148
:101B80009C810E941C0DE881F981811104C082E0D2
:101B900003C0E881F98188E080830E94E60CFF9110
:101BA000EF91DF91CF91BF91AF919F918F917F91F5
:101BB0006F915F914F913F912F910F900FBE0F90BA
:101BC0001F901895CF93DF93C091AC01D091AD01D8
:101BD000F894529A5A9885E08A95F1F70000529845
:101BE0005A9A80E28A95F1F74A9B0AC0529A5A9A09
:101BF000E881F98181E08083789481E090E02CC0D5
:101C00006D81662381F08E819F810E941C0D811160
:101C10000AC0529A5A9AE881F98182E080837894C6
:101C200082E090E019C00E94E60C80E28A95F1F70C
:101C30005A98529A80E18A95F1F76A81662321F0D9
:101C40008B819C810E94770D0E94EE0CE881F981C6
:101C50001082789480E090E0DF91CF910895909386
:101C6000B3018093B2010895E091B201F091B30104
:101C7000309721F00190F081E02D099480E00895E3
:101C8000E091B201F091B301309721F00280F3812D
:101C9000E02D09940895E091B201F091B3013097DD
:101CA00039F022E0DC012C930480F581E02D0994C9
:101CB00008952091B0013091B1012817390771F0D2
:101CC0009093B1018093B001E091B201F091B30122
:101CD000309721F00680F781E02D09940895209136
:101CE000AE013091AF012817390771F09093AF0121
:101CF0008093AE01E091B201F091B301309721F0F1
:101D00000084F185E02D0994089585B7806885BF2A
:101D100085B7806885BF08950C947E0708950C945C
:101D20008E0E0C948E0E0C94910E0C948E0E0C94C0
:101D3000950E0C948E0E0E94850E0E94990E0C94A6
:101D4000970E0E949D1A0E9452060E942E080E9421
:101D50001A1B0C94930EAF92BF92CF92DF92EF9228
:101D6000FF920F931F93CF93DF93CDB7DEB72A97E0
:101D70000FB6F894DEBF0FBECDBF0E948F0E0E943B
:101D80008E0E0E94BD060E948C0E811111C08FEF35
:101D900089838A831B820E94A61A8160782F9D8383
:101DA0008C8349815A816B818D810E94470F40C08D
:101DB00085EBA82E81E0B82E00E010E0C02E802F29
:101DC0000E942606E82EF501D1905F01D82631F455
:101DD0000F5F1F4F0830110589F7D9CF8091290275
:101DE00081FD0E942C0680E0FF24F3949D2D9F210D
:101DF000D1F08E83CF82EF2081E009F480E08887E4
:101E00000E94A61A8160782F9A8789874E815F8108
:101E100068858A850E94470FF801EB54FE4F808148
:101E2000F826F08205C08F5FFF0C8630F9F6D0CF20
:101E30000E94C91C0E94340E9091B4018917B1F020
:101E40000E94340E8093B4012A960FB6F894DEBF38
:101E50000FBECDBFDF91CF911F910F91FF90EF90FB
:101E6000DF90CF90BF90AF900C9444042A960FB6A9
:101E7000F894DEBF0FBECDBFDF91CF911F910F91C0
:101E8000FF90EF90DF90CF90BF90AF900895CF93E9
:101E9000DF93CDB7DEB72B970FB6F894DEBF0FBE3A
:101EA000CDBF4F83588769877A878B87DE0111966C
:101EB00086E0FD0111928A95E9F785E0FE013796EB
:101EC00001900D928A95E1F749815A816B817C815D
:101ED0008D819E810E94E0152B960FB6F894DEBF8F
:101EE0000FBECDBFDF91CF910895FC01808191811C
:101EF0000E9439180895CF93882309F4A4C0C82FED
:101F00008238C1F40E94340E81FD9DC069E3809146
:101F1000090190910A010E94121A0E94B9182FEF2C
:101F200081EE94E0215080409040E1F700C0000035
:101F300069E319C0833801F50E94340E80FD83C027
:101F400063E58091090190910A010E94121A0E9492
:101F5000B9182FEF81EE94E0215080409040E1F7D6
:101F600000C0000063E58091090190910A010E9480
:101F7000141ACF910C94B9188438C1F40E94340E0D
:101F800082FD61C067E48091090190910A010E947D
:101F9000121A0E94B9182FEF81EE94E02150804070
:101FA0009040E1F700C0000067E4DDCF8CEF8C0FBC
:101FB000813AD0F46C2F8091090190910A010E941E
:101FC000DC19882349F06C2F8091090190910A0156
:101FD0000E94141A0E94B9186C2F809109019091E7
:101FE0000A010E94121AC5CF80E28C0F883048F493
:101FF000C77081E001C0880FCA95EAF70E947B187C
:10200000B8CFEBE5EC0FE33040F4F0E0E557FE4FDE
:10201000808190E0CF910C94590EE8E5EC0FE73108
:1020200050F4F0E0EE0FFF1FE35AFE4F80819181E4
:10203000CF910C946F0EC03F30F08C2F0E94BE1BCE
:10204000CF910C94AB1CCF910895882309F464C000
:10205000823879F40E94340E81FF5EC069E380917A
:10206000090190910A010E94121A0E94B91869E3AD
:1020700010C08338B1F40E94340E80FF4DC063E578
:102080008091090190910A010E94121A0E94B918C8
:1020900063E58091090190910A010E94141A0C9441
:1020A000B918843879F40E94340E82FF35C067E491
:1020B0008091090190910A010E94121A0E94B91898
:1020C00067E4E7CF9CEF980F913A10F4682FE1CFC7
:1020D00090E2980F983050F4877091E001C0990F0A
:1020E0008A95EAF7892F0E948118D9CF9BE5980F2E
:1020F000933020F480E090E00C94590E98E5980F0E
:10210000973120F480E090E00C946F0E803F20F037
:102110000E94261C0C94AB1C0895CF93C82F0E94DC
:102120007B0FC93349F42FEF87EE93E021508040B5
:102130009040E1F700C000008C2FCF910C94251047
:10214000882321F00E947B180C94B91808958823E5
:1021500021F00E9481180C94B9180895CF92DF9253
:10216000EF92FF920F931F93CF93DF937C01D62FB3
:10217000C72FFC01058102950F70128111110E9479
:1021800098180E947118882399F0112389F08C2FD8
:10219000807F803421F080E28D0F883048F082E02B
:1021A0000E9403190E94711891E0D82ED92601C00F
:1021B000D12CCC2EC2948FE0C8228C2D90E08C3094
:1021C000910508F0B6C1FC01E759FF4F0C94612559
:1021D0008C2F807FCF70882311F0C295C07F112390
:1021E00099F0CC2309F491C180E28D0F883010F072
:1021F000D11104C08C2F0E947B1803C08C2F0E9429
:102200008B180E94B91881C18D2F0E942510CC23F4
:1022100009F48FC180E28D0F883010F0D11104C015
:102220008C2F0E94811803C08C2F0E9491180E944D
:10223000B9187FC18C2F807FCF70803211F0C2958A
:10224000C07FDD2319F0D130C9F022C0112371F015
:10225000002341F0013031F40E949E188C2B0E9423
:10226000A61867C10E949E188C2B1DC0002319F070
:10227000013009F45EC10E94AF1825C0112321F07E
:10228000063008F056C10EC0053008F052C11BC020
:10229000112361F0002331F0F701858180FF35C102
:1022A0008F7085838C2F0E94A01043C1002359F0AA
:1022B000D93309F03BC1FFEF07EE13E0F1500040C6
:1022C0001040E1F731C18C2F0E94A71032C18C2F32
:1022D00086958695837019F0813061F02AC11123AB
:1022E00021F08D2F9C2F937002C080E090E00E941F
:1022F000590E27C1112321F08D2F9C2F937002C0FE
:1023000080E090E00E946F0E1CC18D2F112319F008
:102310000E94BE1B02C00E94261C0E94AB1C11C161
:102320008C2F837009F047C0111107C12D2F229502
:1023300026952770220F220F6D2F6F70862F90E049
:10234000A0E0B0E0022E04C0880F991FAA1FBB1F97
:102350000A94D2F7D4FF10C04FE050E060E070E084
:1023600004C0440F551F661F771F2A95D2F740956A
:1023700050956095709503C040E050E0BA01C69555
:10238000C695C3708A019B01082B192B2A2B3B2B66
:10239000C901B801C23049F058F4C13019F00E94A7
:1023A000B416CBC00E94A216C8C00E94C616C5C0F3
:1023B0000E94A016C2C0112319F08C2F817001C099
:1023C0008695882309F4B9C02D2F2295269527706C
:1023D000220F220F6D2F6F70862F90E0A0E0B0E0EB
:1023E000022E04C0880F991FAA1FBB1F0A94D2F7A0
:1023F000D4FF10C04FE050E060E070E004C0440F34
:10240000551F661F771F2A95D2F740955095609506
:10241000709503C040E050E0BA01C695C695C37000
:102420008A019B01082B192B2A2B3B2BC901B801D0
:10243000C23049F058F4C13019F00E9479177DC0BC
:102440000E9467177AC00E948B1777C00E94DA1625
:1024500074C0CF70112339F08C2F0E9400178D2F7C
:102460000E94A0106AC08D2F0E94A7108C2F0E947E
:10247000211763C0D23F01F128F4D03F41F0D13F92
:10248000A1F03FC0D33FF9F0D43F39F13AC0112356
:1024900041F0053008F04DC08C2F8F710E94461717
:1024A00048C0063008F045C0F7CF112339F08C2F13
:1024B0008F710E9400173DC01123C9F38C2F8F71BB
:1024C0000E94211736C0112329F08C2F8F710E9492
:1024D000EB162FC00E94E6162CC0112349F0CF71D5
:1024E0008C2F0E94001763E08C2F0E94EE1821C0F1
:1024F00081E00E9403190230E0F082E00E9403199B
:1025000018C0112331F0002391F28D2F0E947B0F10
:1025100010C0002399F2D93349F41FEF27EE33E0BE
:10252000115020403040E1F700C000008D2F0E9484
:10253000251088EF8C0D843020F40E94340E0E9408
:102540004404DD20C9F00E946D1880FD15C0F7011C
:1025500012820E9467180E940017C7010E94DD12B4
:102560000E946718DF91CF911F910F91FF90EF901C
:10257000DF90CF900C942117DF91CF911F910F9195
:10258000FF90EF90DF90CF9008950F931F93CF931C
:10259000DF93EC01688179818A810E9444188C0163
:1025A0000E949D170E948E16B801CE010E94AE10A7
:1025B000DF91CF911F910F910895CF93DF93EC019D
:1025C000988189812B813C81232B31F08F3F31F41D
:1025D00081E09F3F19F403C081E001C080E080FDED
:1025E00019C0CE010E94FA0381110CC00E9471181B
:1025F000882381F08A81882369F082E0DF91CF917E
:102600000C940319CE010E94C512CE01DF91CF9127
:102610000C94B502DF91CF9108950E9498180E9402
:102620009B180E94B9180E94DC1D0E94AB1C80E020
:1026300090E00E94590E80E090E00C946F0E809123
:10264000090190910A010E94161A0C940D130E9420
:1026500088180C941F13E92FE295EF704E2F50E06D
:10266000FA013297EE30F105B0F4EB58FF4F0C94BD
:102670006125803F91F018F4883E68F40EC0843FD5
:1026800051F40BC0883E48F0813F29F406C093FB0B
:10269000882780F9089580E0089581E008950E94D8
:1026A00039180E942B130895CF93DF9300D000D0E8
:1026B0001F92CDB7DEB70F900F900F900F900F9035
:1026C000DF91CF910895CF93DF9300D000D000D059
:1026D000CDB7DEB726960FB6F894DEBF0FBECDBFDE
:1026E000DF91CF9108951F93CF93DF93C091BE01E7
:1026F00016E08091BF01C81799F0D0E01C9FF0014F
:102700001D9FF00D1124E054FE4F408151816281E4
:102710007381848195810E9463132196C770E9CFEC
:10272000DF91CF911F9108954091F0015091F101F7
:102730006091F2017091F3018091F4019091F501A3
:102740000C9463130F931F93CF93DF938091F50144
:1027500082958F7009F05DC08091F201882309F4A1
:1027600058C08091BE011091BF016091F00170913D
:10277000F101C091F301D091F40191E06F3F09F0B4
:1027800090E0292F06E0811709F443C0209721F03B
:102790007F3F21F030E003C031E001C0322F90E0F4
:1027A00030FD34C0089FF001099FF00D1124DF01B6
:1027B000A054BE4F11963C911197371327C03C91FE
:1027C000361324C012963C91129731111FC01396F4
:1027D0004D915C9114974C1B5D0B483C5105B0F436
:1027E0008091F5018F7080618093F501EB53FE4F6E
:1027F00080818F708061808380EF91E00E94DD1284
:10280000DF91CF911F910F910C94731301968770F4
:10281000BACFDF91CF911F910F9108959F92AF9200
:10282000BF92CF92DF92EF92FF920F931F93CF93BD
:10283000DF93CDB7DEB761970FB6F894DEBF0FBE5A
:10284000CDBF8C0185E0F801DE011D9601900D924F
:102850008A95E1F7F80140815181E2809091F00181
:102860006091F1012091F3013091F40121153105BE
:1028700031F06F3F31F481E09F3F19F403C081E0F4
:1028800001C080E0F82FF1709F2E80FD46C1F80155
:10289000A380B48080EFC82E81E0D82EF090F201A2
:1028A000F501E21BF30BFF2009F4DFC08091F50175
:1028B000E83CF10508F09BC0282F207F09F052C0AA
:1028C000561313C0491311C0FE2CE1100EC08F70B7
:1028D00080618093F5010E949413C6010E94DD126D
:1028E0008091F501F801858358C1AB2831F05F3F35
:1028F00031F481E04F3F19F403C081E001C080E072
:1029000080FD03C081E08E2502C080E090E0F82FBA
:10291000F170FF2E80FF1CC08091BE012091BF018D
:1029200036E0821709F417C190E0389FF001399F13
:10293000F00D1124E054FE4F6181561306C06081F2
:10294000461303C06281E61203C001968770E9CF87
:10295000FE2CEE2009F421C18091F5018160809365
:10296000F5015AC0561306C0491304C0E11002C055
:10297000F8019FC04D875E878D859E850E944F130D
:10298000882379F1EE2069F12091F501822F82955B
:102990008F7090E0029774F08091F0019091F101B6
:1029A00098878F831986BB86AA862C87CE010796C7
:1029B0000E94DD1286E0F801A0EFB1E001900D92D7
:1029C0008A95E1F70E94A2130E9494130DC0561736
:1029D00029F14D875E878D859E850E944F13811159
:1029E0002CC0C8010E94DD12FF24F394D6C0282F0A
:1029F000207F69F77A2DB98AA88A6E2D89890E946D
:102A0000541380EF91E00E94DD1286E0F6011192EE
:102A10008A95E9F70E949413F12CBFC04913D9CFCE
:102A2000E110D7CFF8018583C8010E94DD1286E04E
:102A3000F60111928A95E9F7B0C0EE2091F220914B
:102A4000F501822F82958F7090E002970CF4B2CF3F
:102A50008091F0019091F1019A8389831B82BD825C
:102A6000AC822E83CE010196A3CFE83CF10508F09D
:102A700047C0FE2CEE2009F4B4CF561330C04913E2
:102A80002EC02091F50120FD21C0822F82958F70EC
:102A9000482F50E041155105C9F0F80125834F300A
:102AA000510541F08F5F982F9295907F822F8F7004
:102AB000892B8583C8010E94DD1286E0F801A0EF12
:102AC000B1E001900D928A95E1F742C086E0F801ED
:102AD000A0EFB1E001900D928A95E1F75EC04D87BD
:102AE0005E878D859E850E944F13811163CF8091F3
:102AF000F50181608093F501C8010E94DD124DC08F
:102B00007A2DB98AA88A6E2D89890E94541386E08D
:102B1000F60111928A95E9F71BC0EE2009F461CF06
:102B20004D875E878D859E850E944F13F82E8823E2
:102B300009F457CF86E0F801A0EFB1E001900D92C3
:102B40008A95E1F780EF91E00E94750F0E94A21331
:102B50000E94941322C04D875E878D859E850E94BA
:102B60003918292F22952F70223028F49F7039F0C0
:102B7000811105C00BC0243028F49F7049F4805E99
:102B8000883020F0C8010E94DD129F2CF92C05C06E
:102B9000F8019581907F99F7F9CF8F2D61960FB647
:102BA000F894DEBF0FBECDBFDF91CF911F910F9183
:102BB000FF90EF90DF90CF90BF90AF909F900895DF
:102BC0001F93CF93DF93CDB7DEB72C970FB6F89452
:102BD000DEBF0FBECDBF4F83588769877A878B874B
:102BE0009C87CE0107960E940E148823D1F09F8106
:102BF00088852A853B85232B31F08F3F31F481E096
:102C00009F3F19F403C081E001C080E080FD47C010
:102C10004F81588569857A858B859C850E946313D1
:102C20003EC086E0FE013796DE01119601900D92BE
:102C30008A95E1F7FF81E8856A857B8561157105D5
:102C400031F0EF3F31F481E0FF3F19F403C081E040
:102C500001C080E080FD23C02091BF0130E0C901A8
:102C60000196877099274091BE0150E0841795071F
:102C7000F1F1F983EA837D836C8396E0929FD00122
:102C8000939FB00D1124A054BE4FFE0131960190C8
:102C90000D929A95E1F78093BF010E94731316E09D
:102CA0008091BE019091BF01891771F1189FC001F9
:102CB000112480549E4F0E940E14882329F1E09124
:102CC000BE011E9FF0011124E054FE4F408151814E
:102CD00062817381848195810E9463138091BE011A
:102CE00090E00196877099278093BE01D9CF0E940A
:102CF00027131092BF011092BE01E0EFF1E086E0D1
:102D0000DF011D928A95E9F72C960FB6F894DEBF85
:102D10000FBECDBFDF91CF911F9108950895089503
:102D20000C948F160C9490160E94921660931802C1
:102D30007093190280931A0290931B020C940D1346
:102D40000C9494160F931F9300911802109119027E
:102D500020911A0230911B02602B712B822B932B36
:102D60001F910F910C9494160F931F9300911802CA
:102D70001091190220911A0230911B0260237123D5
:102D8000822393231F910F910C9494160F931F93FA
:102D9000009118021091190220911A0230911B0221
:102DA00060277127822793271F910F910C94941607
:102DB0000C948F160E94D81660931402709315021B
:102DC00080931602909317020C940D1360E070E04C
:102DD000CB010C94DA160F931F9341E050E060E0B2
:102DE00070E08A019B0104C0000F111F221F331FD6
:102DF0008A95D2F7C901B8011F910F910C94DA1688
:102E00000F931F9341E050E060E070E004C0440F76
:102E1000551F661F771F8A95D2F7809114029091F3
:102E20001502A0911602B09117028A019B01082B8E
:102E3000192B2A2B3B2BC901B8011F910F910C9420
:102E4000DA160F931F9341E050E060E070E004C099
:102E5000440F551F661F771F8A95D2F740955095EE
:102E6000609570958091140290911502A0911602C0
:102E7000B09117028A019B01082319232A233B23BF
:102E8000C901B8011F910F910C94DA160F931F938B
:102E900041E050E060E070E004C0440F551F661F41
:102EA000771F8A95D2F78091140290911502A09114
:102EB0001602B09117028A019B01082719272A27B9
:102EC0003B27C901B8011F910F910C94DA160F939B
:102ED0001F93009114021091150220911602309157
:102EE0001702602B712B822B932B1F910F910C9447
:102EF000DA160F931F93009114021091150220917E
:102F000016023091170260237123822393231F91AD
:102F10000F910C94DA160F931F93009114021091E5
:102F2000150220911602309117026027712782271F
:102F300093271F910F910C94DA160895292F220FD1
:102F4000920F990F890FE82FE695E695E695877021
:102F500051E001C0550F8A95EAF785E0E89FF0013E
:102F60001124EA50FE4F20E030E070E04081CB01B8
:102F7000022E02C0969587950A94E2F7817081959A
:102F800084278523842781932F5F3F4F2530310588
:102F900069F70895292F220F920F990F890F682F33
:102FA000669566956695982F977085E0689FB00145
:102FB000112440E050E080E0FB01E40FF51FEA50EF
:102FC000FE4F208130E0092E02C0369527950A94E5
:102FD000E2F721703327042E01C0220F0A94EAF78A
:102FE000822B4F5F5F4F4530510531F70895BF92F7
:102FF000CF92DF92EF92FF920F931F93CF93DF93C5
:103000008C01C0901402D0901502E0901602F0904E
:1030100017028091180290911902A0911A02B091A2
:103020001B02C82AD92AEA2AFB2ACFE1D0E0D7011D
:10303000C6010C2E04C0B695A795979587950A945E
:10304000D2F780FD04C0219790F7B12C07C0BC2EA9
:10305000B8018C2F0E944D040197A9F38B2DDF91AD
:10306000CF911F910F91FF90EF90DF90CF90BF9085
:103070000895CF93DF93EC010E94F717BE010E94E1
:103080004D04DF91CF9108951F93CF93DF93EB0110
:103090009091BD01992321F0CB010E94391813C0F2
:1030A000882349F0CB010E94F717182F682FCE0113
:1030B0000E949E1704C0CB010E94CA17182FBE01A0
:1030C000812F0E944D04DF91CF911F91089580912F
:1030D0001C02859585958595089580911C028770C1
:1030E000089590911C02977081E009F480E00895A2
:1030F00080912802089590912802892B80932802BC
:10310000089580959091280289238093280208953C
:1031100010922802089590912702892B809327020C
:10312000089580959091270289238093270208951E
:1031300010922702089510922602089580911D0290
:10314000089508950C94A1180C94A21890911D0252
:10315000981721F080931D020C94A4180895809173
:103160001D02882329F010921D0280E00C94A418FF
:103170000895E0910901F0910A018091280280836D
:10318000E0910901F0910A01908180912702892B39
:103190008083E0910901F0910A01908180912602DB
:1031A000892B808380911D02882381F0E0910901A1
:1031B000F0910A019081892B80838091090190917F
:1031C0000A010E94D01981110E94AF188091090153
:1031D00090910A010C94400E0C94A11898E0899FDC
:1031E00090011124262B20931C020E94001780912D
:1031F0001C028595859585950C94EC1810921C02FF
:1032000080E00C94EC1820911C028095822380931E
:103210001C02982F977079F430E0482F082E000C8C
:10322000550B2417350739F08595859585950E94AE
:1032300021170C94FE1808956FEF7FEF80E090E067
:103240000C94AE2580E090E00E948A2521E08C3E1F
:103250009E4F09F020E0822F089582E090E00C94C8
:10326000822583E090E00C948225CF9384E090E067
:103270000E948225C82F81E290E00E9482252C2F97
:1032800030E0A901582BCA01CF910895CF93C92FDF
:10329000682F84E090E00E9490256C2F81E290E0FE
:1032A000CF910C949025AB01BC018FE090E00C9481
:1032B000A225AB01BC0183E190E00C94A22560E063
:1032C00070E0CB010C94591960E070E0CB010E94D2
:1032D00053190C945F196CEE7EEF80E090E00E9431
:1032E000AE2560E082E090E00E94902560E083E0FF
:1032F00090E00E94902510921802109219021092EC
:103300001A0210921B0260E084E090E00E94902577
:1033100060E081E290E00E94902560E085E090E02E
:103320000E94902560E086E090E00E9490256FEF7B
:1033300087E090E00E94902540E050E0BA0188E0EC
:1033400090E00E94A22560E08DE090E00E94902530
:1033500040E050E0BA0188E190E00E94A22560E0E0
:1033600087E190E00E94902540E050E0BA018CE1B6
:1033700090E00E94A22560E080E290E00E9490250B
:1033800040E050E0BA0188E190E00E94A2250C9450
:1033900064190C946B19682F8EE090E00C949025C2
:1033A000FC01329697E080E0915029F02191222390
:1033B000D9F38F5FF9CF0895662349F0FC01329667
:1033C00008962191621729F0E817F907D1F780E0F4
:1033D000089581E008959C01FC0132969FEF80E002
:1033E0004191461789F09F3F19F4411101C0982F70
:1033F0008F5F8630A9F79F3F39F0F901E90FF11D82
:1034000097FDFA956283089508959C012A5F3F4FC6
:10341000FC014281461301C0128201968217930774
:10342000B9F708950C94EB190C94051A029626E04E
:10343000FC0111922A95E9F7089508950C941D1A3C
:103440000C941D1ACF930E94201A0E94BD060E9460
:103450001E1AC0E08C2F0E942606811104C0CF5F87
:10346000C830C1F701C081E0CF9108950C941D1AB6
:103470000C94361A0E94381A80915E02843049F109
:1034800010922A0220E488E190E00FB6F894A89503
:10349000809360000FBE2093600080E00E9444048F
:1034A0000E94381A83B7817F846083BF83B78160AD
:1034B00083BF7894889583B78E7F83BF0FB6F894C7
:1034C000A8958091600088618093600010926000F0
:1034D0000FBE08950C941D1A0E9427130E94340EEB
:1034E0000E9444040C946A1A1F920F920FB60F9216
:1034F00011248F939F93AF93BF9380912A028111E0
:1035000013C08091540290915502A0915602B0913F
:1035100057024196A11DB11D80935402909355020C
:10352000A0935602B0935702BF91AF919F918F9194
:103530000F900FBE0F901F90189582E084BD93E00E
:1035400095BD9AEF97BD80936E0008952FB7F894BC
:103550008091540290915502A0915602B091570269
:103560002FBF08952FB7F8946091540270915502BF
:1035700080915602909157022FBF08959C014FB73A
:10358000F8948091540290915502A0915602B09106
:1035900057024FBF821B930B089578941F920F928E
:1035A0000FB60F9211248F939F93AF93BF93809187
:1035B000540290915502A0915602B0915702019683
:1035C000A11DB11D8093540290935502A093560201
:1035D000B0935702BF91AF919F918F910F900FBE03
:1035E0000F901F90189587E797E7909301088093B5
:1035F00000089AE088E10FB6F894A89580936000DF
:103600000FBE90936000FFCF0C941B080E94BD0674
:103610008FE39CE90197F1F700C000000E94BD060E
:1036200080E00E94260680FF04C00E94041B0C94C8
:10363000F31A08950E942219811102C00E94C9192B
:103640000E942D19809329020E94351990935902E6
:10365000809358020E943119682F70E080E090E05A
:103660000E94A016609114027091150280911602BA
:10367000909117020C94D8168091310280FF0BC0F4
:103680006091100185E0689FB001112475956795E0
:10369000759567952BC081FF09C06091100185E089
:1036A000689FB00111247595679520C082FF07C0FF
:1036B0006091100185E0689FB001112417C09091BE
:1036C00030029923D1F060910F01961788F720916D
:1036D000100185E0289F90011124929FA001939FE3
:1036E000500D112470E0CA010E944D25603871050B
:1036F00040F46115710519F406C065E070E0862F8D
:1037000008958FE7089581E008958091310280FF48
:1037100008C060910C0170E0759567957595679587
:1037200021C081FF06C060910C0170E0759567951E
:1037300019C082FF04C060910C0170E010C090912C
:103740002F02992399F060910B019617A0F78091B1
:103750000C01899FC001112470E00E944D25603842
:10376000710540F46115710519F406C061E070E05F
:10377000862F08958FE7089581E00895803F21F412
:103780000E943C1B819504C0813F29F40E943C1B90
:10379000809335020895823F21F40E943C1B81955D
:1037A00004C0833F29F40E943C1B80933402089597
:1037B000893F19F40E94851B05C08A3F31F40E949D
:1037C000851B81958093360208958B3F21F40E94DA
:1037D000851B819504C08C3F29F40E94851B809332
:1037E00037020895843F21F480913302816017C02D
:1037F000853F21F480913302826011C0863F21F41D
:103800008091330284600BC0873F21F480913302A2
:10381000886005C0883F31F48091330280618093D5
:10382000330208958D3F21F48091310281600BC0F5
:103830008E3F21F480913102826005C08F3F29F4D0
:10384000809131028460809331020895803F39F481
:103850008091350287FF6AC01092350267C0813FB0
:1038600029F4809135021816BCF360C0909134029F
:10387000823F29F497FF5AC01092340257C0833F09
:1038800019F41916CCF352C090913602893F31F4E5
:1038900019160CF04BC01092360248C08A3F19F43A
:1038A00097FF44C0F8CF8B3F39F48091370287FFF0
:1038B0003DC0109237023AC08C3F29F48091370204
:1038C0001816BCF333C0843F21F4809133028E7FFD
:1038D00017C0853F21F4809133028D7F11C0863F50
:1038E00021F4809133028B7F0BC0873F21F48091BC
:1038F0003302877F05C0883F31F4809133028F7E89
:103900008093330213C08D3F21F4809131028E7F6A
:103910000BC08E3F21F4809131028D7F05C08F3F17
:1039200029F4809131028B7F80933102809134029F
:10393000811106C080913502811102C010923002BF
:1039400080913602811106C080913702811102C038
:1039500010922F0208950E94A61A2091340221117C
:1039600004C020913502222321F090932E028093EF
:103970002D0220913602211104C02091370222230A
:1039800021F090932C0280932B0282E392E00C941E
:103990004B0EEF92FF920F931F93CF93DF9300D0C4
:1039A00000D000D0CDB7DEB786E0E2E3F2E0DE0182
:1039B000119601900D928A95E1F7E0903402F09013
:1039C00035020091360210913702109234021092A3
:1039D00035021092360210923702E11003C0FF2028
:1039E00009F45DC080912D0290912E020E94BE1AB2
:1039F000AC0190913002992339F02091110130E00F
:103A00002417350758F04BC0209112018AE0289FF7
:103A1000900111242417350718F041C09F3F19F079
:103A20009F5F90933002EE2061F00E943C1B1E14B9
:103A300014F09FEF01C091E0989F902D1124909376
:103A40003402FF2061F00E943C1B1F1414F09FEF12
:103A500001C091E0989F902D1124909335023091F0
:103A600034023323E1F0209135022223C1F045EBEB
:103A70003403C0011124992319F09093340203C038
:103A800081E08093340235EB2303C0011124992394
:103A900019F09093350203C081E080933502011143
:103AA00003C0112309F45DC080912B0290912C0278
:103AB0000E94BE1AAC0190912F02992339F02091F7
:103AC0000D0130E02417350758F04BC020910E014E
:103AD0008AE0289F900111242417350718F041C06F
:103AE0009F3F19F09F5F90932F02002361F00E9487
:103AF000851B101614F09FEF01C091E0989F902D48
:103B0000112490933602112361F00E94851B111637
:103B100014F09FEF01C091E0989F902D1124909395
:103B20003702309136023323E1F02091370222230D
:103B3000C1F045EB3403C0011124992319F090938F
:103B4000360203C081E08093360235EB2303C001C7
:103B50001124992319F09093370203C081E08093D8
:103B600037028091340281110BC08091350281119E
:103B700007C080913602811103C080913702811104
:103B80000E94AB1CEB82FC820D831E8386E0FE014B
:103B90003196A2E3B2E001900D928A95E1F7269664
:103BA0000FB6F894DEBF0FBECDBFDF91CF911F914E
:103BB0000F91FF90EF900895E2E3F2E086E0DF01DD
:103BC0001D928A95E9F71092300210922F021092FE
:103BD00031020895809140020895CF93DF9300D081
:103BE0001F92CDB7DEB790915E02943011F58983B4
:103BF0007B836A839093E9008FEF9091E800815076
:103C000095FD06C095ED9A95F1F700008111F5CF6D
:103C10008091E80085FF0DC040E050E063E070E077
:103C2000CE0101960E9464208091E8008E778093F7
:103C3000E8000F900F900F90DF91CF910895BC0195
:103C400084E00C94ED1DBC0183E00C94ED1D24E098
:103C50002093E9002FEF3091E800215035FD06C098
:103C600035ED3A95F1F700002111F5CF2091E800EC
:103C700025FF0BC040E050E066E070E00E94642049
:103C80008091E8008E778093E8000895CF93DF93CA
:103C900021E02093E9002FEF3091E800215035FD1D
:103CA00006C035ED3A95F1F700002111F5CF2091CE
:103CB000E80025FF14C0EC0140E050E068E070E04F
:103CC0000E9464208091E8008E778093E80088E06D
:103CD000FE01A8E3B2E001900D928A95E1F7DF9131
:103CE000CF910895CF93603219F520915E02243070
:103CF000F9F4C091E900CF703091EC00232F2170CE
:103D000030FD20E8C22B22E02093E9002091E8005A
:103D100020FF0BC040E050E060E270E00E946420B1
:103D20008091E8008E778093E800CF70C093E9001F
:103D3000CF91089580915D02811109C00E944022B7
:103D40000E949D228091E20084608093E2000895A9
:103D500010925D020895089508950C946C1A42E043
:103D600061EC81E00E94B92142E261EC84E00E94B2
:103D7000B92142E261EC82E00E94B92142E260ECAA
:103D800083E00C94B92180916002833009F462C011
:103D900030F4813071F0823009F49BC008958A308C
:103DA00009F487C08B3009F46DC0893009F0A9C0CF
:103DB00020C080915F02813A09F0A3C08091E800A1
:103DC000877F8093E8008091630290916402892B41
:103DD00021F468E088E392E003C060E080E090E0D6
:103DE00070E00E94FA208091E8008B778093E800D1
:103DF000089580915F02813209F083C0809163024F
:103E000090916402009719F0029709F07AC08091AE
:103E1000E800877F8093E8008091E80082FD05C07C
:103E200080915E028111F8CF6CC02091F3008091E7
:103E3000F20090E0922B029729F48091F1008B7FA1
:103E4000813021F48091F100809340028091E8005C
:103E50008B7753C080915F02813A09F052C0809104
:103E6000630290916402892B09F04BC08091E800B5
:103E7000877F8093E8008091E80080FFFCCF8091ED
:103E80001D0136C080915F028132D9F580916302B5
:103E900090916402892BA9F58091E800877F809337
:103EA000E8000E94EE218091610280931D010C9434
:103EB000271380915F02813221F58091E800877F8E
:103EC0008093E8000E94EE2180916202809341027B
:103ED000089580915F02813AA1F48091E800877F84
:103EE0008093E8008091E80080FFFCCF8091410240
:103EF0008093F1008091E8008E778093E8000C9425
:103F0000EE2108951F93CF93DF93CDB7DEB7A0972F
:103F10000FB6F894DEBF0FBECDBF84B7877F84BFD6
:103F20000FB6F894A8958091600088618093600036
:103F3000109260000FBE90E080E80FB6F894809376
:103F40006100909361000FBE0E949B0E0E94402270
:103F50000E949D228091E20084608093E200789428
:103F60000E9432250E94A10E83E191E00E942F0E53
:103F700013E080915E02853069F40E943A1A8091C4
:103F80005C028823B1F30E94221A882391F30E94D5
:103F90004E20EFCF0E94AB0E80915E02843009F577
:103FA0001093E9008091E80082FF1BC08091E80037
:103FB00085FF0AC040E050E060E270E0CE0101966B
:103FC0000E94AF2091E001C090E08091E8008B77E3
:103FD0008093E800992329F060E2CE0101960E94C7
:103FE0007D080E948F0E0E948E0EC3CF0C94F81F86
:103FF000292F332723303105C9F060F421303105F2
:1040000081F02230310509F041C08BE590E02EEFC0
:1040100032E040C021323105E1F02232310531F188
:1040200035C082E190E029E533E034C09927813042
:10403000910549F028F0029749F5EAEDF2E005C054
:10404000EAEFF2E002C0EEEEF2E0849190E09F0130
:1040500021C063307105D0F4660F771FFB01E9566C
:10406000FE4F2081318189E090E014C063307105FA
:1040700068F4FB01EE0FFF1FEF56FE4F20813181E8
:10408000FB01E257FE4F808190E004C080E090E0A9
:1040900020E030E0FA0131832083089580E189BD7A
:1040A00082E189BD09B400FEFDCF8091D8008F7DEB
:1040B0008093D8008091E00082608093E00080913E
:1040C000E00081FDFCCF0895CF92DF92EF92FF9246
:1040D0000F931F93CF93DF93EC018B017A010E9422
:1040E0000D22811133C0E114F10439F0F701808110
:1040F0009181081B190BC80FD91FC12CD12C011598
:10410000110519F18091E80085FD16C08091E80045
:104110008E778093E800E114F10449F0F701808183
:104120009181C80ED91ED182C08285E00FC00E9445
:104130000D22882321F30AC089918093F100015058
:104140001109FFEFCF1ADF0ADACF80E0DF91CF91BC
:104150001F910F91FF90EF90DF90CF900895CF9235
:10416000DF92EF92FF920F931F93CF93DF93EC01B7
:104170008B017A010E940D22811133C0E114F104F8
:1041800039F0F70180819181081B190BC80FD91FE5
:10419000C12CD12C0115110519F18091E80085FD84
:1041A00016C08091E8008B778093E800E114F10459
:1041B00049F0F70180819181C80ED91ED182C08259
:1041C00085E00FC00E940D22882321F30AC0809150
:1041D000F100899301501109FFEFCF1ADF0ADACFFE
:1041E00080E0DF91CF911F910F91FF90EF90DF90D2
:1041F000CF90089520916502309166022617370707
:1042000048F06115710539F42091E8002E7720936C
:10421000E80001C0B901FC0120E06115710579F1E8
:1042200080915E028823F1F18530F1F18091E80000
:1042300083FD3CC08091E80082FD2EC08091E800A3
:1042400080FFEBCF2091F3008091F20090E0922B61
:104250006115710551F08830910538F42191209352
:10426000F100615071090196F3CF21E0089709F040
:1042700020E08091E8008E778093E800CECF211176
:10428000CFCF0AC080915E02882361F0853061F053
:104290008091E80083FD0AC08091E80082FFF2CFA0
:1042A00080E0089582E0089583E0089581E0089514
:1042B00020916502309166022617370748F0611594
:1042C000710539F42091E8002E772093E80001C0B1
:1042D000B901FC0120E06115710591F180915E0248
:1042E000882309F440C0853009F43FC08091E8007C
:1042F00083FD3DC08091E80082FD2FC08091E800E1
:1043000080FFE9CF2091F3008091F20090E0922BA2
:104310006115710559F08830910540F4249120937E
:10432000F1003196615071090196F2CF21E00897B2
:1043300009F020E08091E8008E778093E800CBCFF1
:104340002111CCCF0AC080915E02882361F08530B4
:1043500061F08091E80083FD0AC08091E80082FF4F
:10436000F2CF80E0089582E0089583E0089581E02F
:104370000895982F973068F59093E900981739F0D1
:104380007091EC002091ED005091F00003C0242FBB
:10439000762F50E021FD02C09F5FECCF3091EB0003
:1043A0003E7F3093EB003091ED003D7F3093ED0088
:1043B0003091EB0031603093EB007093EC00209370
:1043C000ED005093F0002091EE0027FDE5CF80E056
:1043D00008958F708093E90081E0089580915F02D5
:1043E00087FF11C08091E80082FD05C080915E02C8
:1043F0008111F8CF11C08091E8008B770BC08091BC
:104400005E02882349F08091E80080FFF8CF809118
:10441000E8008E778093E80008952091E4003091C1
:10442000E50095E64091EC00842F817040FF23C0A9
:104430008091E80080FD1DC080915E02882399F084
:10444000853099F08091EB0085FD11C04091E4002A
:104450005091E5002417350729F3915011F09A0186
:10446000E1CF84E0089582E0089583E0089581E03B
:10447000089580E008954091E80042FFDDCF08955F
:104480000E94AE220E94B622E0EEF0E080818160C0
:104490008083E8EDF0E080818F77808319BCA7ED01
:1044A000B0E08C918E7F8C9380818F7E8083109280
:1044B0005D0208950F931F93CF93DF930E94AE2266
:1044C0000E94B622C8EDD0E088818F7788838881EA
:1044D0008068888388818F7D888319BC10925E02F2
:1044E00010925A0210925C0210925B0200EE10E0F1
:1044F000F80180818B7F808388818160888342E09E
:1045000060E080E00E94B921E1EEF0E080818E7FE2
:104510008083E2EEF0E0808181608083808188602A
:104520008083F80180818E7F808388818061888389
:10453000DF91CF911F910F910895E8EDF0E0808118
:104540008F7E8083E7EDF0E080818160808384E06E
:1045500082BF81E080935D020C945A22E8EDF0E086
:1045600080818E7F80831092E20008951092DA009D
:104570001092E10008951F920F920FB60F9211242E
:104580002F933F934F935F936F937F938F939F935B
:10459000AF93BF93EF93FF938091E10082FF0BC035
:1045A0008091E20082FF07C08091E1008B7F8093C1
:1045B000E1000E9431258091DA0080FF1FC08091C8
:1045C000D80080FF1BC08091DA008E7F8093DA00D4
:1045D0008091D90080FF0DC080E189BD82E189BD55
:1045E00009B400FEFDCF81E080935E020E949A1E16
:1045F00005C019BC10925E020E94A81E8091E100C5
:1046000080FF19C08091E20080FF15C08091E20018
:104610008E7F8093E2008091E20080618093E200CF
:104620008091D80080628093D80019BC85E0809387
:104630005E020E94AC1E8091E10084FF30C0809138
:10464000E20084FF2CC080E189BD82E189BD09B40C
:1046500000FEFDCF8091D8008F7D8093D80080919F
:10466000E1008F7E8093E1008091E2008F7E809355
:10467000E2008091E20081608093E20080915A0222
:10468000882311F084E007C08091E30087FD02C019
:1046900081E001C083E080935E020E94AD1E8091A4
:1046A000E10083FF29C08091E20083FF25C0809153
:1046B000E100877F8093E10082E080935E021092A8
:1046C0005A028091E1008E7F8093E1008091E200A8
:1046D0008E7F8093E2008091E20080618093E2000F
:1046E00042E060E080E00E94B9218091F0008860A3
:1046F0008093F0000E94AB1EFF91EF91BF91AF91AC
:104700009F918F917F916F915F914F913F912F91E9
:104710000F900FBE0F901F9018951F920F920FB61B
:104720000F9211242F933F934F935F936F937F9337
:104730008F939F93AF93BF93CF93DF93EF93FF93A9
:10474000C091E900CF708091EC00D82FD17080FD2E
:10475000D0E81092E9008091F000877F8093F0000C
:1047600078940E94D1231092E9008091F000886033
:104770008093F000CD2BCF70C093E900FF91EF91B3
:10478000DF91CF91BF91AF919F918F917F916F9169
:104790005F914F913F912F910F900FBE0F901F90FF
:1047A00018951F93CF93DF93CDB7DEB7AA970FB6B7
:1047B000F894DEBF0FBECDBFEFE5F2E08091F100CF
:1047C000819322E0E736F207C9F70E94C31E809169
:1047D000E80083FF2EC180915F0290916002492F13
:1047E00050E04A30510508F024C1FA01ED57FF4F5F
:1047F0000C946125803821F0823809F01AC108C074
:1048000080915B0290915C02992389F082600FC0D5
:10481000809163028F70873008F00BC18093E900AC
:104820008091EB0085FB882780F91092E900909138
:10483000E800977F9093E8008093F1001092F100D8
:10484000D1C0282F2D7F09F0F4C0882319F08230C1
:1048500061F0EFC080916102813009F0EAC09330CD
:1048600009F080E080935C022EC08091610281118A
:104870002AC0809163028F702FEF280F263008F036
:10488000D8C08093E9002091EB0020FF1CC093303A
:1048900021F48091EB00806214C09091EB00906154
:1048A0009093EB0021E030E0A90102C0440F551FB6
:1048B0008A95E2F74093EA001092EA008091EB00BB
:1048C00088608093EB001092E9008091E800877F78
:1048D0008093E8000E94EE21ACC08111AAC0109123
:1048E00061021F778091E3008078812B8093E30041
:1048F0008091E800877F8093E8000E94EE218091FC
:10490000E80080FFFCCF8091E30080688093E300A3
:10491000111102C082E001C083E080935E0289C071
:104920008058823008F085C08091610290916202C7
:104930008C3D53E0950779F583E08A838AE2898389
:104940004FB7F894DE01139620E03EE051E2E32FEA
:10495000F0E050935700E49120FF03C0E295EF7020
:104960003F5FEF708E2F90E0EA3010F0C79601C0E5
:10497000C0968D939D932F5F243149F74FBF80914F
:10498000E800877F8093E8006AE270E0CE0101963C
:104990000E94FA2016C06091630270916402AE0119
:1049A0004F5F5F4F0E94F61FBC01892B09F441C085
:1049B0009091E800977F9093E80089819A810E9406
:1049C00058218091E8008B778093E80032C08038CE
:1049D00081F58091E800877F8093E80080915A02FA
:1049E0008093F1008091E8008E7772CF811121C011
:1049F000809161029091620299270297D4F480918C
:104A0000E800877F8093E8008091610280935A02DA
:104A10000E94EE2180915A02811106C08091E3002C
:104A200087FD02C081E001C084E080935E020E94A5
:104A3000AF1E8091E80083FF0AC08091E800877F65
:104A40008093E8008091EB0080628093EB00AA964F
:104A50000FB6F894DEBF0FBECDBFDF91CF911F918F
:104A600008950895CF9380915E028823A1F0C091AC
:104A7000E900CF709091EC00892F817090FD80E863
:104A8000C82B1092E9008091E80083FD0E94D12399
:104A9000CF70C093E900CF91089597FB072E16F4CD
:104AA000009407D077FD09D00E946E2507FC05D041
:104AB0003EF4909581959F4F0895709561957F4F35
:104AC0000895EE0FFF1F0590F491E02D09946927DA
:104AD000962769277827872778270895AA1BBB1B65
:104AE00051E107C0AA1FBB1FA617B70710F0A61BEE
:104AF000B70B881F991F5A95A9F780959095BC010F
:104B0000CD010895F999FECF92BD81BDF89A9927FC
:104B100080B50895A8E1B0E042E050E00C94B625DD
:104B2000262FF999FECF92BD81BDF89A019700B466
:104B3000021639F01FBA20BD0FB6F894FA9AF99A06
:104B40000FBE08950396272F0E9491250E9490255D
:104B5000252F0E949125242F0C9491250196272F13
:104B60000E9491250C949025DC01CB01FC01F99960
:104B7000FECF06C0F2BDE1BDF89A319600B40D92A9
:0C4B800041505040B8F70895F894FFCF62
:104B8C0001A30100A40104A4011E022808641E1440
:104B9C000A321EEA1D461E271E231E1F1E01E2009E
:104BAC00E900EA00B500B600B700CD008301CC00E7
:104BBC008A01920194012102230224022502260279
:104BCC0027022A02B300B4006F0070008182839127
:104BDC0090943597C6F6F7313300000000E200E9F7
:104BEC0000EA00B500B600B700CD008301CC008A06
:104BFC00019201940121022302240225022602279C
:104C0C00022A02B300B4006F00700081828340223C
:0E4C1C00810E046B038D03100329034903006E
:00000001FF
