:100000000C94AC020C94F3020C94F3020C94F302E3
:100010000C94F3020C94F3020C94F3020C94F3028C
:100020000C94F3020C94F3020C94281D0C94FB1D09
:100030000C943D140C94F3020C94F3020C94F30210
:100040000C94F3020C94F3020C94F3020C94F3025C
:100050000C94F3020C949E140C94F3020C94F3028F
:100060000C94F3020C94F3020C94F3020C94F3023C
:100070000C94F3020C94F3020C94F3020C94F3022C
:100080000C94F3020C94F3020C94F3020C94F3021C
:100090000C94F3020C94F3020C94F3020C94F3020C
:1000A0000C94F3020C94F3020C94F3021C0018005D
:1000B0000C00120013002A000B000D000E000F00B0
:1000C0001E001F001100100020002100220023004C
:1000D00024002C0000002500260000000100010083
:1000E0000100010001000100010001000100010008
:1000F00001000100010001000100010001000100F8
:1001000001000100000001000100000001000100E9
:1001100001000100010001000100010001000100D7
:1001200001000100010001000100010001000100C7
:1001300001000100000001000100000001000100B9
:1001400001000100010001000100010001000100A7
:100150000100010001000100010001000100010097
:100160000100010000000100010000000100010089
:100170000100010001000100010001000100010077
:100180000100010001000100010001000100010067
:100190000100010000000100010000000100010059
:1001A0000100010001000100010001000100010047
:1001B0000100010001000100010001000100010037
:1001C0000100010000000100010000000100010029
:1001D0000100010001000100010001000100010017
:1001E0000100010001000100010001000100010007
:1001F00001000100000001000100000001000100F9
:1002000001000100010001000100010001000100E6
:1002100001000100010001000100010001000100D6
:1002200001000100000001000100000001000100C8
:1002300001000100010001000100010001000100B6
:1002400001000100010001000100010001000100A6
:100250000100010000000100010000000100010098
:100260000100010001000100010001000100010086
:100270000100010001000100010001000100010076
:100280000100010000000100010000000100010068
:100290000100010001000100010001000100010056
:1002A0000100010001000100010001000100010046
:1002B0000100010000000100010000000100010038
:1002C0000100010001000100010001000100010026
:1002D0000100010001000100010001000100010016
:1002E0000100010000000100010000000100010008
:1002F00001000100010001000100010001000100F6
:1003000001000100010001000100010001000100E5
:1003100001000100000001000100000001000100D7
:1003200001000100010001000100010001000100C5
:1003300001000100010001000100010001000100B5
:1003400001000100000001000100000001000100A7
:100350000100010001000100010001000100010095
:100360000100010001000100010001000100010085
:100370000100010000000100010000000100010077
:100380000100010001000100010001000100010065
:100390000100010001000100010001000100010055
:1003A00001000100000001000100000012036B00C9
:1003B0006500790062006F00610072006400000057
:1003C000160371006D006B006200750069006C001F
:1003D00064006500720000000403090409026D0056
:1003E000040100A0FA090400000103010100092131
:1003F000110100012240000705810308000A0904D9
:1004000001000103010200092111010001224D0038
:100410000705820308000A09040200010300000026
:100420000921110100012236000705830308000A93
:100430000904030001030000000921110100012249
:10044000390007058403200001120110010000009B
:1004500008EDFE606001000102000105010906A12E
:1004600001050719E029E7150025019508750181A7
:100470000205081901290595057501910295017577
:100480000391010507190029F71500250195F87555
:10049000018102C005010980A10185021601002623
:1004A00003001A81002A8300751095018100C005A0
:1004B0000C0901A1018503160100269C021A010006
:1004C0002A9C02751095018100C005010902A10155
:1004D0000901A10005091901290515002501950546
:1004E000750181029501750381010501093009310A
:1004F0001581257F95027508810609381581257FAC
:10050000950175088106050C0A38021581257F952D
:100510000175088106C0C005010906A1010507197A
:10052000E029E715002501950875018102950175FF
:1005300008810105081901290595057501910295A4
:1005400001750391010507190029FF150026FF0019
:10055000950675088100C00011241FBECFEFDAE0B8
:10056000DEBFCDBF04B603FE27C080910F0290917D
:100570001002A0911102B09112028730904BA74057
:10058000B04BD1F410920F0210921002109211028F
:100590001092120214BE84B7877F84BF0FB6F894FE
:1005A000A89580916000886180936000109260003F
:1005B0000FBEE0E0F8E3099511E0A0E0B1E0E0ED66
:1005C000F2E402C005900D92A233B107D9F722E000
:1005D000A2E3B1E001C01D92AF30B207E1F70E9483
:1005E0007E1A0C943A210C94000090E080E008956B
:1005F0000895089581E00895089581E008950C9488
:10060000FA020E948D0C2FEF84E39CE02150804081
:100610009040E1F700C000000C94C114EF92FF92EB
:100620000F931F93CF93DF938C01FC01E080F18047
:1006300080915A01811140C082818823C1F1C70194
:100640000E941412C82F682FC7010E94BB11B70166
:100650008C2F0E944604EC01B8010E94FF028823FF
:1006600009F44BC0B801CE010E944F06882309F45B
:1006700044C0C531F0E7DF0720F5C23080E7D80776
:1006800008F04DC0C115E0E7DE0791F1C130D04759
:10069000E1F181E08093340180933501C801DF915D
:1006A000CF911F910F91FF90EF900C94FD02C70125
:1006B0000E94EA11C82FCBCFC7010E941412B701C4
:1006C000C8CFCC3380E7D80709F49BC0CD33D047DF
:1006D00001F7F8018281882309F4BAC0109235012C
:1006E0000E946D14909333018093320180E296C092
:1006F000F801828181110E94010380E0DF91CF9196
:100700001F910F91FF90EF900895F8018281882347
:10071000A1F38091CF0181608093CF01EECFF801EA
:100720008281882309F4BACF0E94CF13811102C0BD
:100730000E94B5130E94EC1390E090930102809305
:100740000002FE01E350F047809100028160E23137
:10075000F10538F4E45CFE4D0C94EA20809100022F
:10076000826080930002809100020E94F0130E9438
:100770008D0CC3CF809100028460F3CF8091000282
:100780008860EFCF809100028061EBCF8091000202
:100790008062E7CF809100028064E3CF8091000205
:1007A0008068DFCF809100028C60DBCF80910002F7
:1007B0008E7FD7CF809100028D7FD3CF80910002B2
:1007C0008B7FCFCF80910002877FCBCF80910002BB
:1007D0008F7EC7CF809100028F7DC3CF80910002B2
:1007E0008F7BBFCF809100028F77BBCF80910002BB
:1007F000837FB7CF90910002892F97FB87F98058AC
:10080000B0CFF8018281882361F0109234010E94F8
:100810006D14909333018093320182E00E94F209BB
:100820006CCF8091340181110FC080913201909181
:1008300033010E947914883C910530F486E20E94CD
:10084000C70886E20E94A30982E00E94F90955CFF9
:100850008091350181110FC0809132019091330157
:100860000E947914883C910530F487E20E94C70801
:1008700087E20E94A30980E2E8CF0C949E060C94C4
:10088000A0060C94FC020C9441040895972F70E08C
:1008900026E0929F600D711D1124FB0198E1899F54
:1008A000E00DF11D1124EE0FFF1FE455FF4F859160
:1008B00094910895FC01EE0FFF1FE455FC4F8591C4
:1008C000949108950E9446040E94D3059C018115CD
:1008D00040E4940708F097C0211580E3380708F03A
:1008E000FAC0203E310508F074C0203C310508F004
:1008F000E5C0283A310588F4253A310508F0E2C010
:100900002130310509F477C0C9010497813A910576
:1009100008F471C030E020E06EC0C901885A910926
:100920004597C0F7283A310509F4FEC0293A310548
:1009300009F4FDC02A3A310509F4FCC02B3A31050F
:1009400009F4FBC02C3A310509F4FAC02B3B310500
:1009500009F4F9C02C3B310509F4F8C02D3A3105F2
:1009600009F4F7C0203B310509F4F6C02E3A3105F1
:1009700009F4F5C02F3A310509F4F4C0213B3105E3
:1009800009F4F3C0223B310509F4F2C0233B3105E1
:1009900009F4F1C0243B310509F4F0C0253B3105D1
:1009A00009F4EFC0263B310509F4EEC0273B3105C1
:1009B00009F4EDC0283B310509F4ECC0293B3105B1
:1009C00009F4EBC02A3B310509F4EAC020E034E425
:1009D00012C0211590E2390780F42F3F310509F04C
:1009E00050F4283E310538F0C901805F9109306527
:1009F000409708F08FCFC9010895C9019F700E94E8
:100A00005A049C01F8CF8115944508F041C0211586
:100A100083E5380708F06AC0211592E5390738F5F3
:100A2000211541E5340708F05CC0211580E5380741
:100A300008F454C0C90134E0969587953A95E1F7DA
:100A40008370422F46954695437090E2499FA001DE
:100A50001124582B822F837021E030E002C0220F36
:100A6000331F8A95E2F7242B352B3C68C4CFC9018C
:100A70008370992741E050E002C0440F551F8A95CA
:100A8000E2F72695269580E2289F90011124EBCF6E
:100A9000211596E5390748F4922F88272115354509
:100AA000C8F59C01246F306AA6CFC90190563F70EB
:100AB0008115904108F02ECF30629DCFC901805C36
:100AC00091099DCF253A310549F1263A310549F57D
:100AD00022E830E490CF3327306C8DCF3F70306AFE
:100AE0008ACF322F2227216F306A85CFC9018370C8
:100AF000992741E050E002C0440F551F8A95E2F764
:100B00002695269580E2289F90011124242B352BD1
:100B10003A6871CF88279F719C01CECF21E830E4DD
:100B20006ACF23E830E467CF22EE34E464CF29EEC5
:100B300034E461CF2AEE34E45ECF25EB34E45BCFBE
:100B400026EB34E458CF23EB34E455CF24EB34E4E4
:100B500052CF27EB34E44FCF2CEC34E44CCF2DECC8
:100B600034E449CF23E835E446CF2AE835E443CFDF
:100B700022E935E440CF24E935E43DCF21E236E4F3
:100B80003ACF23E236E437CF24E236E434CF25E20D
:100B900036E431CF26E236E42ECF27E236E42BCFFF
:100BA0002AE236E428CF803E910581F1C8F48133F2
:100BB000910509F462C048F48932910509F456C0E0
:100BC0008A32910509F460C0089589339105B9F01E
:100BD00082389105A1F08533910509F440C008954C
:100BE000863E910561F138F4823E9105B1F0833E75
:100BF0009105E1F00895873E910551F10895209106
:100C000000022370D9F080EE90E008952091000258
:100C100020FF14C089E390E008952091000222FF94
:100C20000DC024FD09C083EE90E0089520910002DC
:100C300022FD31C024FF02C090E080E008952091A1
:100C4000000223FFFBCF24FDF7CF87EE90E008954D
:100C50002091000223FFEECF86EE90E008952091D0
:100C6000000225FFEBCF89E290E008952091000279
:100C700025FFE4CF85E390E008952091000226FF50
:100C8000DDCF8AE290E008952091000226FFD6CFC2
:100C900081E390E0089582EE90E0089508950F9327
:100CA0001F93CF938C01FB018281811106C0C1E0AB
:100CB0008C2FCF911F910F910895C0914301C111C5
:100CC00025C00531104799F70E944E0681E08093B8
:100CD00043010E946D149093420180934101109250
:100CE0003601109238011092370110923A01109299
:100CF000390110923C0110923B0110923E0110927A
:100D00003D011092400110923F01D2CF80914101EC
:100D1000909142010E947914883C910540F680919F
:100D20003601E82FF0E0EE0FFF1FE95CFE4F118364
:100D300000838F5F80933601C0E0BACF0C94F80235
:100D40000C94F902CF93DF9385B7806885BF85B790
:100D5000806885BFA9E1B1E04DE151E0C1E0D0E09C
:100D60008D91E82FE295EF70F0E061A18F709E0108
:100D700001C0220F8A95EAF7922F9095962391A3AE
:100D800082A1822B82A34A175B0751F7A3E1B1E04E
:100D900049E151E0C1E0D0E08D91E82FE295EF709C
:100DA000F0E061A18F709E0101C0220F8A95EAF7E1
:100DB000922F9095962391A382A1822B82A34A170A
:100DC0005B0751F7109248011092440110924901BB
:100DD0001092450110924A011092460110924B0167
:100DE00010924701DF91CF910C943D046F927F9256
:100DF0008F929F92AF92BF92CF92DF92EF92FF922B
:100E00000F931F93CF93DF9334E4632E31E0732E5F
:100E100049E1E42E41E0F42E01E010E0DD24D3941A
:100E2000E301C9903E01DE011E92F70181917F012D
:100E3000E82FE295EF70F0E091A18F70A80101C05A
:100E4000440F8A95EAF7892F842B81A382A1842EEF
:100E50008094882182A380EA8A95F1F763E171E0AA
:100E600090E080E0EB013991BE01A32EA2942FE027
:100E7000A222B12CE50128A19C903F70580101C02D
:100E8000AA0C3A95EAF7A22220E031F4202F082E8E
:100E900001C0220F0A94EAF729292C930196863083
:100EA000910501F781A1882181A382A1482B42A34A
:100EB0008C91C81641F0D0924C010E946D14909311
:100EC0004E0180934D01D8E46D16D1E07D0609F006
:100ED000A7CF80914C018823D1F080914D01909152
:100EE0004E010E947914069790F0809144018093FE
:100EF000480180914501809349018091460180938A
:100F00004A018091470180934B0110924C010E944D
:100F10003F0481E0DF91CF911F910F91FF90EF90FF
:100F2000DF90CF90BF90AF909F908F907F906F9009
:100F30000895E82FF0E0E85BFE4F80810895089562
:100F400090935401809353010895E0915301F091DF
:100F50005401309721F00190F081E02D099480E058
:100F60000895E0915301F0915401309721F00280EF
:100F7000F381E02D09940895E0915301F09154011B
:100F8000309721F00480F581E02D09940895209197
:100F90005101309152012817390771F09093520195
:100FA00080935101E0915301F0915401309721F069
:100FB0000680F781E02D0994089520914F0130912A
:100FC00050012817390771F09093500180934F0119
:100FD000E0915301F0915401309721F00084F185A4
:100FE000E02D0994089508950C94F3070E94641469
:100FF0000E94A2060C942615BF92CF92DF92EF9228
:10100000FF920F931F93CF93DF9300D000D00F92E6
:10101000CDB7DEB70E94F60686E5C82E81E0D82E51
:1010200010E000E0E02E802F0E949907B82EF60114
:10103000F1906F01F81609F45BC08091CF0181FD3A
:101040000E949F0730E020E0FB244F2D50E0922FBC
:10105000BA01022E02C0759567950A94E2F760FF07
:1010600041C02983EA8221E030E0790102C0EE0C20
:10107000FF1C9A95E2F72B2D30E02E213F2181E0D5
:10108000232B09F480E08B830E946D148160782FFC
:101090009D838C8349815A816B818D810E949E083A
:1010A000F801EA5AFE4F80818E2580830E94D31773
:1010B0000E94A50790915501891789F10E94A50703
:1010C000809355010F900F900F900F900F90DF912C
:1010D000CF911F910F91FF90EF90DF90CF90BF9035
:1010E0000C9443042F5F3F4F2630310509F0AFCFFA
:1010F0000F5F1F4F0430110509F094CF8FEF8983E4
:101100008A831B820E946D148160782F9D838C835B
:1011100049815A816B818D810E949E08C7CF0F90B3
:101120000F900F900F900F90DF91CF911F910F9123
:10113000FF90EF90DF90CF90BF900895CF93DF9313
:10114000CDB7DEB72B970FB6F894DEBF0FBECDBF7D
:101150004F83588769877A878B871E8285E0FE01D7
:101160003796DE01119601900D928A95E1F749813B
:101170005A816B817C818D819E812B960FB6F8946C
:10118000DEBF0FBECDBFDF91CF910C94150F88232A
:1011900009F4D8C0823871F40E94A50781FDD2C03D
:1011A00089E30E94BC120E94861389E30E94F9120F
:1011B0000C948613833859F40E94A50780FDC2C0A1
:1011C00083E50E94BC120E94861383E5EFCF84382A
:1011D00059F40E94A50782FDB5C087E40E94BC12A5
:1011E0000E94861387E4E2CF9CEF980F913A18F49F
:1011F0000E94BC12DDCF90E2980F983050F48770B7
:1012000091E001C0990F8A95EAF7892F0E943D135A
:10121000CFCF9BE5980F933070F4853A31F0863A42
:1012200039F083E890E00C94C70781E890E0FBCFA9
:1012300082E890E0F8CF98E5980F953108F082C0E9
:10124000883A09F440C0893A09F440C08A3A09F45E
:1012500040C08B3A09F440C08C3A09F440C08B3B43
:1012600009F440C08C3B09F440C08D3A09F440C0F9
:10127000803B09F440C08E3A09F440C08F3A09F42B
:1012800040C0813B09F440C0823B09F440C0833B2D
:1012900009F440C0843B09F440C0853B09F440C0D8
:1012A000863B09F440C0873B09F440C0883B09F401
:1012B00040C0893B09F440C08A3B09F440C090E03B
:1012C00080E00C94DD0782EE90E0FBCF89EE90E0A9
:1012D000F8CF8AEE90E0F5CF85EB90E0F2CF86EB89
:1012E00090E0EFCF83EB90E0ECCF84EB90E0E9CFA0
:1012F00087EB90E0E6CF8CEC90E0E3CF8DEC90E0D4
:10130000E0CF83E891E0DDCF8AE891E0DACF82E9AF
:1013100091E0D7CF84E991E0D4CF81E292E0D1CFC0
:1013200083E292E0CECF84E292E0CBCF85E292E0FE
:10133000C8CF86E292E0C5CF87E292E0C2CF8AE2D0
:1013400092E0BFCF0895882309F44BC0823871F42E
:101350000E94A50781FF45C089E30E94BC120E943C
:10136000861389E30E94F9120C948613833859F48A
:101370000E94A50780FF35C083E50E94BC120E9431
:10138000861383E5EFCF843859F40E94A50782FFC6
:1013900028C087E40E94BC120E94861387E4E2CF33
:1013A0009CEF980F913AF0F290E2980F983050F439
:1013B000877091E001C0990F8A95EAF7892F0E9402
:1013C0004313D2CF9BE5980F933020F490E080E058
:1013D0000C94C707885A853120F490E080E00C9483
:1013E000DD070895882321F00E943D130C94861395
:1013F0000895882321F00E9443130C9486130895C6
:101400008F929F92AF92BF92DF92EF92FF920F93D3
:101410001F93CF93DF9300D000D00F92CDB7DEB7EC
:101420007C016D837983FC01058102950F70128127
:1014300011110E945C130E94B512D82E882371F0FE
:101440001123A1F08D81805E883080F082E00E94BF
:101450009F120E94B51291E0D82ED926E981E2951B
:10146000EF70F0E0E25BFE4D0C94EA20D12CF6CF59
:1014700009810F70F981F07F11F00295007F11232F
:10148000B1F0002361F08D81805E883018F02D81ED
:10149000211109C0802F0E943D130E9486138D8167
:1014A0000E94C70815C0802F0E944E13F6CF8D8171
:1014B0000E94A309002361F08D81805E883018F0BE
:1014C0003D81311129C0802F0E9443130E94861351
:1014D000DD2009F4D3C10E94921280FDCFC1F70133
:1014E00012820E948C120E94D310C7010E944F0CDE
:1014F0000E948C120F900F900F900F900F90DF9121
:10150000CF911F910F91FF90EF90DF90BF90AF9020
:101510009F908F900C94F510802F0E945413D6CF7B
:1015200049814F70B42E5981507F503219F0B294D6
:1015300080EFB8228D81882369F0813029F1112351
:1015400069F1002359F0F701858180FFA8CF8F70E2
:10155000858304C0112361F0011104C08B2D0E940A
:10156000F209B6CF8B2D0130D1F70E947013B0CFA6
:10157000011106C00E9473138B2D0E94F909A8CF98
:10158000013009F4A5CFF6CF112321F0063008F081
:101590009FCFE4CF053008F09BCFEECF002361F35F
:1015A0008D810E94A30994CF898186958695837049
:1015B00069F0813009F08CCF8D8199819370111180
:1015C00002C090E080E00E94DD0782CF8D8199818A
:1015D0009370111102C090E080E00E94C70778CF9D
:1015E0008D81112329F00E94E1160E94C81770CF47
:1015F0000E944917FACF8981837009F05FC01111E9
:1016000067CF2D81229526952770220F220F8D817D
:101610008F7090E0B0E0A0E04C015D01022E04C0AC
:10162000880C991CAA1CBB1C0A94D2F7FD8160E0AF
:1016300070E0CB01F4FF0FC06FE070E080E090E05D
:1016400004C0660F771F881F991F2A95D2F76095EF
:1016500070958095909529812695269523702D83E8
:101660002230B1F0233019F19B01AC01282939292E
:101670004A295B2929833A834B835C833D816981B5
:101680007A818B819C813130B1F00E94601020CF33
:101690009B01AC01282939294A295B2929833A83EE
:1016A0004B835C83CA01B9010E948A1011CF0E944A
:1016B0006010C501B4010E9436100ACF869511232F
:1016C00011F089818170882309F402CF2D81229540
:1016D00026952770220F220F8D818F7090E0B0E049
:1016E000A0E04C015D01022E04C0880C991CAA1CCC
:1016F000BB1C0A94D2F73D8160E070E0CB0134FF5F
:101700000FC06FE070E080E090E004C0660F771FCC
:10171000881F991F2A95D2F76095709580959095AE
:1017200049814695469543704D834230B1F0433030
:1017300019F19B01AC01282939294A295B29298300
:101740003A834B835C833D8169817A818B819C8163
:101750003130B1F00E946611BBCE9B01AC0128294B
:1017600039294A295B2929833A834B835C83CA013F
:10177000B9010E949011ACCE0E946611C501B4015E
:101780000E943C11A5CE3D81323F09F447C080F450
:10179000303F79F1313FD9F1832F805E8031D0F035
:1017A000112309F456C001117ACE89818F7133C09B
:1017B0004D81433FD1F1443F99F7112309F43FC0D4
:1017C00089818F7189830E94D31063E089810E948F
:1017D00096127ECE5D815F705D8389818F7111234A
:1017E00021F00E94D3108D81BACE0E94F5108D8118
:1017F000C4CE112341F0053008F06ACE89818F7183
:101800000E941A1165CE063008F062CEF7CF8981AA
:101810008F71112339F00E94D3105ACE89818F71B4
:101820001123C9F30E94F51053CE112329F08981A9
:101830008F710E94BE104CCE0E94B41049CE81E040
:101840000E949F12023008F443CE82E00E949F1251
:101850003FCE0111A5CE89818F71E4CF49814F70B0
:101860006D81C7010E94F5020E94AF0F31CE498100
:101870004F706D81C7010E9445042ACE0F900F90D2
:101880000F900F900F90DF91CF911F910F91FF90CC
:10189000EF90DF90BF90AF909F908F9008950F933F
:1018A0001F93CF93DF93EC018B819C81892B29F0CF
:1018B0008881998189238F3F29F4DF91CF911F91EE
:1018C0000F910895CE010E940E038823B1F3688121
:1018D00079818A810E9462128C010E94BA110E9451
:1018E0002B10B801CE01DF91CF911F910F910C9475
:1018F000000A0E945C130E946D130E942F130E9425
:1019000086130E94B9180E94C81790E080E00E94D8
:10191000C70790E080E00C94DD070E944B130C9405
:10192000790C0E945612282F892F82958F70903C37
:1019300080F48A30B0F4843020F4823090F480E077
:1019400008958630E1F781E0203E88F0213FB9F725
:101950000EC08C3011F08F3091F793FB882780F9FF
:10196000089581E0203F39F018F4203E40F70895B3
:10197000243F29F7FCCF0895CF93DF9300D000D008
:101980000F92CDB7DEB70F900F900F900F900F9082
:10199000DF91CF910895CF93DF9300D000D000D096
:1019A000CDB7DEB726960FB6F894DEBF0FBECDBF1B
:1019B000DF91CF9108951F93CF93DF93E0915B0167
:1019C00016E080915C018E1304C0DF91CF911F91CE
:1019D0000895CE2FD0E01E9FF0011124E35AFE4F50
:1019E0004081518162817381848195810E94CB0CF9
:1019F000FE013196E770E5CF40918D0150918E0147
:101A000060918F017091900180919101909192016C
:101A10000C94CB0C1F93CF93DF9380919201807F26
:101A2000C1F480918F018823A1F080915B01C09166
:101A30005C0160918D0170918E01409190015091F7
:101A40009101D62FD723DA01A095B09516E0C813DF
:101A500004C0DF91CF911F91089590E04115510589
:101A600011F0DF3F31F401968770F1CF2A0F3B1F51
:101A700017C0189FF001199FF00D1124E35AFE4F73
:101A800021812713F0CF20812613EDCF2281211150
:101A9000EACF238134812417350740F3241B350B0B
:101AA000283C310500F7209192012F70206120938E
:101AB000920126E0289FF001299FF00D1124EE5994
:101AC000FE4F80818F70806180838DE891E00E945D
:101AD0004F0CDF91CF911F910C94DB0C9F92AF9232
:101AE000BF92CF92DF92EF92FF920F931F93CF930B
:101AF000DF93CDB7DEB72B970FB6F894DEBF0FBEDE
:101B0000CDBF8C0185E0F801DE01179601900D92A2
:101B10008A95E1F7D8014C9111965C911197129634
:101B2000EC9012978091900190919101009709F4A7
:101B30006BC120918D0130918E01632F62236F3F25
:101B400009F462C11396CD90DC9090908F0199209A
:101B500009F4F8C0C816D90608F43FC0F601E81B1E
:101B6000F90BCF01FF24F394883C910508F0F12C88
:101B70008DE8A82E81E0B82E80919201982F907F59
:101B8000FF2009F4B7C0911180C0FE2C35132AC084
:101B9000241328C0E11026C08F70806180939201C9
:101BA0000E94FC0CC5010E944F0C80919201D8014B
:101BB00015968C938F2D2B960FB6F894DEBF0FBE23
:101BC000CDBFDF91CF911F910F91FF90EF90DF90EC
:101BD000CF90BF90AF909F900895809590958C0D79
:101BE0009D1DC0CFCD2829F0842F85238F3F09F07C
:101BF00019C180E0B82FB170DB2EE0915B0120911C
:101C00005C0136E080FD1CC0EE20A1F280919201C3
:101C1000816080939201F12CCDCF8E2F90E03E9F7A
:101C2000F0011124E35AFE4F6181651306C0608103
:101C3000641303C062816E11E7CFFC013196E77037
:101C4000E213EBCF4F8358878F8198850E945612FD
:101C5000292F22952F70903260F0225F2F70223052
:101C600078F49F7051F0F8019581907F31F4D12C78
:101C70000AC09F7011F08823D1F3805E8830B8F3DA
:101C8000C8010E944F0CFD2C95CF351306C02413BC
:101C900004C0D801EE2009F47BC04F8358878F81A0
:101CA00098850E94910C882309F4B8C0EE2009F4AD
:101CB000B5C080919201803270F020918D013091F9
:101CC0008E013A8329831B82DD82CC828E83CE01F2
:101CD00001960E944F0C86E0F801ADE8B1E001905A
:101CE0000D928A95E1F70E940A0D0E94FC0CFF24D8
:101CF000F39460CF911113C07C2DDB86CA866E2DC4
:101D00008B850E94BC0C8DE891E00E944F0C86E010
:101D1000F50111928A95E9F70E94FC0C4BCF35131F
:101D2000BCCF2413BACFE110B8CFD80115968C934D
:101D3000C8010E944F0C86E0F50111928A95E9F7DF
:101D4000F92C38CFC816D90688F1B601681B790B73
:101D5000CB01F12C883C910508F047C0FE2CEE2009
:101D600009F45CC0351330C024132EC08091920159
:101D700080FD21C0982F907FF1F0D80115968C93AB
:101D80001597903F39F0982F907F905F8F70892B37
:101D900015968C93C8010E944F0C86E0F801ADE8BF
:101DA000B1E001900D928A95E1F7B6CF80959095BC
:101DB0008C0D9D1DCECF86E0F801ADE8B1E001901D
:101DC0000D928A95E1F7F6CE4F8358878F819885DB
:101DD0000E94910C81117FCF80919201816080934C
:101DE0009201C8010E944F0CE5CE7C2DDB86CA868D
:101DF0006E2D8B850E94BC0C86E0EDE8F1E0DF01E2
:101E00001D928A95E9F788CFEE2041F04F835887DD
:101E10008F8198850E94910C81115DCFC8010E942D
:101E20004F0C65CF81E08E25E5CE1F93CF93DF93D6
:101E3000CDB7DEB72C970FB6F894DEBF0FBECDBF7F
:101E40004F83588769877A878B879C87CE0107964F
:101E50000E946E0D882369F08A859B85892B39F055
:101E60004F815885842F85238F3F09F071C016E07C
:101E70005FC086E0FE013796DE01119601900D925B
:101E80008A95E1F78A859B85892B89F388859F81CF
:101E900089238F3F61F320915C0130E0C9010196F5
:101EA0008770992740915B014817190671F40E94C9
:101EB0008D0C10925C0110925B0186E0EDE8F1E080
:101EC000DF011D928A95E9F7D2CF96E0929FD0016B
:101ED000939FB00D1124A35ABE4FFE01319601907D
:101EE0000D929A95E1F780935C010E94DB0CBFCFC5
:101EF000819FC0011124835A9E4F0E946E0D88233A
:101F0000E9F0E0915B011E9FF0011124E35AFE4FBE
:101F10004081518162817381848195810E94CB0CC3
:101F200080915B0190E001968770992780935B0117
:101F300080915B0190915C018913DACF2C960FB6EA
:101F4000F894DEBF0FBECDBFDF91CF911F910895F2
:101F500069857A858B859C850E94CB0C88CFEF9212
:101F6000FF920F931F93CF93DF938C01892B89F0FE
:101F7000F12CEE24E394E8012196F8018491843752
:101F800009F457C0A0F4823009F43EC048F481300F
:101F9000D1F0DF91CF911F910F91FF90EF900895B5
:101FA0009CEF980F9037A8F70E94C7080AC08537A2
:101FB00009F44CC09CE7980F903758F78F770E9430
:101FC000A3098E0116C00E5F1F4FFE01849190E29F
:101FD000980F983060F48770FE2D01C0FF0F8A952E
:101FE000EAF78F2F0E945F130E94861302C00E949F
:101FF000C7088F2D815008F4BECFEFE9FFE031977D
:10200000F1F700C00000F6CF0E5F1F4FFE01849174
:1020100090E2980F983050F48770FE2D01C0FF0FAA
:102020008A95EAF78F2F0E946513DECF0E94A309DD
:10203000E0CF0E5F1F4FFE01C491C150D0F28FE977
:102040009FE00197F1F700C00000F7CF0E5F1F4F30
:10205000FE01F490CECF08956093A6017093A7017E
:102060008093A8019093A9010C94790CCF93DF93EE
:1020700000D000D0CDB7DEB769837A838B839C8391
:102080008091A6019091A701A091A801B091A9010A
:1020900029813A814B815C81822B932BA42BB52B18
:1020A0008093A6019093A701A093A801B093A901E2
:1020B0000F900F900F900F90DF91CF910C94790CAF
:1020C000CF93DF9300D000D0CDB7DEB769837A839A
:1020D0008B839C838091A6019091A701A091A80178
:1020E000B091A90129813A814B815C81822393239C
:1020F000A423B5238093A6019093A701A093A801E0
:10210000B093A9010F900F900F900F90DF91CF9196
:102110000C94790CCF93DF9300D000D0CDB7DEB70D
:1021200069837A838B839C838091A6019091A70118
:10213000A091A801B091A90129813A814B815C81CC
:1021400082279327A427B5278093A6019093A70100
:10215000A093A801B093A9010F900F900F900F903A
:10216000DF91CF910C94790C1092A2011092A301EF
:102170001092A4011092A5010C94790C41E050E05A
:1021800060E070E004C0440F551F661F771F8A95FA
:10219000D2F74093A2015093A3016093A4017093DE
:1021A000A5010C94790C282F81E090E0A0E0B0E02C
:1021B00004C0880F991FAA1FBB1F2A95D2F7409110
:1021C000A2015091A3016091A4017091A501842BFB
:1021D000952BA62BB72B8093A2019093A301A093DC
:1021E000A401B093A5010C94790C41E050E060E0AB
:1021F00070E004C0440F551F661F771F8A95D2F701
:1022000040955095609570958091A2019091A301A1
:10221000A091A401B091A50184239523A623B723FF
:102220008093A2019093A301A093A401B093A50170
:102230000C94790C282F81E090E0A0E0B0E004C07D
:10224000880F991FAA1FBB1F2A95D2F74091A201A0
:102250005091A3016091A4017091A5018427952755
:10226000A627B7278093A2019093A301A093A4016E
:10227000B093A5010C94790CCF93DF9300D000D0DC
:10228000CDB7DEB769837A838B839C838091A2016B
:102290009091A301A091A401B091A50129813A8157
:1022A0004B815C81822B932BA42BB52B8093A201B5
:1022B0009093A301A093A401B093A5010F900F9058
:1022C0000F900F90DF91CF910C94790CCF93DF9307
:1022D00000D000D0CDB7DEB769837A838B839C832F
:1022E0008091A2019091A301A091A401B091A501B8
:1022F00029813A814B815C8182239323A423B523D6
:102300008093A2019093A301A093A401B093A5018F
:102310000F900F900F900F90DF91CF910C94790C4C
:10232000CF93DF9300D000D0CDB7DEB769837A8337
:102330008B839C838091A2019091A301A091A40121
:10234000B091A50129813A814B815C818227932735
:10235000A427B5278093A2019093A301A093A40181
:10236000B093A5010F900F900F900F90DF91CF9138
:102370000C94790C0895292F220FE22FE90FEE0F0C
:10238000E80F8E2F877041E001C0440F8A95EAF76D
:10239000E695E695E69585E0E89FF0011124ED5677
:1023A000FE4F30E020E070E05191DF011197CB014A
:1023B000022E02C0969587950A94E2F78170819566
:1023C0008527842385278C932F5F3F4F2530310548
:1023D00059F70895292F220FE22FE90FEE0FE80F8A
:1023E0009E2F9770E695E695E69585E0E89FF001CB
:1023F0001124ED56FE4F50E040E080E0219130E0A6
:10240000092E02C0369527950A94E2F721703327EA
:10241000042E01C0220F0A94EAF7822B4F5F5F4F10
:102420004530510559F70895BF92CF92DF92EF9250
:10243000FF920F931F93CF93DF938C01C090A20163
:10244000D090A301E090A401F090A5018091A60195
:102450009091A701A091A801B091A901C82AD92AF9
:10246000EA2AFB2ACFE1D0E0BC2ED701C6010C2E10
:1024700004C0B695A795979587950A94D2F780FDE5
:102480000EC0219788F7B12C8B2DDF91CF911F9132
:102490000F91FF90EF90DF90CF90BF900895B8011B
:1024A0008C2F0E946204019761F3EECFCF93DF93EC
:1024B000D82FC92F0E9414126D2F7C2FDF91CF913E
:1024C0000C9462041F93CF93DF93162FD72F909114
:1024D0005A01992339F0862F972FDF91CF911F91C1
:1024E0000C945612882391F0862F972F0E94141275
:1024F000C82F682F812F9D2F0E94BB11612F7D2F28
:102500008C2FDF91CF911F910C946204862F972F0F
:102510000E94EA11C82FF2CF8091AA018595859576
:10252000859508958091AA018770089598E0899F04
:1025300090011124622B6093AA010C94D310909106
:10254000AA01809589238093AA01282F277061F41E
:10255000282F082E000C330B9217130629F08595AF
:10256000859585950C94F51008959091AA01977022
:1025700081E009F480E00895909112019923E1F03F
:102580009091000297FF18C0E82FE695E695E69532
:10259000EF3139F12091000130910101E20FF32F69
:1025A000F11D877021E030E001C0220F8A95EAF723
:1025B0008181822B81830895209100013091010156
:1025C000F90132969FEF40E05191851751F09F3FFE
:1025D00019F4511101C0942F4F5F4E31A9F79F3F5D
:1025E00009F40895290F311D97FD3A95F901828369
:1025F000089590911201992301F19091000297FFA3
:102600001CC0E82FE695E695E695EF3139F120916B
:10261000000130910101E20FF32FF11D877021E0DD
:1026200030E0A90102C0440F551F8A95E2F7CA01A4
:1026300080959181892381830895209100013091B3
:102640000101F9013296205E3F4F9191891303C039
:10265000DF0111971C92E217F307B9F7089581E0A3
:1026600090E0E0910001F0910101E80FF91F108264
:10267000019680329105A9F708959091CE01982B8B
:102680009093CE010895982F90958091CE01892343
:102690008093CE0108951092CE0108959091CD01BE
:1026A000982B9093CD010895982F90958091CD010E
:1026B00089238093CD0108951092CD0108959091C2
:1026C000CC01982B9093CC010895982F90958091F0
:1026D000CC0189238093CC0108951092CC010895F8
:1026E0008093AB0108951092AB01089520910001F1
:1026F00030910101F9013196205E3F4F80E09191C8
:1027000091118F5FE217F307D1F70895E09100016F
:10271000F09101018091CE018083E0910001F09160
:10272000010180819091CD01892B8083E09100018E
:10273000F091010180819091CC01892B808390914F
:10274000AB01992361F0E0910001F09101018081DA
:10275000892B80830E94761381111092AB018091A6
:102760000001909101010C94B1076DEE7EEF90E0B5
:1027700080E00E94242160E082E090E00E9412212B
:1027800060E083E090E00E94122160E084E090E04D
:102790000E94122160E085E090E00C94122190E00C
:1027A00080E00E940C219C0181E02D3E3E4F09F00B
:1027B00080E0089582E090E00C940421682F82E08C
:1027C00090E00C94122183E090E00C940421682F97
:1027D00083E090E00C94122184E090E00C940421BA
:1027E000682F84E090E00C941221809106028430DE
:1027F00039F11092D00188E190E020E40FB6F8940E
:10280000A895809360000FBE2093600080E00E9436
:10281000430483B7817F846083BF83B7816083BFB4
:102820007894889583B78E7F83BF0FB6F894A89568
:1028300080916000886180936000109260000FBEFC
:10284000089508950895CF930E9421140E94F606DA
:102850000E942214C0E08C2F0E949907811105C0AC
:10286000CF5FC430C1F7CF91089581E0FCCF0E94C3
:102870008D0C0E94A5070C9443041F921FB61F9253
:1028800011248F939F93AF93BF938091D0018111B7
:1028900013C08091FC019091FD01A091FE01B091C7
:1028A000FF014196A11DB11D8093FC019093FD0194
:1028B000A093FE01B093FF01BF91AF919F918F91C3
:1028C0001F901FBE1F90189582E084BD93E095BDB8
:1028D0009AEF97BD80936E0008952FB7F89480917A
:1028E000FC019091FD01A091FE01B091FF012FBF6D
:1028F0000895CF92DF92EF92FF929C014FB7F89428
:102900008091FC019091FD01A091FE01B091FF0129
:102910004FBF6C017D01EE24FF24A90170E060E04F
:10292000C416D506E606F70638F0821B930BFF9017
:10293000EF90DF90CF9008950197F7CF1F921FB6C9
:102940001F9211248F939F93AF93BF938091FC01AB
:102950009091FD01A091FE01B091FF010196A11D92
:10296000B11D8093FC019093FD01A093FE01B093F3
:10297000FF01BF91AF919F918F911F901FBE1F903C
:1029800018950E94AD1CF8942FEF87EA91E621502C
:1029900080409040E1F700C0000087E090EBDC0150
:1029A00080930F0290931002A0931102B093120231
:1029B00088E19CE00FB6F894A895809360000FBE64
:1029C00090936000FFCFCF92DF92EF92FF920F9330
:1029D0001F93CF93C0E0E82EF12C8C2F0E94990713
:1029E00010E000E0C82ED12CC601002E02C0959543
:1029F00087950A94E2F780FF11C0602F7C2F80E05A
:102A00000E944604E816F90649F481E0CF911F912F
:102A10000F91FF90EF90DF90CF9008950F5F1F4FC1
:102A20000630110509F7CF5FC430B9F680E0EECF6C
:102A3000CF93C82F8CE20E94E314882321F08C2FBF
:102A4000CF910C94E31480E0CF910895CF93DF935E
:102A500000D000D0CDB7DEB70E94CF13811102C0E5
:102A60000E94B51395E6998308C00E94F6068FE38D
:102A70009CE90197F1F700C00000A981A150A9834A
:102A8000A111F3CF89E20E941815811110C18AE2C9
:102A90000E94181581110E94B51385E00E94181537
:102AA00081110E94C1140E94DA138093CF0187E044
:102AB0000E941815882371F08BE10E941815882355
:102AC00009F4D1C09091CF01892F8D7F91FF826051
:102AD0008093CF018091CF010E94DE130E94EC13FE
:102AE00090E0909301028093000280EE0E941815FE
:102AF000882341F090910002892F8E7F90FF8160A2
:102B00008093000289E30E941815882341F0909178
:102B10000002892F8D7F91FF82608093000282EEF8
:102B20000E941815882341F090910002892F8B7F15
:102B300092FF84608093000286EE0E94181588231D
:102B400041F090910002892F877F93FF88608093E6
:102B5000000283EE0E941815882341F09091000234
:102B6000892F8F7E94FF80618093000285E30E940D
:102B70001815882341F090910002892F8F7D95FFD1
:102B800080628093000281E30E941815882341F03F
:102B900090910002892F8F7B96FF806480930002C2
:102BA00081E10E941815882341F090910002892F3D
:102BB00097FB87F9805880930002809100020E9461
:102BC000F01387E20E94181589838EE10E94181580
:102BD000882319F0B981B260B9838FE10E9418157A
:102BE000882319F029812460298380E20E94181526
:102BF000882319F039813860398381E20E941815E1
:102C0000882319F049814061498382E20E941815A6
:102C1000882319F059815062598383E20E94181564
:102C2000882319F089818064898384E20E941815C1
:102C30008823B1F199819068998389810E94E71373
:102C40003981232F30E050E040E029833A834B83E1
:102C50005C83CA01B9010F900F900F900F90DF9124
:102C6000CF910C942C108EE00E941815882339F017
:102C70009091CF01892F8B7F92FF846029CF80E1D3
:102C80000E9418159091CF01882329F0892F877F02
:102C900093FF88601DCF892F8E7F90FF816018CFB2
:102CA000A981A111CACF0E94E313282FCBCF0F9087
:102CB0000F900F900F90DF91CF9108958091D301E5
:102CC00080FF12C06091050185E0689FB00111246A
:102CD000759567957595679560387105A8F56115C7
:102CE0007105A1F1862F089581FF09C0609105014A
:102CF00085E0689FB001112475956795EDCF6091CF
:102D0000050182FD0AC08091D4018823D1F0909101
:102D1000040160910501891728F085E0689FB001E2
:102D20001124DACF869FB001112485E0869F90019F
:102D3000879F300D1124692F70E0C9010E94D620B1
:102D4000CBCF65E070E0CECF8FE7089581E00895A6
:102D50008091D30180FF0CC06091030170E07595F4
:102D60006795759567956115710549F1862F0895E9
:102D700081FF06C06091030170E075956795F3CF00
:102D80006091030182FD0BC09091D4019923A1F0C1
:102D90006091020180910301961738F0682F70E06E
:102DA0006038710500F38FE70895899FC0011124F1
:102DB00070E00E94D620F4CF61E070E0D7CF81E0D0
:102DC0000895803F31F40E945E1681958093D7016B
:102DD0000895813F19F40E945E16F8CF823F31F4C6
:102DE0000E945E1681958093D6010895833F19F461
:102DF0000E945E16F8CF893F29F40E94A81680939E
:102E0000D80108958A3F21F40E94A8168195F7CF32
:102E10008B3F31F40E94A81681958093D9010895C3
:102E20008C3F19F40E94A816F8CF843F31F48091AA
:102E3000D50181608093D5010895853F21F480916B
:102E4000D5018260F7CF863F21F48091D50184605F
:102E5000F1CF873F21F48091D5018860EBCF883F87
:102E600021F48091D5018061E5CF8D3F31F48091CF
:102E7000D30181608093D30108958E3F21F4809126
:102E8000D3018260F7CF8F3FB9F78091D30184607F
:102E9000F1CF9091D601803F41F48091D70187FD19
:102EA0001092D701992371F00895813F29F4809100
:102EB000D7011816ACF3F6CF823F81F497FFF2CF1B
:102EC0001092D6018091D7019091D801892B9091D1
:102ED000D901892B49F71092D4010895833F19F441
:102EE000191674F3DFCF893F39F48091D801181691
:102EF000CCF61092D801D6CF8A3F29F48091D80120
:102F000087FFD0CFF6CF8B3F39F48091D90187FF6F
:102F1000C9CF1092D901C6CF8C3F29F48091D90135
:102F20001816BCF3BFCF843F31F48091D5018E7F5A
:102F30008093D501B7CF853F21F48091D5018D7F56
:102F4000F7CF863F21F48091D5018B7FF1CF873F6A
:102F500021F48091D501877FEBCF883F21F48091C8
:102F6000D5018F7EE5CF8D3F31F48091D3018E7FE7
:102F70008093D30197CF8E3F21F48091D3018D7F31
:102F8000F7CF8F3F09F08ECF8091D3018B7FF0CFA9
:102F900085ED91E00E94BC070E946D149093D201D0
:102FA0008093D10108951F93CF93DF9300D000D079
:102FB00000D0CDB7DEB78091D1019091D2010E94AF
:102FC0007914AC018091D4012091060130E0811187
:102FD00006C0209107019AE0299F90011124421711
:102FE000530788F02091D601A091D701A9831091B1
:102FF000D801B091D901BE8321110FC09A2F912B16
:103000009B2B09F0B2C026960FB6F894DEBF0FBE18
:10301000CDBFDF91CF911F9108958F3F19F08F5F42
:103020008093D401121624F40E945E168093D60178
:103030008091D60187FF05C00E945E16819580931E
:10304000D6012981121624F40E945E168093D701BE
:103050008091D70187FF05C00E945E1681958093FD
:10306000D7018091D601882309F455C03091D7014A
:103070003D83332309F44FC0282F880F330B440BB3
:10308000550B29833A834B835C83CA01B9010E94A3
:10309000DD1F23E333E343E35FE369837A838B83B9
:1030A0009C8369817A818B819C810E944120698304
:1030B0007A838B839C8369817A818B819C810E9436
:1030C000A51F6093D6018D81082E000C990BAA0BC9
:1030D000BB0B89839A83AB83BC83BC01CD010E9467
:1030E000DD1F23E333E343E35FE369837A838B8369
:1030F0009C8369817A818B819C810E9441206983B4
:103100007A838B839C8369817A818B819C810E94E5
:10311000A51F6093D701111624F40E94A81680936E
:10312000D8018091D80187FF05C00E94A81681951B
:103130008093D8019E81191624F40E94A8168093CA
:10314000D9018091D90187FF05C00E94A8168195F9
:103150008093D90126960FB6F894DEBF0FBECDBF7F
:10316000DF91CF911F910C94C8178F3F09F057CF73
:1031700068CF85E0E5EDF1E0DF011D928A95E9F782
:103180001092D4011092D30108958091FA0108950C
:10319000CF93DF9300D00F92CDB7DEB72091060218
:1031A000243019F523E029838A839B832093E90047
:1031B0008FEF9091E800815095FD06C095ED9A95AE
:1031C000F1F700008111F5CF8091E80085FF0DC077
:1031D00050E040E063E070E0CE0101960E94251BC4
:1031E0008091E8008E778093E8000F900F900F9009
:1031F000DF91CF910895CF93DF9300D00F92CDB799
:10320000DEB79C0180910602843031F582E089832B
:10321000205831093B832A8383E08093E9008FEFB4
:103220009091E800815095FD06C095ED9A95F1F7D3
:1032300000008111F5CF8091E80085FF0DC050E0BE
:1032400040E063E070E0CE0101960E94251B809172
:10325000E8008E778093E8000F900F900F90DF9139
:10326000CF910895209106022430F1F422E02093BA
:10327000E9002FEF3091E800215035FD06C035ED13
:103280003A95F1F700002111F5CF2091E80025FFD4
:103290000BC050E040E065E070E00E94251B80918B
:1032A000E8008E778093E8000895CF93DF93D82FBE
:1032B000C92F809106028430F1F490911201992374
:1032C000E9F09091000297FF19C08093E9008FEF19
:1032D0009091E800815095FD06C095E19A95F1F72F
:1032E00000008111F5CF8091E80050E040E060E2FD
:1032F00070E085FD1AC0DF91CF91089581E0809341
:10330000E9008FEF9091E800815095FD06C095EDA2
:103310009A95F1F700008111F5CF8091E80085FFC3
:10332000EACF50E040E068E070E08D2F9C2F0E94D3
:10333000251B8091E8008E778093E80080E2ED2FD6
:10334000FC2FAAEDB1E001900D928A95E1F7D3CF61
:1033500080910502811109C00E94AD1C0E940A1DC6
:103360008091E20084608093E2000895109205024B
:103370000895089508950C94371442E061EC81E0BB
:103380000E94291C42E061EC82E00E94291C42E07C
:1033900061EC83E00E94291C42E261EC84E00C9421
:1033A000291C80910802893089F148F4823009F49F
:1033B00094C0833009F44FC0813041F008958A30C1
:1033C00009F47BC08B3009F461C008958091070235
:1033D000813A09F03FC08091E800877F8093E80040
:1033E00080910B0290910C02892B61F460E28AEDCE
:1033F00091E070E00E94741B8091E8008B778093CD
:10340000E800089560E090E080E0F3CF809107024B
:10341000813201F580910B0290910C02009711F01E
:103420000397C1F48091E800877F8093E800809142
:10343000E80082FF0BC08091F1008093FA01809137
:10344000E8008B778093E8000C945D1C8091060265
:103450008111EDCF089580910702813AD9F78091CB
:103460000B0290910C02892BA9F78091E800877FCD
:103470008093E8008091E80080FFFCCF80911201EA
:103480008093F1008091E8008E77DCCF8091070275
:10349000813201F780910B0290910C02892BD1F6B9
:1034A0008091E800877F8093E8000E945D1C8091F6
:1034B0000902809312010C948D0C809107028132D5
:1034C00049F68091E800877F8093E8000E945D1CA8
:1034D00080910A028093FB01089580910702813A4E
:1034E00009F0B8CF8091E800877F8093E800809151
:1034F000E80080FFFCCF8091FB01C2CF84B7877FBB
:1035000084BF0FB6F894A89580916000886180937D
:103510006000109260000FBE80E8809361001092FE
:1035200061000E94F4070E94AD1C0E940A1D809158
:10353000E20084608093E20078940E948A1F0E94D7
:10354000F60788E091E00E94A0078091060285308E
:1035500019F00E94FC07F9CF0E94F5138091040234
:10356000882399F30E942314882379F30E940F1B68
:10357000ECCF9C01DA01892F992783309105C1F0A6
:1035800068F48130910509F445C0029761F48DE635
:1035900090E02CED33E02D933C930895813291051A
:1035A000E1F0829739F190E080E030E020E0F3CF65
:1035B000C9019927213059F08230910559F0E8ED81
:1035C000F3E0892B81F7849190E09F01E4CFE0EC58
:1035D000F3E0F9CFECEAF3E0F6CF643020F7E62F22
:1035E000F0E0EE0FFF1FE75DFE4F2081318189E0A3
:1035F00090E0D1CF6430B8F670E0FB01EE0FFF1F12
:10360000EF5DFE4F20813181635E7E4FFB01808143
:1036100090E0C1CF82E190E029E434E0BCCF80E1CA
:1036200089BD82E189BD09B400FEFDCF8091D8003B
:103630008F7D8093D8008091E00082608093E000CD
:103640008091E00081FDFCCF0895AF92BF92CF92B0
:10365000DF92FF920F931F93CF93DF936C01EB01E7
:103660008A010E947C1CF82E811123C001151105CE
:1036700039F0F80180819181C81BD90BC80ED91E81
:10368000B12CA12C2097A9F08091E80085FD22C0E3
:103690008091E8008E778093E80001151105A1F074
:1036A000F80180819181A80EB91EB182A08285E0C7
:1036B000F82E8F2DDF91CF911F910F91FF90DF900A
:1036C000CF90BF90AF9008950E947C1C8823D1F2C8
:1036D000F82EEFCFF60181916F018093F1002197D1
:1036E000FFEFAF1ABF0ACECFFC01CB0120910D0234
:1036F00030910E022617370790F0009729F4209199
:10370000E8002E772093E80040E0009751F4411143
:1037100008C08091E80082FF31C080E00895C901AF
:10372000F3CF209106022223A9F12530A9F120919F
:10373000E80023FD2DC02091E80022FDEACF209172
:10374000E80020FFE2CF3091F3002091F2000097D3
:1037500019F02830310558F041E02830310509F0E2
:1037600040E02091E8002E772093E800CECF4191F1
:103770004093F10001972F5F3F4FE9CF8091060200
:10378000882341F0853041F08091E80083FFC1CF6C
:1037900081E0089582E0089583E00895FC01CB0163
:1037A00020910D0230910E022617370790F00097F6
:1037B00029F42091E8002E772093E80040E000975C
:1037C00051F4411108C08091E80082FF32C080E0CE
:1037D0000895C901F3CF209106022223B1F12530CB
:1037E000B1F12091E80023FD2EC02091E80022FDD8
:1037F000EACF2091E80020FFE2CF3091F300209142
:10380000F200009719F02830310558F041E02830D7
:10381000310509F040E02091E8002E772093E80080
:10382000CECF44914093F100319601972F5F3F4FE7
:10383000E8CF80910602882341F0853041F08091E5
:10384000E80083FFC0CF81E0089582E0089583E01F
:103850000895982F973028F08F708093E90081E0C9
:1038600008959093E900242F762F50E0981731F0B7
:103870007091EC002091ED005091F00021FD02C00C
:103880009F5FE8CF3091EB003E7F3093EB003091AB
:10389000ED003D7F3093ED003091EB0031603093CF
:1038A000EB007093EC002093ED005093F00020911A
:1038B000EE0027FDE5CF80E008958091070287FFA5
:1038C00013C08091E80082FF06C08091E8008B77EA
:1038D0008093E80004C0809106028111F2CF089520
:1038E000809106028823D9F38091E80080FFF8CF09
:1038F0008091E8008E77ECCF2091E4003091E500D4
:1039000095E6A9012091EC00822F817020FF06C06E
:103910008091E80080FF06C080E008952091E800D3
:1039200022FD1AC080910602882389F0853089F033
:103930008091EB0085FD0FC02091E4003091E500FF
:1039400042175307F9F29150E1F684E0089582E0BE
:10395000089583E0089581E008950E941B1D0E9450
:10396000231DE0EEF0E0808181608083E8EDF0E0EF
:1039700080818F77808319BCA7EDB0E08C918E7F1A
:103980008C9380818F7E80831092050208950F931F
:103990001F93CF93DF930E941B1D0E94231DC8ED30
:1039A000D0E088818F778883888180688883888148
:1039B0008F7D888319BC1092060210920202109229
:1039C00004021092030200EE10E0F80180818B7F68
:1039D000808388818160888342E060E080E00E948B
:1039E000291CE1EEF0E080818E7F8083E2EEF0E042
:1039F000808181608083808188608083F8018081FC
:103A00008E7F8083888180618883DF91CF911F9131
:103A10000F910895E8EDF0E080818F7E8083E7EDDF
:103A2000F0E080818160808384E082BF81E08093C8
:103A300005020C94C71CE8EDF0E080818E7F808346
:103A40001092E20008951092DA001092E1000895B9
:103A50001F920F920FB60F9211242F933F934F9303
:103A60005F936F937F938F939F93AF93BF93EF93E6
:103A7000FF938091E10082FF0BC08091E20082FF02
:103A800007C08091E1008B7F8093E1000E94891F35
:103A90008091DA0080FF19C08091D80080FF15C0A6
:103AA0008091DA008E7F8093DA008091D90080FFC8
:103AB00094C080E189BD82E189BD09B400FEFDCFDB
:103AC00081E0809306020E94A8198091E10080FFA6
:103AD00019C08091E20080FF15C08091E2008E7FC6
:103AE0008093E2008091E20080618093E200809107
:103AF000D80080628093D80019BC85E080930602CC
:103B00000E94BA198091E10084FF29C08091E200EF
:103B100084FF25C080E189BD82E189BD09B400FE32
:103B2000FDCF8091D8008F7D8093D8008091E100F7
:103B30008F7E8093E1008091E2008F7E8093E2008F
:103B40008091E20081608093E200809102028823EC
:103B500009F449C084E0809306020E94BB19809159
:103B6000E10083FF29C08091E20083FF25C080919E
:103B7000E100877F8093E10082E08093060210924B
:103B800002028091E1008E7F8093E1008091E2004B
:103B90008E7F8093E2008091E20080618093E2005A
:103BA00042E060E080E00E94291C8091F000886083
:103BB0008093F0000E94B919FF91EF91BF91AF91EE
:103BC0009F918F917F916F915F914F913F912F9135
:103BD0000F900FBE0F901F90189519BC10920602FF
:103BE0000E94B61972CF8091E30087FD02C081E088
:103BF000B2CF83E0B0CF1F920F920FB60F92112475
:103C00002F933F934F935F936F937F938F939F93E4
:103C1000AF93BF93CF93DF93EF93FF93D091E900DE
:103C2000DF708091EC00C82FC17080FDC0E8109259
:103C3000E9008091F000877F8093F00078940E94E3
:103C40003F1E1092E9008091F00088608093F000A0
:103C5000CD2BCF70C093E900FF91EF91DF91CF9111
:103C6000BF91AF919F918F917F916F915F914F9194
:103C70003F912F910F900FBE0F901F9018951F939B
:103C8000CF93DF93CDB7DEB7AA970FB6F894DEBF18
:103C90000FBECDBF87E092E0FC0101962091F100BC
:103CA000208322E08F309207B9F70E94D1198091CA
:103CB000E80083FF16C180910702909108029A30B4
:103CC00008F00FC1E92FF0E0E25AFE4D0C94EA2013
:103CD000803881F0823809F004C180910B028F7026
:103CE0008093E9008091EB0085FB882780F9109292
:103CF000E90006C080910302909104029111826054
:103D00009091E800977F9093E8008093F1001092E3
:103D1000F1008091E8008E77E0C0882309F4CEC0DE
:103D2000823009F0DEC0809109028111D1C08091FA
:103D30000B028F7009F4D5C08093E9002091EB004D
:103D400020FFC6C0933031F48091EB0080628093F5
:103D5000EB00BEC09091EB0090619093EB0021E0EE
:103D600030E001C0220F8A95EAF72093EA00109212
:103D7000EA008091EB008860EACF8111B2C0109117
:103D800009021F778091E3008078812B8093E30004
:103D90008091E800877F8093E8000E945D1C8091FD
:103DA000E80080FFFCCF8091E30080688093E3000F
:103DB00082E0111183E08093060293C08058823024
:103DC00008F08FC08091090290910A028C3D23E097
:103DD0009207A1F583E08A838AE289834FB7F8943A
:103DE000DE01139620E03EE051E2E32FF0E0509335
:103DF0005700E49120FF03C0E295EF703F5FEF7042
:103E00008E2F90E0EA30C0F0C7968D939D932F5F80
:103E1000243159F74FBF8091E800877F8093E800F5
:103E20006AE270E0CE0101960E94741B8091E80066
:103E30008B778093E80055C0C096E7CFAE014F5F07
:103E40005F4F60910B020E94B91ABC01892B09F4E3
:103E500048C08091E800877F8093E80089819A813B
:103E60000E94CE1BE3CF8038E1F58091E800877F88
:103E70008093E800809102028093F1004ACF811183
:103E800030C090910902923060F58091E800877F00
:103E90008093E800909302020E945D1C80910202D0
:103EA000882311F084E005C08091E30087FDFACFFC
:103EB00081E0809306020E94BD1913C0809109021F
:103EC000813079F481E0933009F080E0809304023E
:103ED0001092E9008091E800877F8093E8000E94BB
:103EE0005D1C8091E80083FF0AC08091E800877F15
:103EF0008093E8008091EB0080628093EB00AA96AB
:103F00000FB6F894DEBF0FBECDBFDF91CF911F91EA
:103F100008950895CF93809106028823A1F0C0915F
:103F2000E900CF709091EC00892F817090FD80E8BE
:103F3000C82B1092E9008091E80083FD0E943F1E8B
:103F4000CF70C093E900CF9108950E94AC1F689490
:103F5000B1110C943B2008950E94202088F09F57B7
:103F600098F0B92F9927B751B0F0E1F0660F771F9D
:103F7000881F991F1AF0BA95C9F714C0B13091F093
:103F80000E943A20B1E008950C943A20672F782FD0
:103F90008827B85F39F0B93FCCF386957795679558
:103FA000B395D9F73EF490958095709561957F4FC4
:103FB0008F4F9F4F0895E89409C097FB3EF490956A
:103FC0008095709561957F4F8F4F9F4F9923A9F0F2
:103FD000F92F96E9BB279395F69587957795679581
:103FE000B795F111F8CFFAF4BB0F11F460FF1BC0C5
:103FF0006F5F7F4F8F4F9F4F16C0882311F096E958
:1040000011C0772321F09EE8872F762F05C0662305
:1040100071F096E8862F70E060E02AF09A95660FBE
:10402000771F881FDAF7880F9695879597F9089577
:1040300057FD9058440F551F59F05F3F71F0479559
:10404000880F97FB991F61F09F3F79F0879508953E
:10405000121613061406551FF2CF4695F1DF08C05D
:10406000161617061806991FF1CF8695710561057A
:1040700008940895E894BB2766277727CB0197F922
:1040800008950E9454200C94C5200E94B72038F057
:104090000E94BE2020F0952311F00C94AE200C94C9
:1040A000B42011240C943B200E94182070F3959F9B
:1040B000C1F3950F50E0551F629FF001729FBB271F
:1040C000F00DB11D639FAA27F00DB11DAA1F649FBB
:1040D0006627B00DA11D661F829F2227B00DA11D6E
:1040E000621F739FB00DA11D621F839FA00D611DF4
:1040F000221F749F3327A00D611D231F849F600D15
:10410000211D822F762F6A2F11249F5750409AF03D
:10411000F1F088234AF0EE0FFF1FBB1F661F771FC9
:10412000881F91505040A9F79E3F510580F00C9494
:10413000AE200C943B205F3FE4F3983ED4F3869589
:1041400077956795B795F795E7959F5FC1F7FE2B34
:10415000880F911D9695879597F9089597F99F6710
:1041600080E870E060E008959FEF80EC08950024FF
:104170000A941616170618060906089500240A94CC
:1041800012161306140605060895092E0394000C52
:1041900011F4882352F0BB0F40F4BF2B11F460FFE1
:1041A00004C06F5F7F4F8F4F9F4F089597FB072E7F
:1041B00016F4009407D077FD09D00E94F02007FC88
:1041C00005D03EF4909581959F4F08957095619527
:1041D0007F4F0895EE0FFF1F0590F491E02D099495
:1041E000AA1BBB1B51E107C0AA1FBB1FA617B7071D
:1041F00010F0A61BB70B881F991F5A95A9F7809539
:104200009095BC01CD010895F999FECF92BD81BD75
:10421000F89A992780B50895A8E1B0E042E050E00F
:104220000C942C21262FF999FECF92BD81BDF89ACE
:10423000019700B4021639F01FBA20BD0FB6F894EA
:10424000FA9AF99A0FBE08950196272F0E9413211A
:104250000C941221DC01CB01FC01F999FECF06C0C0
:10426000F2BDE1BDF89A319600B40D924150504034
:10427000B8F70895F894FFCFAE03BA03BE03C203A4
:10428000C603CA03CE03D203D603DA03DE03E20376
:10429000E603EA03EE03F203F603FA03380A380AE8
:1042A000900A900AD40AF00A680A680AFB0A680AA7
:1042B000C30BC30B2E0C680A680A370C681E8D1ED0
:1042C000711F8D1E711FBD1EDE1E711F331F3F1F0C
:1042D000AC012808140A321EC51855193219FB18EA
:1042E000C818019190943597C6F6F73133404D3692
:1042F000391705CA0494045B04EE0307042004394B
:024300000400B7
:00000001FF
